{
  "abi": [
    {
      "inputs": [
        {
          "internalType": "address",
          "name": "_adminAddress",
          "type": "address"
        },
        {
          "internalType": "string",
          "name": "_rfc",
          "type": "string"
        },
        {
          "internalType": "string",
          "name": "_nombre",
          "type": "string"
        },
        {
          "internalType": "string",
          "name": "_telefono",
          "type": "string"
        },
        {
          "internalType": "string",
          "name": "_email",
          "type": "string"
        }
      ],
      "stateMutability": "nonpayable",
      "type": "constructor"
    },
    {
      "inputs": [],
      "name": "InstitutoNacionalElectoral__AccesoDenegado",
      "type": "error"
    },
    {
      "inputs": [],
      "name": "InstitutoNacionalElectoral__AccesoDenegado_NoEsAdministrador",
      "type": "error"
    },
    {
      "inputs": [],
      "name": "InstitutoNacionalElectoral__AccesoDenegado_NoEsEmpleado",
      "type": "error"
    },
    {
      "inputs": [],
      "name": "InstitutoNacionalElectoral__EmpleadoDadoDeAlta",
      "type": "error"
    },
    {
      "inputs": [],
      "name": "InstitutoNacionalElectoral__EmpleadoDadoDeBaja",
      "type": "error"
    },
    {
      "inputs": [],
      "name": "InstitutoNacionalElectoral__EmpleadoNoRegistrado",
      "type": "error"
    },
    {
      "inputs": [],
      "name": "InstitutoNacionalElectoral__EmpleadoYaRegistrado",
      "type": "error"
    },
    {
      "inputs": [],
      "name": "InstitutoNacionalElectoral__NoAutoBaja",
      "type": "error"
    },
    {
      "inputs": [],
      "name": "InstitutoNacionalElectoral__RolInvalido",
      "type": "error"
    },
    {
      "anonymous": false,
      "inputs": [
        {
          "indexed": true,
          "internalType": "uint256",
          "name": "fechaBaja",
          "type": "uint256"
        },
        {
          "indexed": true,
          "internalType": "string",
          "name": "codigoEmpleado",
          "type": "string"
        },
        {
          "indexed": true,
          "internalType": "string",
          "name": "asignacion",
          "type": "string"
        }
      ],
      "name": "InstitutoNacionalElectoral_Event_BajaEmpleado",
      "type": "event"
    },
    {
      "anonymous": false,
      "inputs": [
        {
          "indexed": true,
          "internalType": "string",
          "name": "codigoEmpleado",
          "type": "string"
        },
        {
          "indexed": true,
          "internalType": "string",
          "name": "asignacion",
          "type": "string"
        },
        {
          "indexed": true,
          "internalType": "uint256",
          "name": "fechaAlta",
          "type": "uint256"
        }
      ],
      "name": "InstitutoNacionalElectoral_Event_NuevoEmpleado",
      "type": "event"
    },
    {
      "anonymous": false,
      "inputs": [
        {
          "indexed": true,
          "internalType": "string",
          "name": "codigoEmpleado",
          "type": "string"
        },
        {
          "indexed": true,
          "internalType": "string",
          "name": "asignacion",
          "type": "string"
        },
        {
          "indexed": true,
          "internalType": "uint256",
          "name": "fechaAlta",
          "type": "uint256"
        }
      ],
      "name": "InstitutoNacionalElectoral_Event_RecontratoEmpleado",
      "type": "event"
    },
    {
      "anonymous": false,
      "inputs": [
        {
          "indexed": true,
          "internalType": "bytes32",
          "name": "role",
          "type": "bytes32"
        },
        {
          "indexed": true,
          "internalType": "bytes32",
          "name": "previousAdminRole",
          "type": "bytes32"
        },
        {
          "indexed": true,
          "internalType": "bytes32",
          "name": "newAdminRole",
          "type": "bytes32"
        }
      ],
      "name": "RoleAdminChanged",
      "type": "event"
    },
    {
      "anonymous": false,
      "inputs": [
        {
          "indexed": true,
          "internalType": "bytes32",
          "name": "role",
          "type": "bytes32"
        },
        {
          "indexed": true,
          "internalType": "address",
          "name": "account",
          "type": "address"
        },
        {
          "indexed": true,
          "internalType": "address",
          "name": "sender",
          "type": "address"
        }
      ],
      "name": "RoleGranted",
      "type": "event"
    },
    {
      "anonymous": false,
      "inputs": [
        {
          "indexed": true,
          "internalType": "bytes32",
          "name": "role",
          "type": "bytes32"
        },
        {
          "indexed": true,
          "internalType": "address",
          "name": "account",
          "type": "address"
        },
        {
          "indexed": true,
          "internalType": "address",
          "name": "sender",
          "type": "address"
        }
      ],
      "name": "RoleRevoked",
      "type": "event"
    },
    {
      "inputs": [],
      "name": "DEFAULT_ADMIN_ROLE",
      "outputs": [
        {
          "internalType": "bytes32",
          "name": "",
          "type": "bytes32"
        }
      ],
      "stateMutability": "view",
      "type": "function"
    },
    {
      "inputs": [
        {
          "internalType": "address",
          "name": "_direccionEmpleado",
          "type": "address"
        }
      ],
      "name": "bajaEmpleado",
      "outputs": [],
      "stateMutability": "nonpayable",
      "type": "function"
    },
    {
      "inputs": [
        {
          "internalType": "uint256",
          "name": "idCredencial",
          "type": "uint256"
        },
        {
          "internalType": "string",
          "name": "calle",
          "type": "string"
        },
        {
          "internalType": "uint256",
          "name": "numeroExterior",
          "type": "uint256"
        },
        {
          "internalType": "string",
          "name": "numeroInterior",
          "type": "string"
        },
        {
          "internalType": "string",
          "name": "colonia",
          "type": "string"
        },
        {
          "internalType": "uint256",
          "name": "codigoPostal",
          "type": "uint256"
        },
        {
          "internalType": "uint256",
          "name": "seccion",
          "type": "uint256"
        }
      ],
      "name": "cambioDireccion",
      "outputs": [],
      "stateMutability": "nonpayable",
      "type": "function"
    },
    {
      "inputs": [
        {
          "internalType": "address",
          "name": "to",
          "type": "address"
        },
        {
          "internalType": "string",
          "name": "nombre",
          "type": "string"
        },
        {
          "internalType": "string",
          "name": "apellidoPaterno",
          "type": "string"
        },
        {
          "internalType": "string",
          "name": "apellidoMaterno",
          "type": "string"
        },
        {
          "internalType": "string",
          "name": "claveElector",
          "type": "string"
        },
        {
          "internalType": "string",
          "name": "curp",
          "type": "string"
        },
        {
          "internalType": "uint8",
          "name": "generoBiologico",
          "type": "uint8"
        }
      ],
      "name": "crearCredencial",
      "outputs": [
        {
          "internalType": "uint256",
          "name": "idCredencial",
          "type": "uint256"
        }
      ],
      "stateMutability": "nonpayable",
      "type": "function"
    },
    {
      "inputs": [
        {
          "internalType": "bytes32",
          "name": "role",
          "type": "bytes32"
        }
      ],
      "name": "getRoleAdmin",
      "outputs": [
        {
          "internalType": "bytes32",
          "name": "",
          "type": "bytes32"
        }
      ],
      "stateMutability": "view",
      "type": "function"
    },
    {
      "inputs": [
        {
          "internalType": "bytes32",
          "name": "role",
          "type": "bytes32"
        },
        {
          "internalType": "address",
          "name": "account",
          "type": "address"
        }
      ],
      "name": "grantRole",
      "outputs": [],
      "stateMutability": "nonpayable",
      "type": "function"
    },
    {
      "inputs": [
        {
          "internalType": "bytes32",
          "name": "role",
          "type": "bytes32"
        },
        {
          "internalType": "address",
          "name": "account",
          "type": "address"
        }
      ],
      "name": "hasRole",
      "outputs": [
        {
          "internalType": "bool",
          "name": "",
          "type": "bool"
        }
      ],
      "stateMutability": "view",
      "type": "function"
    },
    {
      "inputs": [
        {
          "internalType": "address",
          "name": "_direccionEmpleado",
          "type": "address"
        },
        {
          "internalType": "uint8",
          "name": "_rolEmpleado",
          "type": "uint8"
        },
        {
          "internalType": "string",
          "name": "_nombre",
          "type": "string"
        },
        {
          "internalType": "string",
          "name": "_rfc",
          "type": "string"
        },
        {
          "internalType": "string",
          "name": "_telefono",
          "type": "string"
        },
        {
          "internalType": "string",
          "name": "_email",
          "type": "string"
        }
      ],
      "name": "nuevoEmpleado",
      "outputs": [],
      "stateMutability": "nonpayable",
      "type": "function"
    },
    {
      "inputs": [
        {
          "internalType": "address",
          "name": "_direccionExEmpleado",
          "type": "address"
        },
        {
          "internalType": "uint8",
          "name": "_rolEmpleado",
          "type": "uint8"
        }
      ],
      "name": "recontratoEmpleado",
      "outputs": [],
      "stateMutability": "nonpayable",
      "type": "function"
    },
    {
      "inputs": [
        {
          "internalType": "bytes32",
          "name": "role",
          "type": "bytes32"
        },
        {
          "internalType": "address",
          "name": "account",
          "type": "address"
        }
      ],
      "name": "renounceRole",
      "outputs": [],
      "stateMutability": "nonpayable",
      "type": "function"
    },
    {
      "inputs": [
        {
          "internalType": "bytes32",
          "name": "role",
          "type": "bytes32"
        },
        {
          "internalType": "address",
          "name": "account",
          "type": "address"
        }
      ],
      "name": "revokeRole",
      "outputs": [],
      "stateMutability": "nonpayable",
      "type": "function"
    },
    {
      "inputs": [
        {
          "internalType": "bytes4",
          "name": "interfaceId",
          "type": "bytes4"
        }
      ],
      "name": "supportsInterface",
      "outputs": [
        {
          "internalType": "bool",
          "name": "",
          "type": "bool"
        }
      ],
      "stateMutability": "view",
      "type": "function"
    },
    {
      "inputs": [],
      "name": "verAddressCredecialDigital",
      "outputs": [
        {
          "internalType": "address",
          "name": "addressCredencialDigital",
          "type": "address"
        }
      ],
      "stateMutability": "view",
      "type": "function"
    },
    {
      "inputs": [],
      "name": "verAddressSistemaPermisos",
      "outputs": [
        {
          "internalType": "address",
          "name": "addressSistemaPermisos",
          "type": "address"
        }
      ],
      "stateMutability": "view",
      "type": "function"
    },
    {
      "inputs": [
        {
          "internalType": "address",
          "name": "_direccionEmpleado",
          "type": "address"
        }
      ],
      "name": "verDatosEmpleado",
      "outputs": [
        {
          "components": [
            {
              "internalType": "uint8",
              "name": "areaTrabajo",
              "type": "uint8"
            },
            {
              "internalType": "string",
              "name": "nombre",
              "type": "string"
            },
            {
              "internalType": "string",
              "name": "telefono",
              "type": "string"
            },
            {
              "internalType": "string",
              "name": "email",
              "type": "string"
            },
            {
              "internalType": "bool",
              "name": "status",
              "type": "bool"
            },
            {
              "internalType": "uint256",
              "name": "fechaAlta",
              "type": "uint256"
            },
            {
              "internalType": "uint256",
              "name": "fechaBaja",
              "type": "uint256"
            }
          ],
          "internalType": "struct InstitutoNacionalElectoral.Empleado",
          "name": "metadataEmpleado",
          "type": "tuple"
        }
      ],
      "stateMutability": "view",
      "type": "function"
    },
    {
      "inputs": [],
      "name": "verDatosPersonales",
      "outputs": [
        {
          "components": [
            {
              "internalType": "uint8",
              "name": "areaTrabajo",
              "type": "uint8"
            },
            {
              "internalType": "string",
              "name": "nombre",
              "type": "string"
            },
            {
              "internalType": "string",
              "name": "telefono",
              "type": "string"
            },
            {
              "internalType": "string",
              "name": "email",
              "type": "string"
            },
            {
              "internalType": "bool",
              "name": "status",
              "type": "bool"
            },
            {
              "internalType": "uint256",
              "name": "fechaAlta",
              "type": "uint256"
            },
            {
              "internalType": "uint256",
              "name": "fechaBaja",
              "type": "uint256"
            }
          ],
          "internalType": "struct InstitutoNacionalElectoral.Empleado",
          "name": "metadataEmpleado",
          "type": "tuple"
        }
      ],
      "stateMutability": "view",
      "type": "function"
    }
  ],
  "bytecode": {
    "object": "0x60806040523480156200001157600080fd5b5060405162006ca538038062006ca58339810160408190526200003491620003fb565b6040805160e0810182526001808252602082018690528183018590526060820184905260808201524260a0820152600060c082015290516005906200007b908790620004d5565b908152604051602091819003820190208251815460ff191660ff909116178155908201516001820190620000b0908262000582565b5060408201516002820190620000c7908262000582565b5060608201516003820190620000de908262000582565b50608082015160048201805460ff191691151591909117905560a0820151600582015560c0909101516006918201556001600160a01b03861660009081526020919091526040902062000132858262000582565b506200015f7fe35d8ac66531db3bceb0b6bbf69035a0ff45320ad9446da2273032d07d3450cc8662000271565b6040516200016d9062000312565b604051809103906000f0801580156200018a573d6000803e3d6000fd5b50600480546001600160a01b0319166001600160a01b039290921691821790556040513090620001ba9062000320565b6001600160a01b03928316815291166020820152604001604051809103906000f080158015620001ee573d6000803e3d6000fd5b50600380546001600160a01b0319166001600160a01b039283169081179091556004805460405163c8ea404760e01b81529182019290925291169063c8ea404790602401600060405180830381600087803b1580156200024d57600080fd5b505af115801562000262573d6000803e3d6000fd5b5050505050505050506200064e565b6000828152602081815260408083206001600160a01b038516845290915290205460ff166200030e576000828152602081815260408083206001600160a01b03851684529091529020805460ff19166001179055620002cd3390565b6001600160a01b0316816001600160a01b0316837f2f8788117e7eff1d82e926ec794901d17c78024a50270940304540a733656f0d60405160405180910390a45b5050565b6113dd80620025ff83390190565b6132c980620039dc83390190565b634e487b7160e01b600052604160045260246000fd5b60005b838110156200036157818101518382015260200162000347565b50506000910152565b600082601f8301126200037c57600080fd5b81516001600160401b03808211156200039957620003996200032e565b604051601f8301601f19908116603f01168101908282118183101715620003c457620003c46200032e565b81604052838152866020858801011115620003de57600080fd5b620003f184602083016020890162000344565b9695505050505050565b600080600080600060a086880312156200041457600080fd5b85516001600160a01b03811681146200042c57600080fd5b60208701519095506001600160401b03808211156200044a57600080fd5b6200045889838a016200036a565b955060408801519150808211156200046f57600080fd5b6200047d89838a016200036a565b945060608801519150808211156200049457600080fd5b620004a289838a016200036a565b93506080880151915080821115620004b957600080fd5b50620004c8888289016200036a565b9150509295509295909350565b60008251620004e981846020870162000344565b9190910192915050565b600181811c908216806200050857607f821691505b6020821081036200052957634e487b7160e01b600052602260045260246000fd5b50919050565b601f8211156200057d57600081815260208120601f850160051c81016020861015620005585750805b601f850160051c820191505b81811015620005795782815560010162000564565b5050505b505050565b81516001600160401b038111156200059e576200059e6200032e565b620005b681620005af8454620004f3565b846200052f565b602080601f831160018114620005ee5760008415620005d55750858301515b600019600386901b1c1916600185901b17855562000579565b600085815260208120601f198616915b828110156200061f57888601518255948401946001909101908401620005fe565b50858210156200063e5787850151600019600388901b60f8161c191681555b5050505050600190811b01905550565b611fa1806200065e6000396000f3fe608060405234801561001057600080fd5b50600436106101005760003560e01c80636c59662611610097578063a217fddf11610066578063a217fddf14610254578063a90d7a331461025c578063d547741f1461026f578063d73ea35a1461028257600080fd5b80636c596626146101e2578063791d08bc146101f557806391d14854146102085780639345b6c21461023f57600080fd5b80632f2a6279116100d35780632f2a6279146101985780632f2ff15d146101ab57806336568abe146101be57806351294d57146101d157600080fd5b806301ffc9a7146101055780631d55f23f1461012d578063201ce19a14610152578063248a9ca314610167575b600080fd5b610118610113366004611738565b610295565b60405190151581526020015b60405180910390f35b6004546001600160a01b03165b6040516001600160a01b039091168152602001610124565b61016561016036600461182d565b6102cc565b005b61018a6101753660046118fa565b60009081526020819052604090206001015490565b604051908152602001610124565b6101656101a6366004611913565b6104f8565b6101656101b93660046119c2565b6105be565b6101656101cc3660046119c2565b6105e8565b6003546001600160a01b031661013a565b6101656101f03660046119ee565b610679565b61018a610203366004611a18565b6109ad565b6101186102163660046119c2565b6000918252602082815260408084206001600160a01b0393909316845291905290205460ff1690565b610247610a87565b6040516101249190611b5b565b61018a600081565b61024761026a366004611bee565b610d79565b61016561027d3660046119c2565b6110c6565b610165610290366004611bee565b6110eb565b60006001600160e01b03198216637965db0b60e01b14806102c657506301ffc9a760e01b6001600160e01b03198316145b92915050565b3360009081527f43d9bcc3e75b31d3a5a66c9de8767582143de96356317bb53b8fd8128764f3b1602052604090205460ff1661031b5760405163bed2ff5960e01b815260040160405180910390fd5b60058360405161032b9190611c09565b9081526040519081900360200190205460ff161561035c576040516349a9eafd60e11b815260040160405180910390fd5b8460ff1660011415801561037457508460ff16600214155b1561039257604051630e0e48e160e01b815260040160405180910390fd5b8460ff166001036103cc576103c77fe35d8ac66531db3bceb0b6bbf69035a0ff45320ad9446da2273032d07d3450cc876113d9565b6103f6565b6103f67fc349c7ca7a8e5ecbb1a9a2129910e4c9719b0d416ab19defc891f7e31a443363876113d9565b6040518060e001604052808660ff16815260200185815260200183815260200182815260200160011515815260200142815260200160008152506005846040516104409190611c09565b908152604051602091819003820190208251815460ff191660ff9091161781559082015160018201906104739082611cad565b50604082015160028201906104889082611cad565b506060820151600382019061049d9082611cad565b50608082015160048201805460ff191691151591909117905560a0820151600582015560c0909101516006918201556001600160a01b0387166000908152602091909152604090206104ef8482611cad565b50505050505050565b3360009081527fd558806936149ff23d238e5e33f1d0283c3b940ed334137c4ff5fc5052f89b39602052604090205460ff166105475760405163c3ec44d560e01b815260040160405180910390fd5b60035460405163019f745560e11b81526001600160a01b039091169063033ee8aa90610583908a908a908a908a908a908a908a90600401611d6d565b600060405180830381600087803b15801561059d57600080fd5b505af11580156105b1573d6000803e3d6000fd5b5050505050505050505050565b6000828152602081905260409020600101546105d981611477565b6105e383836113d9565b505050565b6001600160a01b038116331461066b5760405162461bcd60e51b815260206004820152602f60248201527f416363657373436f6e74726f6c3a2063616e206f6e6c792072656e6f756e636560448201527f20726f6c657320666f722073656c66000000000000000000000000000000000060648201526084015b60405180910390fd5b6106758282611484565b5050565b3360009081527f43d9bcc3e75b31d3a5a66c9de8767582143de96356317bb53b8fd8128764f3b1602052604090205460ff166106c85760405163bed2ff5960e01b815260040160405180910390fd5b8060ff166001141580156106e057508060ff16600214155b156106fe57604051630e0e48e160e01b815260040160405180910390fd5b6001600160a01b0382166000908152600660205260408120805461072190611c25565b80601f016020809104026020016040519081016040528092919081815260200182805461074d90611c25565b801561079a5780601f1061076f5761010080835404028352916020019161079a565b820191906000526020600020905b81548152906001019060200180831161077d57829003601f168201915b505050505090506005816040516107b19190611c09565b9081526040519081900360200190206004015460ff1615156001036107e957604051637a87b72760e11b815260040160405180910390fd5b6005816040516107f99190611c09565b9081526040519081900360200190205460ff1660000361082c576040516301ce348560e01b815260040160405180910390fd5b8160ff166001036108c7576108617fe35d8ac66531db3bceb0b6bbf69035a0ff45320ad9446da2273032d07d3450cc846113d9565b6040516c20b236b4b734b9ba3930b237b960991b81524290600d016040518091039020826040516108929190611c09565b604051908190038120907f6898c657e18c5d15d1d5461b2a427b0a146ac9162e247972b17b02c96759c68290600090a461094e565b6108f17fc349c7ca7a8e5ecbb1a9a2129910e4c9719b0d416ab19defc891f7e31a443363846113d9565b60405167456d706c6561646f60c01b8152429060080160405180910390208260405161091d9190611c09565b604051908190038120907f6898c657e18c5d15d1d5461b2a427b0a146ac9162e247972b17b02c96759c68290600090a45b60016005826040516109609190611c09565b908152604051908190036020018120600401805492151560ff1990931692909217909155600090600590610995908490611c09565b90815260405190819003602001902060060155505050565b3360009081527fd558806936149ff23d238e5e33f1d0283c3b940ed334137c4ff5fc5052f89b39602052604081205460ff166109fc5760405163c3ec44d560e01b815260040160405180910390fd5b60035460405163c2c4687360e01b81526001600160a01b039091169063c2c4687390610a38908b908b908b908b908b908b908b90600401611dc9565b6020604051808303816000875af1158015610a57573d6000803e3d6000fd5b505050506040513d601f19601f82011682018060405250810190610a7b9190611e51565b98975050505050505050565b610acc6040518060e00160405280600060ff16815260200160608152602001606081526020016060815260200160001515815260200160008152602001600081525090565b3360009081526006602052604081208054610ae690611c25565b80601f0160208091040260200160405190810160405280929190818152602001828054610b1290611c25565b8015610b5f5780601f10610b3457610100808354040283529160200191610b5f565b820191906000526020600020905b815481529060010190602001808311610b4257829003601f168201915b50505050509050600581604051610b769190611c09565b90815260408051918290036020908101832060e08401909252815460ff16835260018201805491840191610ba990611c25565b80601f0160208091040260200160405190810160405280929190818152602001828054610bd590611c25565b8015610c225780601f10610bf757610100808354040283529160200191610c22565b820191906000526020600020905b815481529060010190602001808311610c0557829003601f168201915b50505050508152602001600282018054610c3b90611c25565b80601f0160208091040260200160405190810160405280929190818152602001828054610c6790611c25565b8015610cb45780601f10610c8957610100808354040283529160200191610cb4565b820191906000526020600020905b815481529060010190602001808311610c9757829003601f168201915b50505050508152602001600382018054610ccd90611c25565b80601f0160208091040260200160405190810160405280929190818152602001828054610cf990611c25565b8015610d465780601f10610d1b57610100808354040283529160200191610d46565b820191906000526020600020905b815481529060010190602001808311610d2957829003601f168201915b5050509183525050600482015460ff16151560208201526005820154604082015260069091015460609091015292915050565b610dbe6040518060e00160405280600060ff16815260200160608152602001606081526020016060815260200160001515815260200160008152602001600081525090565b3360009081527f43d9bcc3e75b31d3a5a66c9de8767582143de96356317bb53b8fd8128764f3b1602052604090205460ff16610e0d5760405163bed2ff5960e01b815260040160405180910390fd5b6001600160a01b03821660009081526006602052604081208054610e3090611c25565b80601f0160208091040260200160405190810160405280929190818152602001828054610e5c90611c25565b8015610ea95780601f10610e7e57610100808354040283529160200191610ea9565b820191906000526020600020905b815481529060010190602001808311610e8c57829003601f168201915b50505050509050600581604051610ec09190611c09565b90815260408051918290036020908101832060e08401909252815460ff16835260018201805491840191610ef390611c25565b80601f0160208091040260200160405190810160405280929190818152602001828054610f1f90611c25565b8015610f6c5780601f10610f4157610100808354040283529160200191610f6c565b820191906000526020600020905b815481529060010190602001808311610f4f57829003601f168201915b50505050508152602001600282018054610f8590611c25565b80601f0160208091040260200160405190810160405280929190818152602001828054610fb190611c25565b8015610ffe5780601f10610fd357610100808354040283529160200191610ffe565b820191906000526020600020905b815481529060010190602001808311610fe157829003601f168201915b5050505050815260200160038201805461101790611c25565b80601f016020809104026020016040519081016040528092919081815260200182805461104390611c25565b80156110905780601f1061106557610100808354040283529160200191611090565b820191906000526020600020905b81548152906001019060200180831161107357829003601f168201915b5050509183525050600482015460ff1615156020820152600582015460408201526006909101546060909101529150505b919050565b6000828152602081905260409020600101546110e181611477565b6105e38383611484565b3360009081527f43d9bcc3e75b31d3a5a66c9de8767582143de96356317bb53b8fd8128764f3b1602052604090205460ff1661113a5760405163bed2ff5960e01b815260040160405180910390fd5b336001600160a01b03821603611163576040516355d939df60e11b815260040160405180910390fd5b6001600160a01b0381166000908152600660205260408120805461118690611c25565b80601f01602080910402602001604051908101604052809291908181526020018280546111b290611c25565b80156111ff5780601f106111d4576101008083540402835291602001916111ff565b820191906000526020600020905b8154815290600101906020018083116111e257829003601f168201915b505050505090506005816040516112169190611c09565b9081526040519081900360200190205460ff16600003611249576040516301ce348560e01b815260040160405180910390fd5b6005816040516112599190611c09565b9081526040519081900360200190206004015460ff16151560000361129157604051632f71371d60e11b815260040160405180910390fd5b6005816040516112a19190611c09565b9081526040519081900360200190205460ff166001036112ea576112e57fe35d8ac66531db3bceb0b6bbf69035a0ff45320ad9446da2273032d07d3450cc83611484565b611314565b6113147fc349c7ca7a8e5ecbb1a9a2129910e4c9719b0d416ab19defc891f7e31a44336383611484565b60006005826040516113269190611c09565b908152604051908190036020018120600401805492151560ff1990931692909217909155429060059061135a908490611c09565b9081526040519081900360200181206006019190915561138d906c20b236b4b734b9ba3930b237b960991b8152600d0190565b6040518091039020816040516113a39190611c09565b6040519081900381209042907fab226b91710fa71f572f7490740f79997e7fc669308cc89d5e31d29068df483490600090a45050565b6000828152602081815260408083206001600160a01b038516845290915290205460ff16610675576000828152602081815260408083206001600160a01b03851684529091529020805460ff191660011790556114333390565b6001600160a01b0316816001600160a01b0316837f2f8788117e7eff1d82e926ec794901d17c78024a50270940304540a733656f0d60405160405180910390a45050565b6114818133611503565b50565b6000828152602081815260408083206001600160a01b038516845290915290205460ff1615610675576000828152602081815260408083206001600160a01b0385168085529252808320805460ff1916905551339285917ff6391f5c32d9c69d2a47ea670b442974b53935d1edc7fd64eb21e047a839171b9190a45050565b6000828152602081815260408083206001600160a01b038516845290915290205460ff166106755761153481611576565b61153f836020611588565b604051602001611550929190611e6a565b60408051601f198184030181529082905262461bcd60e51b825261066291600401611eeb565b60606102c66001600160a01b03831660145b60606000611597836002611f14565b6115a2906002611f2b565b67ffffffffffffffff8111156115ba576115ba61178a565b6040519080825280601f01601f1916602001820160405280156115e4576020820181803683370190505b509050600360fc1b816000815181106115ff576115ff611f3e565b60200101906001600160f81b031916908160001a905350600f60fb1b8160018151811061162e5761162e611f3e565b60200101906001600160f81b031916908160001a9053506000611652846002611f14565b61165d906001611f2b565b90505b60018111156116e2577f303132333435363738396162636465660000000000000000000000000000000085600f166010811061169e5761169e611f3e565b1a60f81b8282815181106116b4576116b4611f3e565b60200101906001600160f81b031916908160001a90535060049490941c936116db81611f54565b9050611660565b5083156117315760405162461bcd60e51b815260206004820181905260248201527f537472696e67733a20686578206c656e67746820696e73756666696369656e746044820152606401610662565b9392505050565b60006020828403121561174a57600080fd5b81356001600160e01b03198116811461173157600080fd5b80356001600160a01b03811681146110c157600080fd5b803560ff811681146110c157600080fd5b634e487b7160e01b600052604160045260246000fd5b600082601f8301126117b157600080fd5b813567ffffffffffffffff808211156117cc576117cc61178a565b604051601f8301601f19908116603f011681019082821181831017156117f4576117f461178a565b8160405283815286602085880101111561180d57600080fd5b836020870160208301376000602085830101528094505050505092915050565b60008060008060008060c0878903121561184657600080fd5b61184f87611762565b955061185d60208801611779565b9450604087013567ffffffffffffffff8082111561187a57600080fd5b6118868a838b016117a0565b9550606089013591508082111561189c57600080fd5b6118a88a838b016117a0565b945060808901359150808211156118be57600080fd5b6118ca8a838b016117a0565b935060a08901359150808211156118e057600080fd5b506118ed89828a016117a0565b9150509295509295509295565b60006020828403121561190c57600080fd5b5035919050565b600080600080600080600060e0888a03121561192e57600080fd5b87359650602088013567ffffffffffffffff8082111561194d57600080fd5b6119598b838c016117a0565b975060408a0135965060608a013591508082111561197657600080fd5b6119828b838c016117a0565b955060808a013591508082111561199857600080fd5b506119a58a828b016117a0565b93505060a0880135915060c0880135905092959891949750929550565b600080604083850312156119d557600080fd5b823591506119e560208401611762565b90509250929050565b60008060408385031215611a0157600080fd5b611a0a83611762565b91506119e560208401611779565b600080600080600080600060e0888a031215611a3357600080fd5b611a3c88611762565b9650602088013567ffffffffffffffff80821115611a5957600080fd5b611a658b838c016117a0565b975060408a0135915080821115611a7b57600080fd5b611a878b838c016117a0565b965060608a0135915080821115611a9d57600080fd5b611aa98b838c016117a0565b955060808a0135915080821115611abf57600080fd5b611acb8b838c016117a0565b945060a08a0135915080821115611ae157600080fd5b50611aee8a828b016117a0565b925050611afd60c08901611779565b905092959891949750929550565b60005b83811015611b26578181015183820152602001611b0e565b50506000910152565b60008151808452611b47816020860160208601611b0b565b601f01601f19169290920160200192915050565b6020815260ff82511660208201526000602083015160e06040840152611b85610100840182611b2f565b90506040840151601f1980858403016060860152611ba38383611b2f565b9250606086015191508085840301608086015250611bc18282611b2f565b9150506080840151151560a084015260a084015160c084015260c084015160e08401528091505092915050565b600060208284031215611c0057600080fd5b61173182611762565b60008251611c1b818460208701611b0b565b9190910192915050565b600181811c90821680611c3957607f821691505b602082108103611c5957634e487b7160e01b600052602260045260246000fd5b50919050565b601f8211156105e357600081815260208120601f850160051c81016020861015611c865750805b601f850160051c820191505b81811015611ca557828155600101611c92565b505050505050565b815167ffffffffffffffff811115611cc757611cc761178a565b611cdb81611cd58454611c25565b84611c5f565b602080601f831160018114611d105760008415611cf85750858301515b600019600386901b1c1916600185901b178555611ca5565b600085815260208120601f198616915b82811015611d3f57888601518255948401946001909101908401611d20565b5085821015611d5d5787850151600019600388901b60f8161c191681555b5050505050600190811b01905550565b87815260e060208201526000611d8660e0830189611b2f565b8760408401528281036060840152611d9e8188611b2f565b90508281036080840152611db28187611b2f565b60a0840195909552505060c0015295945050505050565b6001600160a01b038816815260e060208201526000611deb60e0830189611b2f565b8281036040840152611dfd8189611b2f565b90508281036060840152611e118188611b2f565b90508281036080840152611e258187611b2f565b905082810360a0840152611e398186611b2f565b91505060ff831660c083015298975050505050505050565b600060208284031215611e6357600080fd5b5051919050565b7f416363657373436f6e74726f6c3a206163636f756e7420000000000000000000815260008351611ea2816017850160208801611b0b565b7f206973206d697373696e6720726f6c65200000000000000000000000000000006017918401918201528351611edf816028840160208801611b0b565b01602801949350505050565b6020815260006117316020830184611b2f565b634e487b7160e01b600052601160045260246000fd5b80820281158282048414176102c6576102c6611efe565b808201808211156102c6576102c6611efe565b634e487b7160e01b600052603260045260246000fd5b600081611f6357611f63611efe565b50600019019056fea264697066735822122015d5caa227b2fc28f97240fe557a04dd08d3891f8b88fced6223813ba38a985164736f6c63430008140033608060405234801561001057600080fd5b5061001c60003361004b565b6100467fefde6635549760001b141816a6edeaa8c0fe3349291d719ba45d394133f239723361004b565b6100f7565b6100558282610059565b5050565b6000828152602081815260408083206001600160a01b038516845290915290205460ff16610055576000828152602081815260408083206001600160a01b03851684529091529020805460ff191660011790556100b33390565b6001600160a01b0316816001600160a01b0316837f2f8788117e7eff1d82e926ec794901d17c78024a50270940304540a733656f0d60405160405180910390a45050565b6112d7806101066000396000f3fe608060405234801561001057600080fd5b50600436106100b95760003560e01c806391d1485411610081578063b288c3901161005b578063b288c390146101f1578063c8ea404714610204578063d547741f1461021757600080fd5b806391d1485414610161578063a217fddf14610198578063b1be0f39146101a057600080fd5b806301ffc9a7146100be57806304ebab0f146100e6578063248a9ca3146101085780632f2ff15d1461013957806336568abe1461014e575b600080fd5b6100d16100cc366004610b95565b61022a565b60405190151581526020015b60405180910390f35b6100f96100f4366004610bbf565b610261565b6040516100dd93929190610c9b565b61012b610116366004610bbf565b60009081526020819052604090206001015490565b6040519081526020016100dd565b61014c610147366004610db6565b6104dd565b005b61014c61015c366004610db6565b610507565b6100d161016f366004610db6565b6000918252602082815260408084206001600160a01b0393909316845291905290205460ff1690565b61012b600081565b6101d86101ae366004610db6565b60036020908152600092835260408084209091529082529020805460019091015460ff9091169082565b6040805160ff90931683526020830191909152016100dd565b61014c6101ff366004610df5565b610598565b61014c610212366004610e3d565b6106fb565b61014c610225366004610db6565b610783565b60006001600160e01b03198216637965db0b60e01b148061025b57506301ffc9a760e01b6001600160e01b03198316145b92915050565b610269610b07565b600082815260036020908152604080832033845290915281206001015481904211156102a8576040516323d3c0ad60e01b815260040160405180910390fd5b600254604051630178fe3f60e01b8152600481018690526000916001600160a01b031690630178fe3f90602401600060405180830381865afa1580156102f2573d6000803e3d6000fd5b505050506040513d6000823e601f3d908101601f1916820160405261031a9190810190611096565b600086815260036020908152604080832033845290915290205490915060ff166001036103715760008581526003602090815260408083203384529091529020805460019091015491945060ff16925090506104d6565b600085815260036020908152604080832033845290915290205460ff16600203610401576040805160c08101825282518152602080840151818301528383015182840152606080850151908301526080808501519083015260a093840151938201939093526000878152600384528281203382529093529120805460019091015491945060ff16925090506104d6565b60008581526003602081815260408084203385529091529091205460ff1690036104d4576040805160c080820183528351825282516020808201855260008083528185019290925285850151848601526060808701518186015260809687015187860152855160e08101875293840183815284528382018390528551808301875283815284870152855180830187528381529084015294820181905260a0808301829052830191909152878152600384528281203382529093529120805460019091015491945060ff16925090506104d6565b505b9193909250565b6000828152602081905260409020600101546104f8816107a8565b61050283836107b5565b505050565b6001600160a01b038116331461058a5760405162461bcd60e51b815260206004820152602f60248201527f416363657373436f6e74726f6c3a2063616e206f6e6c792072656e6f756e636560448201527f20726f6c657320666f722073656c66000000000000000000000000000000000060648201526084015b60405180910390fd5b6105948282610853565b5050565b6001546040516331a9108f60e11b81526004810186905285916001600160a01b031690636352211e90602401602060405180830381865afa1580156105e1573d6000803e3d6000fd5b505050506040513d601f19601f820116820180604052508101906106059190611183565b6001600160a01b0316336001600160a01b031614610636576040516323d3c0ad60e01b815260040160405180910390fd5b60038460ff16111561065b57604051637465e66760e01b815260040160405180910390fd5b4282101561067c57604051637465e66760e01b815260040160405180910390fd5b60408051808201825260ff868116808352602080840187815260008b8152600383528681206001600160a01b038b1680835293528681209551865460ff1916951694909417855551600190940193909355925185917fa9d485811f688c06975ed22802a3f774b51f04c8dbbcbe0df0a55f0e3f72c73c91a45050505050565b3360009081527f5f46984ecd49a76f384c8a36037278248879a3da6569d8e7b0a9b5a53bc6f51e602052604090205460ff1661074a576040516323d3c0ad60e01b815260040160405180910390fd5b600180546001600160a01b0390921673ffffffffffffffffffffffffffffffffffffffff19928316811790915560028054909216179055565b60008281526020819052604090206001015461079e816107a8565b6105028383610853565b6107b281336108d2565b50565b6000828152602081815260408083206001600160a01b038516845290915290205460ff16610594576000828152602081815260408083206001600160a01b03851684529091529020805460ff1916600117905561080f3390565b6001600160a01b0316816001600160a01b0316837f2f8788117e7eff1d82e926ec794901d17c78024a50270940304540a733656f0d60405160405180910390a45050565b6000828152602081815260408083206001600160a01b038516845290915290205460ff1615610594576000828152602081815260408083206001600160a01b0385168085529252808320805460ff1916905551339285917ff6391f5c32d9c69d2a47ea670b442974b53935d1edc7fd64eb21e047a839171b9190a45050565b6000828152602081815260408083206001600160a01b038516845290915290205460ff166105945761090381610945565b61090e836020610957565b60405160200161091f9291906111a0565b60408051601f198184030181529082905262461bcd60e51b825261058191600401611221565b606061025b6001600160a01b03831660145b6060600061096683600261124a565b610971906002611261565b67ffffffffffffffff81111561098957610989610e5a565b6040519080825280601f01601f1916602001820160405280156109b3576020820181803683370190505b509050600360fc1b816000815181106109ce576109ce611274565b60200101906001600160f81b031916908160001a905350600f60fb1b816001815181106109fd576109fd611274565b60200101906001600160f81b031916908160001a9053506000610a2184600261124a565b610a2c906001611261565b90505b6001811115610ab1577f303132333435363738396162636465660000000000000000000000000000000085600f1660108110610a6d57610a6d611274565b1a60f81b828281518110610a8357610a83611274565b60200101906001600160f81b031916908160001a90535060049490941c93610aaa8161128a565b9050610a2f565b508315610b005760405162461bcd60e51b815260206004820181905260248201527f537472696e67733a20686578206c656e67746820696e73756666696369656e746044820152606401610581565b9392505050565b604080516101408101909152606060c0820181815260e0830182905261010083019190915260006101208301528190815260200160608152602001606081526020016000815260200160008152602001610b906040518060c001604052806060815260200160008152602001606081526020016060815260200160008152602001600081525090565b905290565b600060208284031215610ba757600080fd5b81356001600160e01b031981168114610b0057600080fd5b600060208284031215610bd157600080fd5b5035919050565b60005b83811015610bf3578181015183820152602001610bdb565b50506000910152565b60008151808452610c14816020860160208601610bd8565b601f01601f19169290920160200192915050565b6000815160c08452610c3d60c0850182610bfc565b90506020830151602085015260408301518482036040860152610c608282610bfc565b91505060608301518482036060860152610c7a8282610bfc565b9150506080830151608085015260a083015160a08501528091505092915050565b606081526000845160c0606084015280516080610120850152610cc26101a0850182610bfc565b9050602082015161011f198086840301610140870152610ce28383610bfc565b925060408401519150808684030161016087015250610d018282610bfc565b91505060ff60608301511661018085015260208701519150605f1980858303016080860152610d308284610bfc565b925060408801519150808584030160a0860152610d4d8383610bfc565b9250606088015160c0860152608088015160e086015260a08801519150808584030161010086015250610d808282610c28565b92505050610d93602083018560ff169052565b826040830152949350505050565b6001600160a01b03811681146107b257600080fd5b60008060408385031215610dc957600080fd5b823591506020830135610ddb81610da1565b809150509250929050565b60ff811681146107b257600080fd5b60008060008060808587031215610e0b57600080fd5b843593506020850135610e1d81610de6565b92506040850135610e2d81610da1565b9396929550929360600135925050565b600060208284031215610e4f57600080fd5b8135610b0081610da1565b634e487b7160e01b600052604160045260246000fd5b60405160c0810167ffffffffffffffff81118282101715610e9357610e93610e5a565b60405290565b600082601f830112610eaa57600080fd5b815167ffffffffffffffff80821115610ec557610ec5610e5a565b604051601f8301601f19908116603f01168101908282118183101715610eed57610eed610e5a565b81604052838152866020858801011115610f0657600080fd5b610f17846020830160208901610bd8565b9695505050505050565b600060808284031215610f3357600080fd5b6040516080810167ffffffffffffffff8282108183111715610f5757610f57610e5a565b816040528293508451915080821115610f6f57600080fd5b610f7b86838701610e99565b83526020850151915080821115610f9157600080fd5b610f9d86838701610e99565b60208401526040850151915080821115610fb657600080fd5b50610fc385828601610e99565b6040830152506060830151610fd781610de6565b6060919091015292915050565b600060c08284031215610ff657600080fd5b610ffe610e70565b9050815167ffffffffffffffff8082111561101857600080fd5b61102485838601610e99565b835260208401516020840152604084015191508082111561104457600080fd5b61105085838601610e99565b6040840152606084015191508082111561106957600080fd5b5061107684828501610e99565b6060830152506080820151608082015260a082015160a082015292915050565b6000602082840312156110a857600080fd5b815167ffffffffffffffff808211156110c057600080fd5b9083019060c082860312156110d457600080fd5b6110dc610e70565b8251828111156110eb57600080fd5b6110f787828601610f21565b82525060208301518281111561110c57600080fd5b61111887828601610e99565b60208301525060408301518281111561113057600080fd5b61113c87828601610e99565b604083015250606083015160608201526080830151608082015260a08301518281111561116857600080fd5b61117487828601610fe4565b60a08301525095945050505050565b60006020828403121561119557600080fd5b8151610b0081610da1565b7f416363657373436f6e74726f6c3a206163636f756e74200000000000000000008152600083516111d8816017850160208801610bd8565b7f206973206d697373696e6720726f6c65200000000000000000000000000000006017918401918201528351611215816028840160208801610bd8565b01602801949350505050565b602081526000610b006020830184610bfc565b634e487b7160e01b600052601160045260246000fd5b808202811582820484141761025b5761025b611234565b8082018082111561025b5761025b611234565b634e487b7160e01b600052603260045260246000fd5b60008161129957611299611234565b50600019019056fea264697066735822122008f0e163a86e8475cb23feb7cf6184178e3a24b0e7b142e15f0e2839fcb08f7564736f6c6343000814003360806040523480156200001157600080fd5b50604051620032c9380380620032c98339810160408190526200003491620001ce565b6040518060400160405280601181526020017010dc9959195b98da585b111a59da5d185b607a1b81525060405180604001604052806003815260200162494e4560e81b81525081600090816200008b9190620002ab565b5060016200009a8282620002ab565b50620000ac915060009050826200010c565b620000d87f9f2df0fed2c77648de5860a4cc508cd0818c85b8b8a1ab4ceeef8d981c8956a6826200010c565b620001047fb6f6b279a7a4e2aa16012cbd36fcdc1fbdb91b92fd6dab57885c9de496473a8d836200010c565b505062000377565b60008281526006602090815260408083206001600160a01b038516845290915290205460ff16620001ad5760008281526006602090815260408083206001600160a01b03851684529091529020805460ff191660011790556200016c3390565b6001600160a01b0316816001600160a01b0316837f2f8788117e7eff1d82e926ec794901d17c78024a50270940304540a733656f0d60405160405180910390a45b5050565b80516001600160a01b0381168114620001c957600080fd5b919050565b60008060408385031215620001e257600080fd5b620001ed83620001b1565b9150620001fd60208401620001b1565b90509250929050565b634e487b7160e01b600052604160045260246000fd5b600181811c908216806200023157607f821691505b6020821081036200025257634e487b7160e01b600052602260045260246000fd5b50919050565b601f821115620002a657600081815260208120601f850160051c81016020861015620002815750805b601f850160051c820191505b81811015620002a2578281556001016200028d565b5050505b505050565b81516001600160401b03811115620002c757620002c762000206565b620002df81620002d884546200021c565b8462000258565b602080601f831160018114620003175760008415620002fe5750858301515b600019600386901b1c1916600185901b178555620002a2565b600085815260208120601f198616915b82811015620003485788860151825594840194600190910190840162000327565b5085821015620003675787850151600019600388901b60f8161c191681555b5050505050600190811b01905550565b612f4280620003876000396000f3fe608060405234801561001057600080fd5b50600436106101ae5760003560e01c80635bdc847f116100ee578063a22cb46511610097578063c87b56dd11610071578063c87b56dd14610403578063d539139314610416578063d547741f1461043d578063e985e9c51461045057600080fd5b8063a22cb465146103ca578063b88d4fde146103dd578063c2c46873146103f057600080fd5b806391d14854116100c857806391d148541461038157806395d89b41146103ba578063a217fddf146103c257600080fd5b80635bdc847f146103305780636352211e1461035b57806370a082311461036e57600080fd5b806323b872dd1161015b57806336568abe1161013557806336568abe146102be5780633aeae31d146102d157806341ad5e3d146102f857806342842e0e1461031d57600080fd5b806323b872dd14610267578063248a9ca31461027a5780632f2ff15d146102ab57600080fd5b806306fdde031161018c57806306fdde0314610214578063081812fc14610229578063095ea7b31461025457600080fd5b80630178fe3f146101b357806301ffc9a7146101dc578063033ee8aa146101ff575b600080fd5b6101c66101c136600461257d565b61048c565b6040516101d391906126bb565b60405180910390f35b6101ef6101ea366004612763565b6109d5565b60405190151581526020016101d3565b61021261020d36600461282c565b6109e6565b005b61021c610aee565b6040516101d391906128db565b61023c61023736600461257d565b610b80565b6040516001600160a01b0390911681526020016101d3565b61021261026236600461290a565b610ba7565b610212610275366004612934565b610cc1565b61029d61028836600461257d565b60009081526006602052604090206001015490565b6040519081526020016101d3565b6102126102b9366004612970565b610d38565b6102126102cc366004612970565b610d5d565b61029d7fb6f6b279a7a4e2aa16012cbd36fcdc1fbdb91b92fd6dab57885c9de496473a8d81565b61030b61030636600461257d565b610de9565b6040516101d39695949392919061299c565b61021261032b366004612934565b6112e4565b61029d61033e366004612a02565b805160208183018101805160098252928201919093012091525481565b61023c61036936600461257d565b6112ff565b61029d61037c366004612a37565b611364565b6101ef61038f366004612970565b60009182526006602090815260408084206001600160a01b0393909316845291905290205460ff1690565b61021c6113ea565b61029d600081565b6102126103d8366004612a52565b6113f9565b6102126103eb366004612a8e565b611404565b61029d6103fe366004612b1b565b611482565b61021c61041136600461257d565b61172b565b61029d7f9f2df0fed2c77648de5860a4cc508cd0818c85b8b8a1ab4ceeef8d981c8956a681565b61021261044b366004612970565b61179f565b6101ef61045e366004612c0e565b6001600160a01b03918216600090815260056020908152604080832093909416825291909152205460ff1690565b6104946124ef565b7fb6f6b279a7a4e2aa16012cbd36fcdc1fbdb91b92fd6dab57885c9de496473a8d6104be816117c4565b60008381526008602052604090819020815161014081019092528054829060c08201908390829082906104f090612c38565b80601f016020809104026020016040519081016040528092919081815260200182805461051c90612c38565b80156105695780601f1061053e57610100808354040283529160200191610569565b820191906000526020600020905b81548152906001019060200180831161054c57829003601f168201915b5050505050815260200160018201805461058290612c38565b80601f01602080910402602001604051908101604052809291908181526020018280546105ae90612c38565b80156105fb5780601f106105d0576101008083540402835291602001916105fb565b820191906000526020600020905b8154815290600101906020018083116105de57829003601f168201915b5050505050815260200160028201805461061490612c38565b80601f016020809104026020016040519081016040528092919081815260200182805461064090612c38565b801561068d5780601f106106625761010080835404028352916020019161068d565b820191906000526020600020905b81548152906001019060200180831161067057829003601f168201915b50505091835250506003919091015460ff1660209182015290825260048301805492909101916106bc90612c38565b80601f01602080910402602001604051908101604052809291908181526020018280546106e890612c38565b80156107355780601f1061070a57610100808354040283529160200191610735565b820191906000526020600020905b81548152906001019060200180831161071857829003601f168201915b5050505050815260200160058201805461074e90612c38565b80601f016020809104026020016040519081016040528092919081815260200182805461077a90612c38565b80156107c75780601f1061079c576101008083540402835291602001916107c7565b820191906000526020600020905b8154815290600101906020018083116107aa57829003601f168201915b505050505081526020016006820154815260200160078201548152602001600882016040518060c001604052908160008201805461080490612c38565b80601f016020809104026020016040519081016040528092919081815260200182805461083090612c38565b801561087d5780601f106108525761010080835404028352916020019161087d565b820191906000526020600020905b81548152906001019060200180831161086057829003601f168201915b50505050508152602001600182015481526020016002820180546108a090612c38565b80601f01602080910402602001604051908101604052809291908181526020018280546108cc90612c38565b80156109195780601f106108ee57610100808354040283529160200191610919565b820191906000526020600020905b8154815290600101906020018083116108fc57829003601f168201915b5050505050815260200160038201805461093290612c38565b80601f016020809104026020016040519081016040528092919081815260200182805461095e90612c38565b80156109ab5780601f10610980576101008083540402835291602001916109ab565b820191906000526020600020905b81548152906001019060200180831161098e57829003601f168201915b50505050508152602001600482015481526020016005820154815250508152505091505b50919050565b60006109e0826117d1565b92915050565b7f9f2df0fed2c77648de5860a4cc508cd0818c85b8b8a1ab4ceeef8d981c8956a6610a10816117c4565b6000888152600860205260408120600601549003610a4157604051630bf4f16b60e31b815260040160405180910390fd5b6040518060c0016040528088815260200187815260200186815260200185815260200184815260200183815250600860008a81526020019081526020016000206008016000820151816000019081610a999190612cba565b506020820151600182015560408201516002820190610ab89082612cba565b5060608201516003820190610acd9082612cba565b506080820151600482015560a0909101516005909101555050505050505050565b606060008054610afd90612c38565b80601f0160208091040260200160405190810160405280929190818152602001828054610b2990612c38565b8015610b765780601f10610b4b57610100808354040283529160200191610b76565b820191906000526020600020905b815481529060010190602001808311610b5957829003601f168201915b5050505050905090565b6000610b8b826117f6565b506000908152600460205260409020546001600160a01b031690565b6000610bb2826112ff565b9050806001600160a01b0316836001600160a01b031603610c245760405162461bcd60e51b815260206004820152602160248201527f4552433732313a20617070726f76616c20746f2063757272656e74206f776e656044820152603960f91b60648201526084015b60405180910390fd5b336001600160a01b0382161480610c405750610c40813361045e565b610cb25760405162461bcd60e51b815260206004820152603d60248201527f4552433732313a20617070726f76652063616c6c6572206973206e6f7420746f60448201527f6b656e206f776e6572206f7220617070726f76656420666f7220616c6c0000006064820152608401610c1b565b610cbc838361185a565b505050565b610ccb33826118c8565b610d2d5760405162461bcd60e51b815260206004820152602d60248201527f4552433732313a2063616c6c6572206973206e6f7420746f6b656e206f776e6560448201526c1c881bdc88185c1c1c9bdd9959609a1b6064820152608401610c1b565b610cbc838383611947565b600082815260066020526040902060010154610d53816117c4565b610cbc8383611b27565b6001600160a01b0381163314610ddb5760405162461bcd60e51b815260206004820152602f60248201527f416363657373436f6e74726f6c3a2063616e206f6e6c792072656e6f756e636560448201527f20726f6c657320666f722073656c6600000000000000000000000000000000006064820152608401610c1b565b610de58282611bc9565b5050565b600860205280600052604060002060009150905080600001604051806080016040529081600082018054610e1c90612c38565b80601f0160208091040260200160405190810160405280929190818152602001828054610e4890612c38565b8015610e955780601f10610e6a57610100808354040283529160200191610e95565b820191906000526020600020905b815481529060010190602001808311610e7857829003601f168201915b50505050508152602001600182018054610eae90612c38565b80601f0160208091040260200160405190810160405280929190818152602001828054610eda90612c38565b8015610f275780601f10610efc57610100808354040283529160200191610f27565b820191906000526020600020905b815481529060010190602001808311610f0a57829003601f168201915b50505050508152602001600282018054610f4090612c38565b80601f0160208091040260200160405190810160405280929190818152602001828054610f6c90612c38565b8015610fb95780601f10610f8e57610100808354040283529160200191610fb9565b820191906000526020600020905b815481529060010190602001808311610f9c57829003601f168201915b50505091835250506003919091015460ff16602090910152600482018054919291610fe390612c38565b80601f016020809104026020016040519081016040528092919081815260200182805461100f90612c38565b801561105c5780601f106110315761010080835404028352916020019161105c565b820191906000526020600020905b81548152906001019060200180831161103f57829003601f168201915b50505050509080600501805461107190612c38565b80601f016020809104026020016040519081016040528092919081815260200182805461109d90612c38565b80156110ea5780601f106110bf576101008083540402835291602001916110ea565b820191906000526020600020905b8154815290600101906020018083116110cd57829003601f168201915b505050505090806006015490806007015490806008016040518060c001604052908160008201805461111b90612c38565b80601f016020809104026020016040519081016040528092919081815260200182805461114790612c38565b80156111945780601f1061116957610100808354040283529160200191611194565b820191906000526020600020905b81548152906001019060200180831161117757829003601f168201915b50505050508152602001600182015481526020016002820180546111b790612c38565b80601f01602080910402602001604051908101604052809291908181526020018280546111e390612c38565b80156112305780601f1061120557610100808354040283529160200191611230565b820191906000526020600020905b81548152906001019060200180831161121357829003601f168201915b5050505050815260200160038201805461124990612c38565b80601f016020809104026020016040519081016040528092919081815260200182805461127590612c38565b80156112c25780601f10611297576101008083540402835291602001916112c2565b820191906000526020600020905b8154815290600101906020018083116112a557829003601f168201915b5050505050815260200160048201548152602001600582015481525050905086565b610cbc83838360405180602001604052806000815250611404565b6000818152600260205260408120546001600160a01b0316806109e05760405162461bcd60e51b815260206004820152601860248201527f4552433732313a20696e76616c696420746f6b656e20494400000000000000006044820152606401610c1b565b60006001600160a01b0382166113ce5760405162461bcd60e51b815260206004820152602960248201527f4552433732313a2061646472657373207a65726f206973206e6f7420612076616044820152683634b21037bbb732b960b91b6064820152608401610c1b565b506001600160a01b031660009081526003602052604090205490565b606060018054610afd90612c38565b610de5338383611c4c565b61140e33836118c8565b6114705760405162461bcd60e51b815260206004820152602d60248201527f4552433732313a2063616c6c6572206973206e6f7420746f6b656e206f776e6560448201526c1c881bdc88185c1c1c9bdd9959609a1b6064820152608401610c1b565b61147c84848484611d1a565b50505050565b60007f9f2df0fed2c77648de5860a4cc508cd0818c85b8b8a1ab4ceeef8d981c8956a66114ae816117c4565b6009856040516114be9190612d7a565b9081526020016040518091039020546000146114ed576040516307d946db60e21b815260040160405180910390fd5b60006114f860075490565b611503906001612dac565b9050611513600780546001019055565b61151d8a82611d98565b42600061152e826312cc0300612dac565b9050826009896040516115419190612d7a565b9081526020016040518091039020819055506040518060c0016040528060405180608001604052808e81526020018d81526020018c81526020018960ff1681525081526020018981526020018881526020018381526020018281526020016040518060c00160405280604051806020016040528060008152508152602001600081526020016040518060200160405280600081525081526020016040518060200160405280600081525081526020016000815260200160008152508152506008600085815260200190815260200160002060008201518160000160008201518160000190816116309190612cba565b50602082015160018201906116459082612cba565b506040820151600282019061165a9082612cba565b50606091909101516003909101805460ff191660ff9092169190911790556020820151600482019061168c9082612cba565b50604082015160058201906116a19082612cba565b50606082015160068201556080820151600782015560a08201518051600883019081906116ce9082612cba565b5060208201516001820155604082015160028201906116ed9082612cba565b50606082015160038201906117029082612cba565b506080820151600482015560a09091015160059091015550929c9b505050505050505050505050565b6060611736826117f6565b600061174d60408051602081019091526000815290565b9050600081511161176d5760405180602001604052806000815250611798565b8061177784611db2565b604051602001611788929190612dbf565b6040516020818303038152906040525b9392505050565b6000828152600660205260409020600101546117ba816117c4565b610cbc8383611bc9565b6117ce8133611e45565b50565b60006001600160e01b03198216637965db0b60e01b14806109e057506109e082611eba565b6000818152600260205260409020546001600160a01b03166117ce5760405162461bcd60e51b815260206004820152601860248201527f4552433732313a20696e76616c696420746f6b656e20494400000000000000006044820152606401610c1b565b600081815260046020526040902080546001600160a01b0319166001600160a01b038416908117909155819061188f826112ff565b6001600160a01b03167f8c5be1e5ebec7d5bd14f71427d1e84f3dd0314c0f7b2291e5b200ac8c7c3b92560405160405180910390a45050565b6000806118d4836112ff565b9050806001600160a01b0316846001600160a01b0316148061191b57506001600160a01b0380821660009081526005602090815260408083209388168352929052205460ff165b8061193f5750836001600160a01b031661193484610b80565b6001600160a01b0316145b949350505050565b826001600160a01b031661195a826112ff565b6001600160a01b0316146119be5760405162461bcd60e51b815260206004820152602560248201527f4552433732313a207472616e736665722066726f6d20696e636f72726563742060448201526437bbb732b960d91b6064820152608401610c1b565b6001600160a01b038216611a205760405162461bcd60e51b8152602060048201526024808201527f4552433732313a207472616e7366657220746f20746865207a65726f206164646044820152637265737360e01b6064820152608401610c1b565b826001600160a01b0316611a33826112ff565b6001600160a01b031614611a975760405162461bcd60e51b815260206004820152602560248201527f4552433732313a207472616e736665722066726f6d20696e636f72726563742060448201526437bbb732b960d91b6064820152608401610c1b565b600081815260046020908152604080832080546001600160a01b03199081169091556001600160a01b0387811680865260038552838620805460001901905590871680865283862080546001019055868652600290945282852080549092168417909155905184937fddf252ad1be2c89b69c2b068fc378daa952ba7f163c4a11628f55a4df523b3ef91a4505050565b60008281526006602090815260408083206001600160a01b038516845290915290205460ff16610de55760008281526006602090815260408083206001600160a01b03851684529091529020805460ff19166001179055611b853390565b6001600160a01b0316816001600160a01b0316837f2f8788117e7eff1d82e926ec794901d17c78024a50270940304540a733656f0d60405160405180910390a45050565b60008281526006602090815260408083206001600160a01b038516845290915290205460ff1615610de55760008281526006602090815260408083206001600160a01b0385168085529252808320805460ff1916905551339285917ff6391f5c32d9c69d2a47ea670b442974b53935d1edc7fd64eb21e047a839171b9190a45050565b816001600160a01b0316836001600160a01b031603611cad5760405162461bcd60e51b815260206004820152601960248201527f4552433732313a20617070726f766520746f2063616c6c6572000000000000006044820152606401610c1b565b6001600160a01b03838116600081815260056020908152604080832094871680845294825291829020805460ff191686151590811790915591519182527f17307eab39ab6107e8899845ad3d59bd9653f200f220920489ca2b5937696c31910160405180910390a3505050565b611d25848484611947565b611d3184848484611f0a565b61147c5760405162461bcd60e51b815260206004820152603260248201527f4552433732313a207472616e7366657220746f206e6f6e20455243373231526560448201527131b2b4bb32b91034b6b83632b6b2b73a32b960711b6064820152608401610c1b565b610de5828260405180602001604052806000815250612056565b60606000611dbf836120d4565b600101905060008167ffffffffffffffff811115611ddf57611ddf612780565b6040519080825280601f01601f191660200182016040528015611e09576020820181803683370190505b5090508181016020015b600019016f181899199a1a9b1b9c1cb0b131b232b360811b600a86061a8153600a8504945084611e1357509392505050565b60008281526006602090815260408083206001600160a01b038516845290915290205460ff16610de557611e78816121b6565b611e838360206121c8565b604051602001611e94929190612dee565b60408051601f198184030181529082905262461bcd60e51b8252610c1b916004016128db565b60006001600160e01b031982166380ac58cd60e01b1480611eeb57506001600160e01b03198216635b5e139f60e01b145b806109e057506301ffc9a760e01b6001600160e01b03198316146109e0565b60006001600160a01b0384163b1561204b57604051630a85bd0160e11b81526001600160a01b0385169063150b7a0290611f4e903390899088908890600401612e6f565b6020604051808303816000875af1925050508015611f89575060408051601f3d908101601f19168201909252611f8691810190612eab565b60015b612031573d808015611fb7576040519150601f19603f3d011682016040523d82523d6000602084013e611fbc565b606091505b5080516000036120295760405162461bcd60e51b815260206004820152603260248201527f4552433732313a207472616e7366657220746f206e6f6e20455243373231526560448201527131b2b4bb32b91034b6b83632b6b2b73a32b960711b6064820152608401610c1b565b805181602001fd5b6001600160e01b031916630a85bd0160e11b14905061193f565b506001949350505050565b6120608383612364565b61206d6000848484611f0a565b610cbc5760405162461bcd60e51b815260206004820152603260248201527f4552433732313a207472616e7366657220746f206e6f6e20455243373231526560448201527131b2b4bb32b91034b6b83632b6b2b73a32b960711b6064820152608401610c1b565b6000807a184f03e93ff9f4daa797ed6e38ed64bf6a1f010000000000000000831061211d577a184f03e93ff9f4daa797ed6e38ed64bf6a1f010000000000000000830492506040015b6d04ee2d6d415b85acef81000000008310612149576d04ee2d6d415b85acef8100000000830492506020015b662386f26fc10000831061216757662386f26fc10000830492506010015b6305f5e100831061217f576305f5e100830492506008015b612710831061219357612710830492506004015b606483106121a5576064830492506002015b600a83106109e05760010192915050565b60606109e06001600160a01b03831660145b606060006121d7836002612ec8565b6121e2906002612dac565b67ffffffffffffffff8111156121fa576121fa612780565b6040519080825280601f01601f191660200182016040528015612224576020820181803683370190505b509050600360fc1b8160008151811061223f5761223f612edf565b60200101906001600160f81b031916908160001a905350600f60fb1b8160018151811061226e5761226e612edf565b60200101906001600160f81b031916908160001a9053506000612292846002612ec8565b61229d906001612dac565b90505b6001811115612315576f181899199a1a9b1b9c1cb0b131b232b360811b85600f16601081106122d1576122d1612edf565b1a60f81b8282815181106122e7576122e7612edf565b60200101906001600160f81b031916908160001a90535060049490941c9361230e81612ef5565b90506122a0565b5083156117985760405162461bcd60e51b815260206004820181905260248201527f537472696e67733a20686578206c656e67746820696e73756666696369656e746044820152606401610c1b565b6001600160a01b0382166123ba5760405162461bcd60e51b815260206004820181905260248201527f4552433732313a206d696e7420746f20746865207a65726f20616464726573736044820152606401610c1b565b6000818152600260205260409020546001600160a01b03161561241f5760405162461bcd60e51b815260206004820152601c60248201527f4552433732313a20746f6b656e20616c7265616479206d696e746564000000006044820152606401610c1b565b6000818152600260205260409020546001600160a01b0316156124845760405162461bcd60e51b815260206004820152601c60248201527f4552433732313a20746f6b656e20616c7265616479206d696e746564000000006044820152606401610c1b565b6001600160a01b038216600081815260036020908152604080832080546001019055848352600290915280822080546001600160a01b0319168417905551839291907fddf252ad1be2c89b69c2b068fc378daa952ba7f163c4a11628f55a4df523b3ef908290a45050565b604080516101408101909152606060c0820181815260e08301829052610100830191909152600061012083015281908152602001606081526020016060815260200160008152602001600081526020016125786040518060c001604052806060815260200160008152602001606081526020016060815260200160008152602001600081525090565b905290565b60006020828403121561258f57600080fd5b5035919050565b60005b838110156125b1578181015183820152602001612599565b50506000910152565b600081518084526125d2816020860160208601612596565b601f01601f19169290920160200192915050565b60008151608084526125fb60808501826125ba565b90506020830151848203602086015261261482826125ba565b9150506040830151848203604086015261262e82826125ba565b91505060ff60608401511660608501528091505092915050565b6000815160c0845261265d60c08501826125ba565b9050602083015160208501526040830151848203604086015261268082826125ba565b9150506060830151848203606086015261269a82826125ba565b9150506080830151608085015260a083015160a08501528091505092915050565b602081526000825160c060208401526126d760e08401826125e6565b90506020840151601f19808584030160408601526126f583836125ba565b9250604086015191508085840301606086015261271283836125ba565b925060608601516080860152608086015160a086015260a08601519150808584030160c0860152506127448282612648565b95945050505050565b6001600160e01b0319811681146117ce57600080fd5b60006020828403121561277557600080fd5b81356117988161274d565b634e487b7160e01b600052604160045260246000fd5b600067ffffffffffffffff808411156127b1576127b1612780565b604051601f8501601f19908116603f011681019082821181831017156127d9576127d9612780565b816040528093508581528686860111156127f257600080fd5b858560208301376000602087830101525050509392505050565b600082601f83011261281d57600080fd5b61179883833560208501612796565b600080600080600080600060e0888a03121561284757600080fd5b87359650602088013567ffffffffffffffff8082111561286657600080fd5b6128728b838c0161280c565b975060408a0135965060608a013591508082111561288f57600080fd5b61289b8b838c0161280c565b955060808a01359150808211156128b157600080fd5b506128be8a828b0161280c565b93505060a0880135915060c0880135905092959891949750929550565b60208152600061179860208301846125ba565b80356001600160a01b038116811461290557600080fd5b919050565b6000806040838503121561291d57600080fd5b612926836128ee565b946020939093013593505050565b60008060006060848603121561294957600080fd5b612952846128ee565b9250612960602085016128ee565b9150604084013590509250925092565b6000806040838503121561298357600080fd5b82359150612993602084016128ee565b90509250929050565b60c0815260006129af60c08301896125e6565b82810360208401526129c181896125ba565b905082810360408401526129d581886125ba565b905085606084015284608084015282810360a08401526129f58185612648565b9998505050505050505050565b600060208284031215612a1457600080fd5b813567ffffffffffffffff811115612a2b57600080fd5b61193f8482850161280c565b600060208284031215612a4957600080fd5b611798826128ee565b60008060408385031215612a6557600080fd5b612a6e836128ee565b915060208301358015158114612a8357600080fd5b809150509250929050565b60008060008060808587031215612aa457600080fd5b612aad856128ee565b9350612abb602086016128ee565b925060408501359150606085013567ffffffffffffffff811115612ade57600080fd5b8501601f81018713612aef57600080fd5b612afe87823560208401612796565b91505092959194509250565b803560ff8116811461290557600080fd5b600080600080600080600060e0888a031215612b3657600080fd5b612b3f886128ee565b9650602088013567ffffffffffffffff80821115612b5c57600080fd5b612b688b838c0161280c565b975060408a0135915080821115612b7e57600080fd5b612b8a8b838c0161280c565b965060608a0135915080821115612ba057600080fd5b612bac8b838c0161280c565b955060808a0135915080821115612bc257600080fd5b612bce8b838c0161280c565b945060a08a0135915080821115612be457600080fd5b50612bf18a828b0161280c565b925050612c0060c08901612b0a565b905092959891949750929550565b60008060408385031215612c2157600080fd5b612c2a836128ee565b9150612993602084016128ee565b600181811c90821680612c4c57607f821691505b6020821081036109cf57634e487b7160e01b600052602260045260246000fd5b601f821115610cbc57600081815260208120601f850160051c81016020861015612c935750805b601f850160051c820191505b81811015612cb257828155600101612c9f565b505050505050565b815167ffffffffffffffff811115612cd457612cd4612780565b612ce881612ce28454612c38565b84612c6c565b602080601f831160018114612d1d5760008415612d055750858301515b600019600386901b1c1916600185901b178555612cb2565b600085815260208120601f198616915b82811015612d4c57888601518255948401946001909101908401612d2d565b5085821015612d6a5787850151600019600388901b60f8161c191681555b5050505050600190811b01905550565b60008251612d8c818460208701612596565b9190910192915050565b634e487b7160e01b600052601160045260246000fd5b808201808211156109e0576109e0612d96565b60008351612dd1818460208801612596565b835190830190612de5818360208801612596565b01949350505050565b7f416363657373436f6e74726f6c3a206163636f756e7420000000000000000000815260008351612e26816017850160208801612596565b7f206973206d697373696e6720726f6c65200000000000000000000000000000006017918401918201528351612e63816028840160208801612596565b01602801949350505050565b60006001600160a01b03808716835280861660208401525083604083015260806060830152612ea160808301846125ba565b9695505050505050565b600060208284031215612ebd57600080fd5b81516117988161274d565b80820281158282048414176109e0576109e0612d96565b634e487b7160e01b600052603260045260246000fd5b600081612f0457612f04612d96565b50600019019056fea2646970667358221220b52d7ad5e5bcdfe511e56928707ca9d1c8beb8822274fab8a1c14f297522418864736f6c63430008140033",
    "linkReferences": {}
  },
  "methodIdentifiers": {
    "DEFAULT_ADMIN_ROLE()": "a217fddf",
    "bajaEmpleado(address)": "d73ea35a",
    "cambioDireccion(uint256,string,uint256,string,string,uint256,uint256)": "2f2a6279",
    "crearCredencial(address,string,string,string,string,string,uint8)": "791d08bc",
    "getRoleAdmin(bytes32)": "248a9ca3",
    "grantRole(bytes32,address)": "2f2ff15d",
    "hasRole(bytes32,address)": "91d14854",
    "nuevoEmpleado(address,uint8,string,string,string,string)": "201ce19a",
    "recontratoEmpleado(address,uint8)": "6c596626",
    "renounceRole(bytes32,address)": "36568abe",
    "revokeRole(bytes32,address)": "d547741f",
    "supportsInterface(bytes4)": "01ffc9a7",
    "verAddressCredecialDigital()": "51294d57",
    "verAddressSistemaPermisos()": "1d55f23f",
    "verDatosEmpleado(address)": "a90d7a33",
    "verDatosPersonales()": "9345b6c2"
  },
  "id": 35
}