{
  "abi": [
    {
      "inputs": [],
      "stateMutability": "nonpayable",
      "type": "constructor"
    },
    {
      "inputs": [],
      "name": "SistemaPermisos__AccesoDenegado",
      "type": "error"
    },
    {
      "inputs": [],
      "name": "SistemaPermisos__PermisoCaducado",
      "type": "error"
    },
    {
      "inputs": [],
      "name": "SistemaPermisos__PermisoInvalido",
      "type": "error"
    },
    {
      "anonymous": false,
      "inputs": [
        {
          "indexed": true,
          "internalType": "uint256",
          "name": "fechaCaducidad",
          "type": "uint256"
        },
        {
          "indexed": true,
          "internalType": "address",
          "name": "solicitante",
          "type": "address"
        },
        {
          "indexed": true,
          "internalType": "uint8",
          "name": "tipoPermiso",
          "type": "uint8"
        }
      ],
      "name": "PermisoDado",
      "type": "event"
    },
    {
      "anonymous": false,
      "inputs": [
        {
          "indexed": true,
          "internalType": "bytes32",
          "name": "role",
          "type": "bytes32"
        },
        {
          "indexed": true,
          "internalType": "bytes32",
          "name": "previousAdminRole",
          "type": "bytes32"
        },
        {
          "indexed": true,
          "internalType": "bytes32",
          "name": "newAdminRole",
          "type": "bytes32"
        }
      ],
      "name": "RoleAdminChanged",
      "type": "event"
    },
    {
      "anonymous": false,
      "inputs": [
        {
          "indexed": true,
          "internalType": "bytes32",
          "name": "role",
          "type": "bytes32"
        },
        {
          "indexed": true,
          "internalType": "address",
          "name": "account",
          "type": "address"
        },
        {
          "indexed": true,
          "internalType": "address",
          "name": "sender",
          "type": "address"
        }
      ],
      "name": "RoleGranted",
      "type": "event"
    },
    {
      "anonymous": false,
      "inputs": [
        {
          "indexed": true,
          "internalType": "bytes32",
          "name": "role",
          "type": "bytes32"
        },
        {
          "indexed": true,
          "internalType": "address",
          "name": "account",
          "type": "address"
        },
        {
          "indexed": true,
          "internalType": "address",
          "name": "sender",
          "type": "address"
        }
      ],
      "name": "RoleRevoked",
      "type": "event"
    },
    {
      "inputs": [],
      "name": "DEFAULT_ADMIN_ROLE",
      "outputs": [
        {
          "internalType": "bytes32",
          "name": "",
          "type": "bytes32"
        }
      ],
      "stateMutability": "view",
      "type": "function"
    },
    {
      "inputs": [
        {
          "internalType": "bytes32",
          "name": "role",
          "type": "bytes32"
        }
      ],
      "name": "getRoleAdmin",
      "outputs": [
        {
          "internalType": "bytes32",
          "name": "",
          "type": "bytes32"
        }
      ],
      "stateMutability": "view",
      "type": "function"
    },
    {
      "inputs": [
        {
          "internalType": "bytes32",
          "name": "role",
          "type": "bytes32"
        },
        {
          "internalType": "address",
          "name": "account",
          "type": "address"
        }
      ],
      "name": "grantRole",
      "outputs": [],
      "stateMutability": "nonpayable",
      "type": "function"
    },
    {
      "inputs": [
        {
          "internalType": "bytes32",
          "name": "role",
          "type": "bytes32"
        },
        {
          "internalType": "address",
          "name": "account",
          "type": "address"
        }
      ],
      "name": "hasRole",
      "outputs": [
        {
          "internalType": "bool",
          "name": "",
          "type": "bool"
        }
      ],
      "stateMutability": "view",
      "type": "function"
    },
    {
      "inputs": [
        {
          "internalType": "uint256",
          "name": "id",
          "type": "uint256"
        },
        {
          "internalType": "address",
          "name": "firmaElectronica",
          "type": "address"
        }
      ],
      "name": "permisos",
      "outputs": [
        {
          "internalType": "uint8",
          "name": "tipoPermiso",
          "type": "uint8"
        },
        {
          "internalType": "uint256",
          "name": "fechaCaducidad",
          "type": "uint256"
        }
      ],
      "stateMutability": "view",
      "type": "function"
    },
    {
      "inputs": [
        {
          "internalType": "bytes32",
          "name": "role",
          "type": "bytes32"
        },
        {
          "internalType": "address",
          "name": "account",
          "type": "address"
        }
      ],
      "name": "renounceRole",
      "outputs": [],
      "stateMutability": "nonpayable",
      "type": "function"
    },
    {
      "inputs": [
        {
          "internalType": "bytes32",
          "name": "role",
          "type": "bytes32"
        },
        {
          "internalType": "address",
          "name": "account",
          "type": "address"
        }
      ],
      "name": "revokeRole",
      "outputs": [],
      "stateMutability": "nonpayable",
      "type": "function"
    },
    {
      "inputs": [
        {
          "internalType": "address",
          "name": "_credencialDigitalAddress",
          "type": "address"
        }
      ],
      "name": "setCredencialDigitalAddress",
      "outputs": [],
      "stateMutability": "nonpayable",
      "type": "function"
    },
    {
      "inputs": [
        {
          "internalType": "uint256",
          "name": "id",
          "type": "uint256"
        },
        {
          "internalType": "uint8",
          "name": "permiso",
          "type": "uint8"
        },
        {
          "internalType": "address",
          "name": "solicitante",
          "type": "address"
        },
        {
          "internalType": "uint256",
          "name": "fechaCaducidad",
          "type": "uint256"
        }
      ],
      "name": "setPermiso",
      "outputs": [],
      "stateMutability": "nonpayable",
      "type": "function"
    },
    {
      "inputs": [
        {
          "internalType": "bytes4",
          "name": "interfaceId",
          "type": "bytes4"
        }
      ],
      "name": "supportsInterface",
      "outputs": [
        {
          "internalType": "bool",
          "name": "",
          "type": "bool"
        }
      ],
      "stateMutability": "view",
      "type": "function"
    },
    {
      "inputs": [
        {
          "internalType": "uint256",
          "name": "id",
          "type": "uint256"
        }
      ],
      "name": "verDatos",
      "outputs": [
        {
          "components": [
            {
              "components": [
                {
                  "internalType": "string",
                  "name": "nombre",
                  "type": "string"
                },
                {
                  "internalType": "string",
                  "name": "apellidoPaterno",
                  "type": "string"
                },
                {
                  "internalType": "string",
                  "name": "apellidoMaterno",
                  "type": "string"
                },
                {
                  "internalType": "uint8",
                  "name": "generoBiologico",
                  "type": "uint8"
                }
              ],
              "internalType": "struct CredencialDigital.DatosIdentidad",
              "name": "identidad",
              "type": "tuple"
            },
            {
              "internalType": "string",
              "name": "claveElector",
              "type": "string"
            },
            {
              "internalType": "string",
              "name": "curp",
              "type": "string"
            },
            {
              "internalType": "uint256",
              "name": "fechaRegistro",
              "type": "uint256"
            },
            {
              "internalType": "uint256",
              "name": "fechaVigencia",
              "type": "uint256"
            },
            {
              "components": [
                {
                  "internalType": "string",
                  "name": "calle",
                  "type": "string"
                },
                {
                  "internalType": "uint256",
                  "name": "numeroExterior",
                  "type": "uint256"
                },
                {
                  "internalType": "string",
                  "name": "numeroInterior",
                  "type": "string"
                },
                {
                  "internalType": "string",
                  "name": "colonia",
                  "type": "string"
                },
                {
                  "internalType": "uint256",
                  "name": "codigoPostal",
                  "type": "uint256"
                },
                {
                  "internalType": "uint256",
                  "name": "seccion",
                  "type": "uint256"
                }
              ],
              "internalType": "struct CredencialDigital.Direccion",
              "name": "direccion",
              "type": "tuple"
            }
          ],
          "internalType": "struct CredencialDigital.DatosCredencial",
          "name": "datos",
          "type": "tuple"
        },
        {
          "internalType": "uint8",
          "name": "tipoPermiso",
          "type": "uint8"
        },
        {
          "internalType": "uint256",
          "name": "fechaCaducidad",
          "type": "uint256"
        }
      ],
      "stateMutability": "view",
      "type": "function"
    },
    {
      "inputs": [
        {
          "internalType": "uint256",
          "name": "id",
          "type": "uint256"
        },
        {
          "internalType": "address",
          "name": "direccionSolicitante",
          "type": "address"
        }
      ],
      "name": "verPermisoYCaducidad",
      "outputs": [
        {
          "internalType": "uint8",
          "name": "permiso",
          "type": "uint8"
        },
        {
          "internalType": "uint256",
          "name": "fechaCaducidad",
          "type": "uint256"
        }
      ],
      "stateMutability": "view",
      "type": "function"
    }
  ],
  "bytecode": {
    "object": "0x608060405234801561001057600080fd5b5061001c60003361004b565b6100467fefde6635549760001b141816a6edeaa8c0fe3349291d719ba45d394133f239723361004b565b6100f7565b6100558282610059565b5050565b6000828152602081815260408083206001600160a01b038516845290915290205460ff16610055576000828152602081815260408083206001600160a01b03851684529091529020805460ff191660011790556100b33390565b6001600160a01b0316816001600160a01b0316837f2f8788117e7eff1d82e926ec794901d17c78024a50270940304540a733656f0d60405160405180910390a45050565b611371806101066000396000f3fe608060405234801561001057600080fd5b50600436106100d45760003560e01c806391d1485411610081578063b288c3901161005b578063b288c3901461024e578063c8ea404714610261578063d547741f1461027457600080fd5b806391d14854146101d7578063a217fddf1461020e578063b1be0f391461021657600080fd5b80632f2ff15d116100b25780632f2ff15d1461015457806336568abe14610169578063564115e51461017c57600080fd5b806301ffc9a7146100d957806304ebab0f14610101578063248a9ca314610123575b600080fd5b6100ec6100e7366004610c2f565b610287565b60405190151581526020015b60405180910390f35b61011461010f366004610c59565b6102be565b6040516100f893929190610d35565b610146610131366004610c59565b60009081526020819052604090206001015490565b6040519081526020016100f8565b610167610162366004610e50565b610577565b005b610167610177366004610e50565b6105a1565b6101be61018a366004610e50565b60009182526003602090815260408084206001600160a01b039390931684529190529020805460019091015460ff90911691565b6040805160ff90931683526020830191909152016100f8565b6100ec6101e5366004610e50565b6000918252602082815260408084206001600160a01b0393909316845291905290205460ff1690565b610146600081565b6101be610224366004610e50565b60036020908152600092835260408084209091529082529020805460019091015460ff9091169082565b61016761025c366004610e8f565b610632565b61016761026f366004610ed7565b610795565b610167610282366004610e50565b61081d565b60006001600160e01b03198216637965db0b60e01b14806102b857506301ffc9a760e01b6001600160e01b03198316145b92915050565b6102c6610ba1565b600082815260036020908152604080832033845290915281206001015481908103610304576040516323d3c0ad60e01b815260040160405180910390fd5b600084815260036020908152604080832033845290915290206001015442111561034157604051630e56ce2b60e31b815260040160405180910390fd5b600254604051630178fe3f60e01b8152600481018690526000916001600160a01b031690630178fe3f90602401600060405180830381865afa15801561038b573d6000803e3d6000fd5b505050506040513d6000823e601f3d908101601f191682016040526103b39190810190611130565b600086815260036020908152604080832033845290915290205490915060ff1660010361040a5760008581526003602090815260408083203384529091529020805460019091015491945060ff1692509050610570565b600085815260036020908152604080832033845290915290205460ff1660020361049d576040805160c081018252825181528151602080820184526000808352818401929092528484015183850152606083018290526080830182905260a09485015194830194909452878152600384528281203382529093529120805460019091015491945060ff1692509050610570565b60008581526003602081815260408084203385529091529091205460ff16900361056e576040805160c0808201835283518252825160208082018552600080835281850192909252948401518385015260608084018290526080808501839052855160e081018752938401838152845283870183905285518088018752838152848701528551808801875283815291840191909152820181905260a0808301829052830191909152878152600384528281203382529093529120805460019091015491945060ff1692509050610570565b505b9193909250565b60008281526020819052604090206001015461059281610842565b61059c838361084f565b505050565b6001600160a01b03811633146106245760405162461bcd60e51b815260206004820152602f60248201527f416363657373436f6e74726f6c3a2063616e206f6e6c792072656e6f756e636560448201527f20726f6c657320666f722073656c66000000000000000000000000000000000060648201526084015b60405180910390fd5b61062e82826108ed565b5050565b6001546040516331a9108f60e11b81526004810186905285916001600160a01b031690636352211e90602401602060405180830381865afa15801561067b573d6000803e3d6000fd5b505050506040513d601f19601f8201168201806040525081019061069f919061121d565b6001600160a01b0316336001600160a01b0316146106d0576040516323d3c0ad60e01b815260040160405180910390fd5b60038460ff1611156106f557604051637465e66760e01b815260040160405180910390fd5b4282101561071657604051637465e66760e01b815260040160405180910390fd5b60408051808201825260ff868116808352602080840187815260008b8152600383528681206001600160a01b038b1680835293528681209551865460ff1916951694909417855551600190940193909355925185917fa9d485811f688c06975ed22802a3f774b51f04c8dbbcbe0df0a55f0e3f72c73c91a45050505050565b3360009081527f5f46984ecd49a76f384c8a36037278248879a3da6569d8e7b0a9b5a53bc6f51e602052604090205460ff166107e4576040516323d3c0ad60e01b815260040160405180910390fd5b600180546001600160a01b0390921673ffffffffffffffffffffffffffffffffffffffff19928316811790915560028054909216179055565b60008281526020819052604090206001015461083881610842565b61059c83836108ed565b61084c813361096c565b50565b6000828152602081815260408083206001600160a01b038516845290915290205460ff1661062e576000828152602081815260408083206001600160a01b03851684529091529020805460ff191660011790556108a93390565b6001600160a01b0316816001600160a01b0316837f2f8788117e7eff1d82e926ec794901d17c78024a50270940304540a733656f0d60405160405180910390a45050565b6000828152602081815260408083206001600160a01b038516845290915290205460ff161561062e576000828152602081815260408083206001600160a01b0385168085529252808320805460ff1916905551339285917ff6391f5c32d9c69d2a47ea670b442974b53935d1edc7fd64eb21e047a839171b9190a45050565b6000828152602081815260408083206001600160a01b038516845290915290205460ff1661062e5761099d816109df565b6109a88360206109f1565b6040516020016109b992919061123a565b60408051601f198184030181529082905262461bcd60e51b825261061b916004016112bb565b60606102b86001600160a01b03831660145b60606000610a008360026112e4565b610a0b9060026112fb565b67ffffffffffffffff811115610a2357610a23610ef4565b6040519080825280601f01601f191660200182016040528015610a4d576020820181803683370190505b509050600360fc1b81600081518110610a6857610a6861130e565b60200101906001600160f81b031916908160001a905350600f60fb1b81600181518110610a9757610a9761130e565b60200101906001600160f81b031916908160001a9053506000610abb8460026112e4565b610ac69060016112fb565b90505b6001811115610b4b577f303132333435363738396162636465660000000000000000000000000000000085600f1660108110610b0757610b0761130e565b1a60f81b828281518110610b1d57610b1d61130e565b60200101906001600160f81b031916908160001a90535060049490941c93610b4481611324565b9050610ac9565b508315610b9a5760405162461bcd60e51b815260206004820181905260248201527f537472696e67733a20686578206c656e67746820696e73756666696369656e74604482015260640161061b565b9392505050565b604080516101408101909152606060c0820181815260e0830182905261010083019190915260006101208301528190815260200160608152602001606081526020016000815260200160008152602001610c2a6040518060c001604052806060815260200160008152602001606081526020016060815260200160008152602001600081525090565b905290565b600060208284031215610c4157600080fd5b81356001600160e01b031981168114610b9a57600080fd5b600060208284031215610c6b57600080fd5b5035919050565b60005b83811015610c8d578181015183820152602001610c75565b50506000910152565b60008151808452610cae816020860160208601610c72565b601f01601f19169290920160200192915050565b6000815160c08452610cd760c0850182610c96565b90506020830151602085015260408301518482036040860152610cfa8282610c96565b91505060608301518482036060860152610d148282610c96565b9150506080830151608085015260a083015160a08501528091505092915050565b606081526000845160c0606084015280516080610120850152610d5c6101a0850182610c96565b9050602082015161011f198086840301610140870152610d7c8383610c96565b925060408401519150808684030161016087015250610d9b8282610c96565b91505060ff60608301511661018085015260208701519150605f1980858303016080860152610dca8284610c96565b925060408801519150808584030160a0860152610de78383610c96565b9250606088015160c0860152608088015160e086015260a08801519150808584030161010086015250610e1a8282610cc2565b92505050610e2d602083018560ff169052565b826040830152949350505050565b6001600160a01b038116811461084c57600080fd5b60008060408385031215610e6357600080fd5b823591506020830135610e7581610e3b565b809150509250929050565b60ff8116811461084c57600080fd5b60008060008060808587031215610ea557600080fd5b843593506020850135610eb781610e80565b92506040850135610ec781610e3b565b9396929550929360600135925050565b600060208284031215610ee957600080fd5b8135610b9a81610e3b565b634e487b7160e01b600052604160045260246000fd5b60405160c0810167ffffffffffffffff81118282101715610f2d57610f2d610ef4565b60405290565b600082601f830112610f4457600080fd5b815167ffffffffffffffff80821115610f5f57610f5f610ef4565b604051601f8301601f19908116603f01168101908282118183101715610f8757610f87610ef4565b81604052838152866020858801011115610fa057600080fd5b610fb1846020830160208901610c72565b9695505050505050565b600060808284031215610fcd57600080fd5b6040516080810167ffffffffffffffff8282108183111715610ff157610ff1610ef4565b81604052829350845191508082111561100957600080fd5b61101586838701610f33565b8352602085015191508082111561102b57600080fd5b61103786838701610f33565b6020840152604085015191508082111561105057600080fd5b5061105d85828601610f33565b604083015250606083015161107181610e80565b6060919091015292915050565b600060c0828403121561109057600080fd5b611098610f0a565b9050815167ffffffffffffffff808211156110b257600080fd5b6110be85838601610f33565b83526020840151602084015260408401519150808211156110de57600080fd5b6110ea85838601610f33565b6040840152606084015191508082111561110357600080fd5b5061111084828501610f33565b6060830152506080820151608082015260a082015160a082015292915050565b60006020828403121561114257600080fd5b815167ffffffffffffffff8082111561115a57600080fd5b9083019060c0828603121561116e57600080fd5b611176610f0a565b82518281111561118557600080fd5b61119187828601610fbb565b8252506020830151828111156111a657600080fd5b6111b287828601610f33565b6020830152506040830151828111156111ca57600080fd5b6111d687828601610f33565b604083015250606083015160608201526080830151608082015260a08301518281111561120257600080fd5b61120e8782860161107e565b60a08301525095945050505050565b60006020828403121561122f57600080fd5b8151610b9a81610e3b565b7f416363657373436f6e74726f6c3a206163636f756e7420000000000000000000815260008351611272816017850160208801610c72565b7f206973206d697373696e6720726f6c652000000000000000000000000000000060179184019182015283516112af816028840160208801610c72565b01602801949350505050565b602081526000610b9a6020830184610c96565b634e487b7160e01b600052601160045260246000fd5b80820281158282048414176102b8576102b86112ce565b808201808211156102b8576102b86112ce565b634e487b7160e01b600052603260045260246000fd5b600081611333576113336112ce565b50600019019056fea26469706673582212205366ddc55eab8e56efb3e6331854c3c42ccc5b6e3aa83854103fc81927284b6b64736f6c63430008140033",
    "linkReferences": {}
  },
  "methodIdentifiers": {
    "DEFAULT_ADMIN_ROLE()": "a217fddf",
    "getRoleAdmin(bytes32)": "248a9ca3",
    "grantRole(bytes32,address)": "2f2ff15d",
    "hasRole(bytes32,address)": "91d14854",
    "permisos(uint256,address)": "b1be0f39",
    "renounceRole(bytes32,address)": "36568abe",
    "revokeRole(bytes32,address)": "d547741f",
    "setCredencialDigitalAddress(address)": "c8ea4047",
    "setPermiso(uint256,uint8,address,uint256)": "b288c390",
    "supportsInterface(bytes4)": "01ffc9a7",
    "verDatos(uint256)": "04ebab0f",
    "verPermisoYCaducidad(uint256,address)": "564115e5"
  },
  "id": 36
}