{
  "abi": [
    {
      "inputs": [
        {
          "internalType": "address",
          "name": "_adminAddress",
          "type": "address"
        },
        {
          "internalType": "string",
          "name": "_rfc",
          "type": "string"
        },
        {
          "internalType": "string",
          "name": "_nombre",
          "type": "string"
        },
        {
          "internalType": "string",
          "name": "_telefono",
          "type": "string"
        },
        {
          "internalType": "string",
          "name": "_email",
          "type": "string"
        }
      ],
      "stateMutability": "nonpayable",
      "type": "constructor"
    },
    {
      "inputs": [],
      "name": "InstitutoNacionalElectoral__AccesoDenegado",
      "type": "error"
    },
    {
      "inputs": [],
      "name": "InstitutoNacionalElectoral__AccesoDenegado_NoEsAdministrador",
      "type": "error"
    },
    {
      "inputs": [],
      "name": "InstitutoNacionalElectoral__AccesoDenegado_NoEsEmpleado",
      "type": "error"
    },
    {
      "inputs": [],
      "name": "InstitutoNacionalElectoral__CredencialDigital__FaltaDireccion",
      "type": "error"
    },
    {
      "inputs": [],
      "name": "InstitutoNacionalElectoral__CredencialDigital__IdNoexiste",
      "type": "error"
    },
    {
      "inputs": [],
      "name": "InstitutoNacionalElectoral__EmpleadoDadoDeAlta",
      "type": "error"
    },
    {
      "inputs": [],
      "name": "InstitutoNacionalElectoral__EmpleadoDadoDeBaja",
      "type": "error"
    },
    {
      "inputs": [],
      "name": "InstitutoNacionalElectoral__EmpleadoNoRegistrado",
      "type": "error"
    },
    {
      "inputs": [],
      "name": "InstitutoNacionalElectoral__EmpleadoYaRegistrado",
      "type": "error"
    },
    {
      "inputs": [],
      "name": "InstitutoNacionalElectoral__NoAutoBaja",
      "type": "error"
    },
    {
      "inputs": [],
      "name": "InstitutoNacionalElectoral__RolInvalido",
      "type": "error"
    },
    {
      "anonymous": false,
      "inputs": [
        {
          "indexed": true,
          "internalType": "uint256",
          "name": "fechaBaja",
          "type": "uint256"
        },
        {
          "indexed": true,
          "internalType": "string",
          "name": "codigoEmpleado",
          "type": "string"
        },
        {
          "indexed": true,
          "internalType": "string",
          "name": "asignacion",
          "type": "string"
        }
      ],
      "name": "InstitutoNacionalElectoral_Event_BajaEmpleado",
      "type": "event"
    },
    {
      "anonymous": false,
      "inputs": [
        {
          "indexed": true,
          "internalType": "string",
          "name": "codigoEmpleado",
          "type": "string"
        },
        {
          "indexed": true,
          "internalType": "string",
          "name": "asignacion",
          "type": "string"
        },
        {
          "indexed": true,
          "internalType": "uint256",
          "name": "fechaAlta",
          "type": "uint256"
        }
      ],
      "name": "InstitutoNacionalElectoral_Event_NuevoEmpleado",
      "type": "event"
    },
    {
      "anonymous": false,
      "inputs": [
        {
          "indexed": true,
          "internalType": "string",
          "name": "codigoEmpleado",
          "type": "string"
        },
        {
          "indexed": true,
          "internalType": "string",
          "name": "asignacion",
          "type": "string"
        },
        {
          "indexed": true,
          "internalType": "uint256",
          "name": "fechaAlta",
          "type": "uint256"
        }
      ],
      "name": "InstitutoNacionalElectoral_Event_RecontratoEmpleado",
      "type": "event"
    },
    {
      "anonymous": false,
      "inputs": [
        {
          "indexed": true,
          "internalType": "bytes32",
          "name": "role",
          "type": "bytes32"
        },
        {
          "indexed": true,
          "internalType": "bytes32",
          "name": "previousAdminRole",
          "type": "bytes32"
        },
        {
          "indexed": true,
          "internalType": "bytes32",
          "name": "newAdminRole",
          "type": "bytes32"
        }
      ],
      "name": "RoleAdminChanged",
      "type": "event"
    },
    {
      "anonymous": false,
      "inputs": [
        {
          "indexed": true,
          "internalType": "bytes32",
          "name": "role",
          "type": "bytes32"
        },
        {
          "indexed": true,
          "internalType": "address",
          "name": "account",
          "type": "address"
        },
        {
          "indexed": true,
          "internalType": "address",
          "name": "sender",
          "type": "address"
        }
      ],
      "name": "RoleGranted",
      "type": "event"
    },
    {
      "anonymous": false,
      "inputs": [
        {
          "indexed": true,
          "internalType": "bytes32",
          "name": "role",
          "type": "bytes32"
        },
        {
          "indexed": true,
          "internalType": "address",
          "name": "account",
          "type": "address"
        },
        {
          "indexed": true,
          "internalType": "address",
          "name": "sender",
          "type": "address"
        }
      ],
      "name": "RoleRevoked",
      "type": "event"
    },
    {
      "inputs": [],
      "name": "DEFAULT_ADMIN_ROLE",
      "outputs": [
        {
          "internalType": "bytes32",
          "name": "",
          "type": "bytes32"
        }
      ],
      "stateMutability": "view",
      "type": "function"
    },
    {
      "inputs": [
        {
          "internalType": "address",
          "name": "_direccionEmpleado",
          "type": "address"
        }
      ],
      "name": "bajaEmpleado",
      "outputs": [],
      "stateMutability": "nonpayable",
      "type": "function"
    },
    {
      "inputs": [
        {
          "internalType": "uint256",
          "name": "idCredencial",
          "type": "uint256"
        },
        {
          "internalType": "string",
          "name": "calle",
          "type": "string"
        },
        {
          "internalType": "uint256",
          "name": "numeroExterior",
          "type": "uint256"
        },
        {
          "internalType": "string",
          "name": "numeroInterior",
          "type": "string"
        },
        {
          "internalType": "string",
          "name": "colonia",
          "type": "string"
        },
        {
          "internalType": "uint256",
          "name": "codigoPostal",
          "type": "uint256"
        },
        {
          "internalType": "uint256",
          "name": "seccion",
          "type": "uint256"
        }
      ],
      "name": "cambioDireccion",
      "outputs": [],
      "stateMutability": "nonpayable",
      "type": "function"
    },
    {
      "inputs": [
        {
          "internalType": "address",
          "name": "to",
          "type": "address"
        },
        {
          "internalType": "string",
          "name": "nombre",
          "type": "string"
        },
        {
          "internalType": "string",
          "name": "apellidoPaterno",
          "type": "string"
        },
        {
          "internalType": "string",
          "name": "apellidoMaterno",
          "type": "string"
        },
        {
          "internalType": "string",
          "name": "claveElector",
          "type": "string"
        },
        {
          "internalType": "string",
          "name": "curp",
          "type": "string"
        },
        {
          "internalType": "uint8",
          "name": "generoBiologico",
          "type": "uint8"
        }
      ],
      "name": "crearCredencial",
      "outputs": [
        {
          "internalType": "uint256",
          "name": "idCredencial",
          "type": "uint256"
        }
      ],
      "stateMutability": "nonpayable",
      "type": "function"
    },
    {
      "inputs": [
        {
          "internalType": "bytes32",
          "name": "role",
          "type": "bytes32"
        }
      ],
      "name": "getRoleAdmin",
      "outputs": [
        {
          "internalType": "bytes32",
          "name": "",
          "type": "bytes32"
        }
      ],
      "stateMutability": "view",
      "type": "function"
    },
    {
      "inputs": [
        {
          "internalType": "bytes32",
          "name": "role",
          "type": "bytes32"
        },
        {
          "internalType": "address",
          "name": "account",
          "type": "address"
        }
      ],
      "name": "grantRole",
      "outputs": [],
      "stateMutability": "nonpayable",
      "type": "function"
    },
    {
      "inputs": [
        {
          "internalType": "bytes32",
          "name": "role",
          "type": "bytes32"
        },
        {
          "internalType": "address",
          "name": "account",
          "type": "address"
        }
      ],
      "name": "hasRole",
      "outputs": [
        {
          "internalType": "bool",
          "name": "",
          "type": "bool"
        }
      ],
      "stateMutability": "view",
      "type": "function"
    },
    {
      "inputs": [
        {
          "internalType": "address",
          "name": "_direccionEmpleado",
          "type": "address"
        },
        {
          "internalType": "uint8",
          "name": "_rolEmpleado",
          "type": "uint8"
        },
        {
          "internalType": "string",
          "name": "_nombre",
          "type": "string"
        },
        {
          "internalType": "string",
          "name": "_rfc",
          "type": "string"
        },
        {
          "internalType": "string",
          "name": "_telefono",
          "type": "string"
        },
        {
          "internalType": "string",
          "name": "_email",
          "type": "string"
        }
      ],
      "name": "nuevoEmpleado",
      "outputs": [],
      "stateMutability": "nonpayable",
      "type": "function"
    },
    {
      "inputs": [
        {
          "internalType": "address",
          "name": "_direccionExEmpleado",
          "type": "address"
        },
        {
          "internalType": "uint8",
          "name": "_rolEmpleado",
          "type": "uint8"
        }
      ],
      "name": "recontratoEmpleado",
      "outputs": [],
      "stateMutability": "nonpayable",
      "type": "function"
    },
    {
      "inputs": [
        {
          "internalType": "bytes32",
          "name": "role",
          "type": "bytes32"
        },
        {
          "internalType": "address",
          "name": "account",
          "type": "address"
        }
      ],
      "name": "renounceRole",
      "outputs": [],
      "stateMutability": "nonpayable",
      "type": "function"
    },
    {
      "inputs": [
        {
          "internalType": "uint256",
          "name": "idCredencial",
          "type": "uint256"
        }
      ],
      "name": "renuevaVigencia",
      "outputs": [],
      "stateMutability": "nonpayable",
      "type": "function"
    },
    {
      "inputs": [
        {
          "internalType": "bytes32",
          "name": "role",
          "type": "bytes32"
        },
        {
          "internalType": "address",
          "name": "account",
          "type": "address"
        }
      ],
      "name": "revokeRole",
      "outputs": [],
      "stateMutability": "nonpayable",
      "type": "function"
    },
    {
      "inputs": [
        {
          "internalType": "bytes4",
          "name": "interfaceId",
          "type": "bytes4"
        }
      ],
      "name": "supportsInterface",
      "outputs": [
        {
          "internalType": "bool",
          "name": "",
          "type": "bool"
        }
      ],
      "stateMutability": "view",
      "type": "function"
    },
    {
      "inputs": [],
      "name": "verAddressCredecialDigital",
      "outputs": [
        {
          "internalType": "address",
          "name": "addressCredencialDigital",
          "type": "address"
        }
      ],
      "stateMutability": "view",
      "type": "function"
    },
    {
      "inputs": [],
      "name": "verAddressSistemaPermisos",
      "outputs": [
        {
          "internalType": "address",
          "name": "addressSistemaPermisos",
          "type": "address"
        }
      ],
      "stateMutability": "view",
      "type": "function"
    },
    {
      "inputs": [
        {
          "internalType": "address",
          "name": "_direccionEmpleado",
          "type": "address"
        }
      ],
      "name": "verDatosEmpleado",
      "outputs": [
        {
          "components": [
            {
              "internalType": "uint8",
              "name": "areaTrabajo",
              "type": "uint8"
            },
            {
              "internalType": "string",
              "name": "nombre",
              "type": "string"
            },
            {
              "internalType": "string",
              "name": "telefono",
              "type": "string"
            },
            {
              "internalType": "string",
              "name": "email",
              "type": "string"
            },
            {
              "internalType": "bool",
              "name": "status",
              "type": "bool"
            },
            {
              "internalType": "uint256",
              "name": "fechaAlta",
              "type": "uint256"
            },
            {
              "internalType": "uint256",
              "name": "fechaBaja",
              "type": "uint256"
            }
          ],
          "internalType": "struct InstitutoNacionalElectoral.Empleado",
          "name": "metadataEmpleado",
          "type": "tuple"
        }
      ],
      "stateMutability": "view",
      "type": "function"
    },
    {
      "inputs": [],
      "name": "verDatosPersonales",
      "outputs": [
        {
          "components": [
            {
              "internalType": "uint8",
              "name": "areaTrabajo",
              "type": "uint8"
            },
            {
              "internalType": "string",
              "name": "nombre",
              "type": "string"
            },
            {
              "internalType": "string",
              "name": "telefono",
              "type": "string"
            },
            {
              "internalType": "string",
              "name": "email",
              "type": "string"
            },
            {
              "internalType": "bool",
              "name": "status",
              "type": "bool"
            },
            {
              "internalType": "uint256",
              "name": "fechaAlta",
              "type": "uint256"
            },
            {
              "internalType": "uint256",
              "name": "fechaBaja",
              "type": "uint256"
            }
          ],
          "internalType": "struct InstitutoNacionalElectoral.Empleado",
          "name": "metadataEmpleado",
          "type": "tuple"
        }
      ],
      "stateMutability": "view",
      "type": "function"
    }
  ],
  "bytecode": {
    "object": "0x60806040523480156200001157600080fd5b506040516200797a3803806200797a8339810160408190526200003491620003fb565b6040805160e0810182526001808252602082018690528183018590526060820184905260808201524260a0820152600060c082015290516005906200007b908790620004d5565b908152604051602091819003820190208251815460ff191660ff909116178155908201516001820190620000b0908262000582565b5060408201516002820190620000c7908262000582565b5060608201516003820190620000de908262000582565b50608082015160048201805460ff191691151591909117905560a0820151600582015560c0909101516006918201556001600160a01b03861660009081526020919091526040902062000132858262000582565b506200015f7fe35d8ac66531db3bceb0b6bbf69035a0ff45320ad9446da2273032d07d3450cc8662000271565b6040516200016d9062000312565b604051809103906000f0801580156200018a573d6000803e3d6000fd5b50600480546001600160a01b0319166001600160a01b039290921691821790556040513090620001ba9062000320565b6001600160a01b03928316815291166020820152604001604051809103906000f080158015620001ee573d6000803e3d6000fd5b50600380546001600160a01b0319166001600160a01b039283169081179091556004805460405163c8ea404760e01b81529182019290925291169063c8ea404790602401600060405180830381600087803b1580156200024d57600080fd5b505af115801562000262573d6000803e3d6000fd5b5050505050505050506200064e565b6000828152602081815260408083206001600160a01b038516845290915290205460ff166200030e576000828152602081815260408083206001600160a01b03851684529091529020805460ff19166001179055620002cd3390565b6001600160a01b0316816001600160a01b0316837f2f8788117e7eff1d82e926ec794901d17c78024a50270940304540a733656f0d60405160405180910390a45b5050565b61147780620028f883390190565b613c0b8062003d6f83390190565b634e487b7160e01b600052604160045260246000fd5b60005b838110156200036157818101518382015260200162000347565b50506000910152565b600082601f8301126200037c57600080fd5b81516001600160401b03808211156200039957620003996200032e565b604051601f8301601f19908116603f01168101908282118183101715620003c457620003c46200032e565b81604052838152866020858801011115620003de57600080fd5b620003f184602083016020890162000344565b9695505050505050565b600080600080600060a086880312156200041457600080fd5b85516001600160a01b03811681146200042c57600080fd5b60208701519095506001600160401b03808211156200044a57600080fd5b6200045889838a016200036a565b955060408801519150808211156200046f57600080fd5b6200047d89838a016200036a565b945060608801519150808211156200049457600080fd5b620004a289838a016200036a565b93506080880151915080821115620004b957600080fd5b50620004c8888289016200036a565b9150509295509295909350565b60008251620004e981846020870162000344565b9190910192915050565b600181811c908216806200050857607f821691505b6020821081036200052957634e487b7160e01b600052602260045260246000fd5b50919050565b601f8211156200057d57600081815260208120601f850160051c81016020861015620005585750805b601f850160051c820191505b81811015620005795782815560010162000564565b5050505b505050565b81516001600160401b038111156200059e576200059e6200032e565b620005b681620005af8454620004f3565b846200052f565b602080601f831160018114620005ee5760008415620005d55750858301515b600019600386901b1c1916600185901b17855562000579565b600085815260208120601f198616915b828110156200061f57888601518255948401946001909101908401620005fe565b50858210156200063e5787850151600019600388901b60f8161c191681555b5050505050600190811b01905550565b61229a806200065e6000396000f3fe608060405234801561001057600080fd5b506004361061010b5760003560e01c80636c596626116100a25780639345b6c2116100715780639345b6c21461025d578063a217fddf14610272578063a90d7a331461027a578063d547741f1461028d578063d73ea35a146102a057600080fd5b80636c596626146101ed5780636d97e42614610200578063791d08bc1461021357806391d148541461022657600080fd5b80632f2a6279116100de5780632f2a6279146101a35780632f2ff15d146101b657806336568abe146101c957806351294d57146101dc57600080fd5b806301ffc9a7146101105780631d55f23f14610138578063201ce19a1461015d578063248a9ca314610172575b600080fd5b61012361011e366004611a0f565b6102b3565b60405190151581526020015b60405180910390f35b6004546001600160a01b03165b6040516001600160a01b03909116815260200161012f565b61017061016b366004611b04565b6102ea565b005b610195610180366004611bd1565b60009081526020819052604090206001015490565b60405190815260200161012f565b6101706101b1366004611bea565b610516565b6101706101c4366004611c99565b61066b565b6101706101d7366004611c99565b610695565b6003546001600160a01b0316610145565b6101706101fb366004611cc5565b610726565b61017061020e366004611bd1565b610ab6565b610195610221366004611cef565b610c84565b610123610234366004611c99565b6000918252602082815260408084206001600160a01b0393909316845291905290205460ff1690565b610265610d5e565b60405161012f9190611e32565b610195600081565b610265610288366004611ec5565b611050565b61017061029b366004611c99565b61139d565b6101706102ae366004611ec5565b6113c2565b60006001600160e01b03198216637965db0b60e01b14806102e457506301ffc9a760e01b6001600160e01b03198316145b92915050565b3360009081527f43d9bcc3e75b31d3a5a66c9de8767582143de96356317bb53b8fd8128764f3b1602052604090205460ff166103395760405163bed2ff5960e01b815260040160405180910390fd5b6005836040516103499190611ee0565b9081526040519081900360200190205460ff161561037a576040516349a9eafd60e11b815260040160405180910390fd5b8460ff1660011415801561039257508460ff16600214155b156103b057604051630e0e48e160e01b815260040160405180910390fd5b8460ff166001036103ea576103e57fe35d8ac66531db3bceb0b6bbf69035a0ff45320ad9446da2273032d07d3450cc876116b0565b610414565b6104147fc349c7ca7a8e5ecbb1a9a2129910e4c9719b0d416ab19defc891f7e31a443363876116b0565b6040518060e001604052808660ff168152602001858152602001838152602001828152602001600115158152602001428152602001600081525060058460405161045e9190611ee0565b908152604051602091819003820190208251815460ff191660ff9091161781559082015160018201906104919082611f84565b50604082015160028201906104a69082611f84565b50606082015160038201906104bb9082611f84565b50608082015160048201805460ff191691151591909117905560a0820151600582015560c0909101516006918201556001600160a01b03871660009081526020919091526040902061050d8482611f84565b50505050505050565b3360009081527fd558806936149ff23d238e5e33f1d0283c3b940ed334137c4ff5fc5052f89b39602052604090205460ff166105655760405163c3ec44d560e01b815260040160405180910390fd5b600354604051630fb17de160e01b8152600481018990526001600160a01b0390911690630fb17de190602401602060405180830381865afa1580156105ae573d6000803e3d6000fd5b505050506040513d601f19601f820116820180604052508101906105d29190612044565b15156000036105f457604051630e0cd36560e21b815260040160405180910390fd5b60035460405163019f745560e11b81526001600160a01b039091169063033ee8aa90610630908a908a908a908a908a908a908a90600401612066565b600060405180830381600087803b15801561064a57600080fd5b505af115801561065e573d6000803e3d6000fd5b5050505050505050505050565b6000828152602081905260409020600101546106868161174e565b61069083836116b0565b505050565b6001600160a01b03811633146107185760405162461bcd60e51b815260206004820152602f60248201527f416363657373436f6e74726f6c3a2063616e206f6e6c792072656e6f756e636560448201527f20726f6c657320666f722073656c66000000000000000000000000000000000060648201526084015b60405180910390fd5b610722828261175b565b5050565b3360009081527f43d9bcc3e75b31d3a5a66c9de8767582143de96356317bb53b8fd8128764f3b1602052604090205460ff166107755760405163bed2ff5960e01b815260040160405180910390fd5b8060ff1660011415801561078d57508060ff16600214155b156107ab57604051630e0e48e160e01b815260040160405180910390fd5b6001600160a01b038216600090815260066020526040812080546107ce90611efc565b80601f01602080910402602001604051908101604052809291908181526020018280546107fa90611efc565b80156108475780601f1061081c57610100808354040283529160200191610847565b820191906000526020600020905b81548152906001019060200180831161082a57829003601f168201915b5050505050905060058160405161085e9190611ee0565b9081526040519081900360200190206004015460ff16151560010361089657604051637a87b72760e11b815260040160405180910390fd5b6005816040516108a69190611ee0565b9081526040519081900360200190205460ff166000036108d9576040516301ce348560e01b815260040160405180910390fd5b8160ff166001036109745761090e7fe35d8ac66531db3bceb0b6bbf69035a0ff45320ad9446da2273032d07d3450cc846116b0565b6040516c20b236b4b734b9ba3930b237b960991b81524290600d0160405180910390208260405161093f9190611ee0565b604051908190038120907f6898c657e18c5d15d1d5461b2a427b0a146ac9162e247972b17b02c96759c68290600090a46109fb565b61099e7fc349c7ca7a8e5ecbb1a9a2129910e4c9719b0d416ab19defc891f7e31a443363846116b0565b60405167456d706c6561646f60c01b815242906008016040518091039020826040516109ca9190611ee0565b604051908190038120907f6898c657e18c5d15d1d5461b2a427b0a146ac9162e247972b17b02c96759c68290600090a45b6001600582604051610a0d9190611ee0565b908152604051908190036020018120600401805492151560ff19909316929092179091554290600590610a41908490611ee0565b9081526020016040518091039020600501819055506000600582604051610a689190611ee0565b90815260200160405180910390206006018190555081600582604051610a8e9190611ee0565b908152604051908190036020019020805460ff9290921660ff19909216919091179055505050565b3360009081527fd558806936149ff23d238e5e33f1d0283c3b940ed334137c4ff5fc5052f89b39602052604090205460ff16610b055760405163c3ec44d560e01b815260040160405180910390fd5b600354604051630fb17de160e01b8152600481018390526001600160a01b0390911690630fb17de190602401602060405180830381865afa158015610b4e573d6000803e3d6000fd5b505050506040513d601f19601f82011682018060405250810190610b729190612044565b1515600003610b9457604051630e0cd36560e21b815260040160405180910390fd5b600354604051631a3b4c7b60e11b8152600481018390526001600160a01b039091169063347698f690602401602060405180830381865afa158015610bdd573d6000803e3d6000fd5b505050506040513d601f19601f82011682018060405250810190610c019190612044565b1515600003610c235760405163bc8498e160e01b815260040160405180910390fd5b6003546040516336cbf21360e11b8152600481018390526001600160a01b0390911690636d97e42690602401600060405180830381600087803b158015610c6957600080fd5b505af1158015610c7d573d6000803e3d6000fd5b5050505050565b3360009081527fd558806936149ff23d238e5e33f1d0283c3b940ed334137c4ff5fc5052f89b39602052604081205460ff16610cd35760405163c3ec44d560e01b815260040160405180910390fd5b60035460405163c2c4687360e01b81526001600160a01b039091169063c2c4687390610d0f908b908b908b908b908b908b908b906004016120c2565b6020604051808303816000875af1158015610d2e573d6000803e3d6000fd5b505050506040513d601f19601f82011682018060405250810190610d52919061214a565b98975050505050505050565b610da36040518060e00160405280600060ff16815260200160608152602001606081526020016060815260200160001515815260200160008152602001600081525090565b3360009081526006602052604081208054610dbd90611efc565b80601f0160208091040260200160405190810160405280929190818152602001828054610de990611efc565b8015610e365780601f10610e0b57610100808354040283529160200191610e36565b820191906000526020600020905b815481529060010190602001808311610e1957829003601f168201915b50505050509050600581604051610e4d9190611ee0565b90815260408051918290036020908101832060e08401909252815460ff16835260018201805491840191610e8090611efc565b80601f0160208091040260200160405190810160405280929190818152602001828054610eac90611efc565b8015610ef95780601f10610ece57610100808354040283529160200191610ef9565b820191906000526020600020905b815481529060010190602001808311610edc57829003601f168201915b50505050508152602001600282018054610f1290611efc565b80601f0160208091040260200160405190810160405280929190818152602001828054610f3e90611efc565b8015610f8b5780601f10610f6057610100808354040283529160200191610f8b565b820191906000526020600020905b815481529060010190602001808311610f6e57829003601f168201915b50505050508152602001600382018054610fa490611efc565b80601f0160208091040260200160405190810160405280929190818152602001828054610fd090611efc565b801561101d5780601f10610ff25761010080835404028352916020019161101d565b820191906000526020600020905b81548152906001019060200180831161100057829003601f168201915b5050509183525050600482015460ff16151560208201526005820154604082015260069091015460609091015292915050565b6110956040518060e00160405280600060ff16815260200160608152602001606081526020016060815260200160001515815260200160008152602001600081525090565b3360009081527f43d9bcc3e75b31d3a5a66c9de8767582143de96356317bb53b8fd8128764f3b1602052604090205460ff166110e45760405163bed2ff5960e01b815260040160405180910390fd5b6001600160a01b0382166000908152600660205260408120805461110790611efc565b80601f016020809104026020016040519081016040528092919081815260200182805461113390611efc565b80156111805780601f1061115557610100808354040283529160200191611180565b820191906000526020600020905b81548152906001019060200180831161116357829003601f168201915b505050505090506005816040516111979190611ee0565b90815260408051918290036020908101832060e08401909252815460ff168352600182018054918401916111ca90611efc565b80601f01602080910402602001604051908101604052809291908181526020018280546111f690611efc565b80156112435780601f1061121857610100808354040283529160200191611243565b820191906000526020600020905b81548152906001019060200180831161122657829003601f168201915b5050505050815260200160028201805461125c90611efc565b80601f016020809104026020016040519081016040528092919081815260200182805461128890611efc565b80156112d55780601f106112aa576101008083540402835291602001916112d5565b820191906000526020600020905b8154815290600101906020018083116112b857829003601f168201915b505050505081526020016003820180546112ee90611efc565b80601f016020809104026020016040519081016040528092919081815260200182805461131a90611efc565b80156113675780601f1061133c57610100808354040283529160200191611367565b820191906000526020600020905b81548152906001019060200180831161134a57829003601f168201915b5050509183525050600482015460ff1615156020820152600582015460408201526006909101546060909101529150505b919050565b6000828152602081905260409020600101546113b88161174e565b610690838361175b565b3360009081527f43d9bcc3e75b31d3a5a66c9de8767582143de96356317bb53b8fd8128764f3b1602052604090205460ff166114115760405163bed2ff5960e01b815260040160405180910390fd5b336001600160a01b0382160361143a576040516355d939df60e11b815260040160405180910390fd5b6001600160a01b0381166000908152600660205260408120805461145d90611efc565b80601f016020809104026020016040519081016040528092919081815260200182805461148990611efc565b80156114d65780601f106114ab576101008083540402835291602001916114d6565b820191906000526020600020905b8154815290600101906020018083116114b957829003601f168201915b505050505090506005816040516114ed9190611ee0565b9081526040519081900360200190205460ff16600003611520576040516301ce348560e01b815260040160405180910390fd5b6005816040516115309190611ee0565b9081526040519081900360200190206004015460ff16151560000361156857604051632f71371d60e11b815260040160405180910390fd5b6005816040516115789190611ee0565b9081526040519081900360200190205460ff166001036115c1576115bc7fe35d8ac66531db3bceb0b6bbf69035a0ff45320ad9446da2273032d07d3450cc8361175b565b6115eb565b6115eb7fc349c7ca7a8e5ecbb1a9a2129910e4c9719b0d416ab19defc891f7e31a4433638361175b565b60006005826040516115fd9190611ee0565b908152604051908190036020018120600401805492151560ff19909316929092179091554290600590611631908490611ee0565b90815260405190819003602001812060060191909155611664906c20b236b4b734b9ba3930b237b960991b8152600d0190565b60405180910390208160405161167a9190611ee0565b6040519081900381209042907fab226b91710fa71f572f7490740f79997e7fc669308cc89d5e31d29068df483490600090a45050565b6000828152602081815260408083206001600160a01b038516845290915290205460ff16610722576000828152602081815260408083206001600160a01b03851684529091529020805460ff1916600117905561170a3390565b6001600160a01b0316816001600160a01b0316837f2f8788117e7eff1d82e926ec794901d17c78024a50270940304540a733656f0d60405160405180910390a45050565b61175881336117da565b50565b6000828152602081815260408083206001600160a01b038516845290915290205460ff1615610722576000828152602081815260408083206001600160a01b0385168085529252808320805460ff1916905551339285917ff6391f5c32d9c69d2a47ea670b442974b53935d1edc7fd64eb21e047a839171b9190a45050565b6000828152602081815260408083206001600160a01b038516845290915290205460ff166107225761180b8161184d565b61181683602061185f565b604051602001611827929190612163565b60408051601f198184030181529082905262461bcd60e51b825261070f916004016121e4565b60606102e46001600160a01b03831660145b6060600061186e83600261220d565b611879906002612224565b67ffffffffffffffff81111561189157611891611a61565b6040519080825280601f01601f1916602001820160405280156118bb576020820181803683370190505b509050600360fc1b816000815181106118d6576118d6612237565b60200101906001600160f81b031916908160001a905350600f60fb1b8160018151811061190557611905612237565b60200101906001600160f81b031916908160001a905350600061192984600261220d565b611934906001612224565b90505b60018111156119b9577f303132333435363738396162636465660000000000000000000000000000000085600f166010811061197557611975612237565b1a60f81b82828151811061198b5761198b612237565b60200101906001600160f81b031916908160001a90535060049490941c936119b28161224d565b9050611937565b508315611a085760405162461bcd60e51b815260206004820181905260248201527f537472696e67733a20686578206c656e67746820696e73756666696369656e74604482015260640161070f565b9392505050565b600060208284031215611a2157600080fd5b81356001600160e01b031981168114611a0857600080fd5b80356001600160a01b038116811461139857600080fd5b803560ff8116811461139857600080fd5b634e487b7160e01b600052604160045260246000fd5b600082601f830112611a8857600080fd5b813567ffffffffffffffff80821115611aa357611aa3611a61565b604051601f8301601f19908116603f01168101908282118183101715611acb57611acb611a61565b81604052838152866020858801011115611ae457600080fd5b836020870160208301376000602085830101528094505050505092915050565b60008060008060008060c08789031215611b1d57600080fd5b611b2687611a39565b9550611b3460208801611a50565b9450604087013567ffffffffffffffff80821115611b5157600080fd5b611b5d8a838b01611a77565b95506060890135915080821115611b7357600080fd5b611b7f8a838b01611a77565b94506080890135915080821115611b9557600080fd5b611ba18a838b01611a77565b935060a0890135915080821115611bb757600080fd5b50611bc489828a01611a77565b9150509295509295509295565b600060208284031215611be357600080fd5b5035919050565b600080600080600080600060e0888a031215611c0557600080fd5b87359650602088013567ffffffffffffffff80821115611c2457600080fd5b611c308b838c01611a77565b975060408a0135965060608a0135915080821115611c4d57600080fd5b611c598b838c01611a77565b955060808a0135915080821115611c6f57600080fd5b50611c7c8a828b01611a77565b93505060a0880135915060c0880135905092959891949750929550565b60008060408385031215611cac57600080fd5b82359150611cbc60208401611a39565b90509250929050565b60008060408385031215611cd857600080fd5b611ce183611a39565b9150611cbc60208401611a50565b600080600080600080600060e0888a031215611d0a57600080fd5b611d1388611a39565b9650602088013567ffffffffffffffff80821115611d3057600080fd5b611d3c8b838c01611a77565b975060408a0135915080821115611d5257600080fd5b611d5e8b838c01611a77565b965060608a0135915080821115611d7457600080fd5b611d808b838c01611a77565b955060808a0135915080821115611d9657600080fd5b611da28b838c01611a77565b945060a08a0135915080821115611db857600080fd5b50611dc58a828b01611a77565b925050611dd460c08901611a50565b905092959891949750929550565b60005b83811015611dfd578181015183820152602001611de5565b50506000910152565b60008151808452611e1e816020860160208601611de2565b601f01601f19169290920160200192915050565b6020815260ff82511660208201526000602083015160e06040840152611e5c610100840182611e06565b90506040840151601f1980858403016060860152611e7a8383611e06565b9250606086015191508085840301608086015250611e988282611e06565b9150506080840151151560a084015260a084015160c084015260c084015160e08401528091505092915050565b600060208284031215611ed757600080fd5b611a0882611a39565b60008251611ef2818460208701611de2565b9190910192915050565b600181811c90821680611f1057607f821691505b602082108103611f3057634e487b7160e01b600052602260045260246000fd5b50919050565b601f82111561069057600081815260208120601f850160051c81016020861015611f5d5750805b601f850160051c820191505b81811015611f7c57828155600101611f69565b505050505050565b815167ffffffffffffffff811115611f9e57611f9e611a61565b611fb281611fac8454611efc565b84611f36565b602080601f831160018114611fe75760008415611fcf5750858301515b600019600386901b1c1916600185901b178555611f7c565b600085815260208120601f198616915b8281101561201657888601518255948401946001909101908401611ff7565b50858210156120345787850151600019600388901b60f8161c191681555b5050505050600190811b01905550565b60006020828403121561205657600080fd5b81518015158114611a0857600080fd5b87815260e06020820152600061207f60e0830189611e06565b87604084015282810360608401526120978188611e06565b905082810360808401526120ab8187611e06565b60a0840195909552505060c0015295945050505050565b6001600160a01b038816815260e0602082015260006120e460e0830189611e06565b82810360408401526120f68189611e06565b9050828103606084015261210a8188611e06565b9050828103608084015261211e8187611e06565b905082810360a08401526121328186611e06565b91505060ff831660c083015298975050505050505050565b60006020828403121561215c57600080fd5b5051919050565b7f416363657373436f6e74726f6c3a206163636f756e742000000000000000000081526000835161219b816017850160208801611de2565b7f206973206d697373696e6720726f6c652000000000000000000000000000000060179184019182015283516121d8816028840160208801611de2565b01602801949350505050565b602081526000611a086020830184611e06565b634e487b7160e01b600052601160045260246000fd5b80820281158282048414176102e4576102e46121f7565b808201808211156102e4576102e46121f7565b634e487b7160e01b600052603260045260246000fd5b60008161225c5761225c6121f7565b50600019019056fea2646970667358221220dd5480a35a3b511df5079827c7da6343c3e4223a288fea4e22d00e00243e9e0264736f6c63430008140033608060405234801561001057600080fd5b5061001c60003361004b565b6100467fefde6635549760001b141816a6edeaa8c0fe3349291d719ba45d394133f239723361004b565b6100f7565b6100558282610059565b5050565b6000828152602081815260408083206001600160a01b038516845290915290205460ff16610055576000828152602081815260408083206001600160a01b03851684529091529020805460ff191660011790556100b33390565b6001600160a01b0316816001600160a01b0316837f2f8788117e7eff1d82e926ec794901d17c78024a50270940304540a733656f0d60405160405180910390a45050565b611371806101066000396000f3fe608060405234801561001057600080fd5b50600436106100d45760003560e01c806391d1485411610081578063b288c3901161005b578063b288c3901461024e578063c8ea404714610261578063d547741f1461027457600080fd5b806391d14854146101d7578063a217fddf1461020e578063b1be0f391461021657600080fd5b80632f2ff15d116100b25780632f2ff15d1461015457806336568abe14610169578063564115e51461017c57600080fd5b806301ffc9a7146100d957806304ebab0f14610101578063248a9ca314610123575b600080fd5b6100ec6100e7366004610c2f565b610287565b60405190151581526020015b60405180910390f35b61011461010f366004610c59565b6102be565b6040516100f893929190610d35565b610146610131366004610c59565b60009081526020819052604090206001015490565b6040519081526020016100f8565b610167610162366004610e50565b610577565b005b610167610177366004610e50565b6105a1565b6101be61018a366004610e50565b60009182526003602090815260408084206001600160a01b039390931684529190529020805460019091015460ff90911691565b6040805160ff90931683526020830191909152016100f8565b6100ec6101e5366004610e50565b6000918252602082815260408084206001600160a01b0393909316845291905290205460ff1690565b610146600081565b6101be610224366004610e50565b60036020908152600092835260408084209091529082529020805460019091015460ff9091169082565b61016761025c366004610e8f565b610632565b61016761026f366004610ed7565b610795565b610167610282366004610e50565b61081d565b60006001600160e01b03198216637965db0b60e01b14806102b857506301ffc9a760e01b6001600160e01b03198316145b92915050565b6102c6610ba1565b600082815260036020908152604080832033845290915281206001015481908103610304576040516323d3c0ad60e01b815260040160405180910390fd5b600084815260036020908152604080832033845290915290206001015442111561034157604051630e56ce2b60e31b815260040160405180910390fd5b600254604051630178fe3f60e01b8152600481018690526000916001600160a01b031690630178fe3f90602401600060405180830381865afa15801561038b573d6000803e3d6000fd5b505050506040513d6000823e601f3d908101601f191682016040526103b39190810190611130565b600086815260036020908152604080832033845290915290205490915060ff1660010361040a5760008581526003602090815260408083203384529091529020805460019091015491945060ff1692509050610570565b600085815260036020908152604080832033845290915290205460ff1660020361049d576040805160c081018252825181528151602080820184526000808352818401929092528484015183850152606083018290526080830182905260a09485015194830194909452878152600384528281203382529093529120805460019091015491945060ff1692509050610570565b60008581526003602081815260408084203385529091529091205460ff16900361056e576040805160c0808201835283518252825160208082018552600080835281850192909252948401518385015260608084018290526080808501839052855160e081018752938401838152845283870183905285518088018752838152848701528551808801875283815291840191909152820181905260a0808301829052830191909152878152600384528281203382529093529120805460019091015491945060ff1692509050610570565b505b9193909250565b60008281526020819052604090206001015461059281610842565b61059c838361084f565b505050565b6001600160a01b03811633146106245760405162461bcd60e51b815260206004820152602f60248201527f416363657373436f6e74726f6c3a2063616e206f6e6c792072656e6f756e636560448201527f20726f6c657320666f722073656c66000000000000000000000000000000000060648201526084015b60405180910390fd5b61062e82826108ed565b5050565b6001546040516331a9108f60e11b81526004810186905285916001600160a01b031690636352211e90602401602060405180830381865afa15801561067b573d6000803e3d6000fd5b505050506040513d601f19601f8201168201806040525081019061069f919061121d565b6001600160a01b0316336001600160a01b0316146106d0576040516323d3c0ad60e01b815260040160405180910390fd5b60038460ff1611156106f557604051637465e66760e01b815260040160405180910390fd5b4282101561071657604051637465e66760e01b815260040160405180910390fd5b60408051808201825260ff868116808352602080840187815260008b8152600383528681206001600160a01b038b1680835293528681209551865460ff1916951694909417855551600190940193909355925185917fa9d485811f688c06975ed22802a3f774b51f04c8dbbcbe0df0a55f0e3f72c73c91a45050505050565b3360009081527f5f46984ecd49a76f384c8a36037278248879a3da6569d8e7b0a9b5a53bc6f51e602052604090205460ff166107e4576040516323d3c0ad60e01b815260040160405180910390fd5b600180546001600160a01b0390921673ffffffffffffffffffffffffffffffffffffffff19928316811790915560028054909216179055565b60008281526020819052604090206001015461083881610842565b61059c83836108ed565b61084c813361096c565b50565b6000828152602081815260408083206001600160a01b038516845290915290205460ff1661062e576000828152602081815260408083206001600160a01b03851684529091529020805460ff191660011790556108a93390565b6001600160a01b0316816001600160a01b0316837f2f8788117e7eff1d82e926ec794901d17c78024a50270940304540a733656f0d60405160405180910390a45050565b6000828152602081815260408083206001600160a01b038516845290915290205460ff161561062e576000828152602081815260408083206001600160a01b0385168085529252808320805460ff1916905551339285917ff6391f5c32d9c69d2a47ea670b442974b53935d1edc7fd64eb21e047a839171b9190a45050565b6000828152602081815260408083206001600160a01b038516845290915290205460ff1661062e5761099d816109df565b6109a88360206109f1565b6040516020016109b992919061123a565b60408051601f198184030181529082905262461bcd60e51b825261061b916004016112bb565b60606102b86001600160a01b03831660145b60606000610a008360026112e4565b610a0b9060026112fb565b67ffffffffffffffff811115610a2357610a23610ef4565b6040519080825280601f01601f191660200182016040528015610a4d576020820181803683370190505b509050600360fc1b81600081518110610a6857610a6861130e565b60200101906001600160f81b031916908160001a905350600f60fb1b81600181518110610a9757610a9761130e565b60200101906001600160f81b031916908160001a9053506000610abb8460026112e4565b610ac69060016112fb565b90505b6001811115610b4b577f303132333435363738396162636465660000000000000000000000000000000085600f1660108110610b0757610b0761130e565b1a60f81b828281518110610b1d57610b1d61130e565b60200101906001600160f81b031916908160001a90535060049490941c93610b4481611324565b9050610ac9565b508315610b9a5760405162461bcd60e51b815260206004820181905260248201527f537472696e67733a20686578206c656e67746820696e73756666696369656e74604482015260640161061b565b9392505050565b604080516101408101909152606060c0820181815260e0830182905261010083019190915260006101208301528190815260200160608152602001606081526020016000815260200160008152602001610c2a6040518060c001604052806060815260200160008152602001606081526020016060815260200160008152602001600081525090565b905290565b600060208284031215610c4157600080fd5b81356001600160e01b031981168114610b9a57600080fd5b600060208284031215610c6b57600080fd5b5035919050565b60005b83811015610c8d578181015183820152602001610c75565b50506000910152565b60008151808452610cae816020860160208601610c72565b601f01601f19169290920160200192915050565b6000815160c08452610cd760c0850182610c96565b90506020830151602085015260408301518482036040860152610cfa8282610c96565b91505060608301518482036060860152610d148282610c96565b9150506080830151608085015260a083015160a08501528091505092915050565b606081526000845160c0606084015280516080610120850152610d5c6101a0850182610c96565b9050602082015161011f198086840301610140870152610d7c8383610c96565b925060408401519150808684030161016087015250610d9b8282610c96565b91505060ff60608301511661018085015260208701519150605f1980858303016080860152610dca8284610c96565b925060408801519150808584030160a0860152610de78383610c96565b9250606088015160c0860152608088015160e086015260a08801519150808584030161010086015250610e1a8282610cc2565b92505050610e2d602083018560ff169052565b826040830152949350505050565b6001600160a01b038116811461084c57600080fd5b60008060408385031215610e6357600080fd5b823591506020830135610e7581610e3b565b809150509250929050565b60ff8116811461084c57600080fd5b60008060008060808587031215610ea557600080fd5b843593506020850135610eb781610e80565b92506040850135610ec781610e3b565b9396929550929360600135925050565b600060208284031215610ee957600080fd5b8135610b9a81610e3b565b634e487b7160e01b600052604160045260246000fd5b60405160c0810167ffffffffffffffff81118282101715610f2d57610f2d610ef4565b60405290565b600082601f830112610f4457600080fd5b815167ffffffffffffffff80821115610f5f57610f5f610ef4565b604051601f8301601f19908116603f01168101908282118183101715610f8757610f87610ef4565b81604052838152866020858801011115610fa057600080fd5b610fb1846020830160208901610c72565b9695505050505050565b600060808284031215610fcd57600080fd5b6040516080810167ffffffffffffffff8282108183111715610ff157610ff1610ef4565b81604052829350845191508082111561100957600080fd5b61101586838701610f33565b8352602085015191508082111561102b57600080fd5b61103786838701610f33565b6020840152604085015191508082111561105057600080fd5b5061105d85828601610f33565b604083015250606083015161107181610e80565b6060919091015292915050565b600060c0828403121561109057600080fd5b611098610f0a565b9050815167ffffffffffffffff808211156110b257600080fd5b6110be85838601610f33565b83526020840151602084015260408401519150808211156110de57600080fd5b6110ea85838601610f33565b6040840152606084015191508082111561110357600080fd5b5061111084828501610f33565b6060830152506080820151608082015260a082015160a082015292915050565b60006020828403121561114257600080fd5b815167ffffffffffffffff8082111561115a57600080fd5b9083019060c0828603121561116e57600080fd5b611176610f0a565b82518281111561118557600080fd5b61119187828601610fbb565b8252506020830151828111156111a657600080fd5b6111b287828601610f33565b6020830152506040830151828111156111ca57600080fd5b6111d687828601610f33565b604083015250606083015160608201526080830151608082015260a08301518281111561120257600080fd5b61120e8782860161107e565b60a08301525095945050505050565b60006020828403121561122f57600080fd5b8151610b9a81610e3b565b7f416363657373436f6e74726f6c3a206163636f756e7420000000000000000000815260008351611272816017850160208801610c72565b7f206973206d697373696e6720726f6c652000000000000000000000000000000060179184019182015283516112af816028840160208801610c72565b01602801949350505050565b602081526000610b9a6020830184610c96565b634e487b7160e01b600052601160045260246000fd5b80820281158282048414176102b8576102b86112ce565b808201808211156102b8576102b86112ce565b634e487b7160e01b600052603260045260246000fd5b600081611333576113336112ce565b50600019019056fea26469706673582212205366ddc55eab8e56efb3e6331854c3c42ccc5b6e3aa83854103fc81927284b6b64736f6c6343000814003360806040523480156200001157600080fd5b5060405162003c0b38038062003c0b8339810160408190526200003491620001ce565b6040518060400160405280601181526020017010dc9959195b98da585b111a59da5d185b607a1b81525060405180604001604052806003815260200162494e4560e81b81525081600090816200008b9190620002ab565b5060016200009a8282620002ab565b50620000ac915060009050826200010c565b620000d87fefde6635549760001b141816a6edeaa8c0fe3349291d719ba45d394133f23972826200010c565b620001047ffefbcd2994addf231f616d82a0206dae3d91b25912035ad93bd89e80f846f266836200010c565b505062000377565b60008281526006602090815260408083206001600160a01b038516845290915290205460ff16620001ad5760008281526006602090815260408083206001600160a01b03851684529091529020805460ff191660011790556200016c3390565b6001600160a01b0316816001600160a01b0316837f2f8788117e7eff1d82e926ec794901d17c78024a50270940304540a733656f0d60405160405180910390a45b5050565b80516001600160a01b0381168114620001c957600080fd5b919050565b60008060408385031215620001e257600080fd5b620001ed83620001b1565b9150620001fd60208401620001b1565b90509250929050565b634e487b7160e01b600052604160045260246000fd5b600181811c908216806200023157607f821691505b6020821081036200025257634e487b7160e01b600052602260045260246000fd5b50919050565b601f821115620002a657600081815260208120601f850160051c81016020861015620002815750805b601f850160051c820191505b81811015620002a2578281556001016200028d565b5050505b505050565b81516001600160401b03811115620002c757620002c762000206565b620002df81620002d884546200021c565b8462000258565b602080601f831160018114620003175760008415620002fe5750858301515b600019600386901b1c1916600185901b178555620002a2565b600085815260208120601f198616915b82811015620003485788860151825594840194600190910190840162000327565b5085821015620003675787850151600019600388901b60f8161c191681555b5050505050600190811b01905550565b61388480620003876000396000f3fe608060405234801561001057600080fd5b50600436106101f05760003560e01c8063600e5eba1161010f578063b162ff37116100a2578063c87b56dd11610071578063c87b56dd146104da578063d0e4e45d146104ed578063d547741f146104f5578063e985e9c51461050857600080fd5b8063b162ff3714610478578063b88d4fde1461048d578063c2c46873146104a0578063c4164645146104b357600080fd5b806391d14854116100de57806391d148541461041c57806395d89b4114610455578063a217fddf1461045d578063a22cb4651461046557600080fd5b8063600e5eba146103c35780636352211e146103e35780636d97e426146103f657806370a082311461040957600080fd5b8063248a9ca31161018757806341ad5e3d1161015657806341ad5e3d1461033957806342842e0e1461035e5780634cf5cead146103715780635bdc847f1461039857600080fd5b8063248a9ca3146102cf5780632f2ff15d14610300578063347698f61461031357806336568abe1461032657600080fd5b8063081812fc116101c3578063081812fc1461026b578063095ea7b3146102965780630fb17de1146102a957806323b872dd146102bc57600080fd5b80630178fe3f146101f557806301ffc9a71461021e578063033ee8aa1461024157806306fdde0314610256575b600080fd5b610208610203366004612ebf565b610544565b6040516102159190612ffd565b60405180910390f35b61023161022c3660046130a5565b610a8d565b6040519015158152602001610215565b61025461024f36600461316e565b610a9e565b005b61025e610ba0565b604051610215919061321d565b61027e610279366004612ebf565b610c32565b6040516001600160a01b039091168152602001610215565b6102546102a436600461324c565b610c59565b6102316102b7366004612ebf565b610d73565b6102546102ca366004613276565b610d92565b6102f26102dd366004612ebf565b60009081526006602052604090206001015490565b604051908152602001610215565b61025461030e3660046132b2565b610e09565b610231610321366004612ebf565b610e2e565b6102546103343660046132b2565b611046565b61034c610347366004612ebf565b6110d2565b604051610215969594939291906132de565b61025461036c366004613276565b6115cd565b6102f27ffefbcd2994addf231f616d82a0206dae3d91b25912035ad93bd89e80f846f26681565b6102f26103a6366004613344565b805160208183018101805160098252928201919093012091525481565b6102f26103d1366004613379565b600a6020526000908152604090205481565b61027e6103f1366004612ebf565b6115e8565b610254610404366004612ebf565b61164d565b6102f2610417366004613379565b611726565b61023161042a3660046132b2565b60009182526006602090815260408084206001600160a01b0393909316845291905290205460ff1690565b61025e6117ac565b6102f2600081565b610254610473366004613394565b6117bb565b336000908152600a60205260409020546102f2565b61025461049b3660046133d0565b6117c6565b6102f26104ae36600461345d565b611844565b6102f27fefde6635549760001b141816a6edeaa8c0fe3349291d719ba45d394133f2397281565b61025e6104e8366004612ebf565b611b3f565b610208611bb3565b6102546105033660046132b2565b6120e1565b610231610516366004613550565b6001600160a01b03918216600090815260056020908152604080832093909416825291909152205460ff1690565b61054c612e31565b7ffefbcd2994addf231f616d82a0206dae3d91b25912035ad93bd89e80f846f26661057681612106565b60008381526008602052604090819020815161014081019092528054829060c08201908390829082906105a89061357a565b80601f01602080910402602001604051908101604052809291908181526020018280546105d49061357a565b80156106215780601f106105f657610100808354040283529160200191610621565b820191906000526020600020905b81548152906001019060200180831161060457829003601f168201915b5050505050815260200160018201805461063a9061357a565b80601f01602080910402602001604051908101604052809291908181526020018280546106669061357a565b80156106b35780601f10610688576101008083540402835291602001916106b3565b820191906000526020600020905b81548152906001019060200180831161069657829003601f168201915b505050505081526020016002820180546106cc9061357a565b80601f01602080910402602001604051908101604052809291908181526020018280546106f89061357a565b80156107455780601f1061071a57610100808354040283529160200191610745565b820191906000526020600020905b81548152906001019060200180831161072857829003601f168201915b50505091835250506003919091015460ff1660209182015290825260048301805492909101916107749061357a565b80601f01602080910402602001604051908101604052809291908181526020018280546107a09061357a565b80156107ed5780601f106107c2576101008083540402835291602001916107ed565b820191906000526020600020905b8154815290600101906020018083116107d057829003601f168201915b505050505081526020016005820180546108069061357a565b80601f01602080910402602001604051908101604052809291908181526020018280546108329061357a565b801561087f5780601f106108545761010080835404028352916020019161087f565b820191906000526020600020905b81548152906001019060200180831161086257829003601f168201915b505050505081526020016006820154815260200160078201548152602001600882016040518060c00160405290816000820180546108bc9061357a565b80601f01602080910402602001604051908101604052809291908181526020018280546108e89061357a565b80156109355780601f1061090a57610100808354040283529160200191610935565b820191906000526020600020905b81548152906001019060200180831161091857829003601f168201915b50505050508152602001600182015481526020016002820180546109589061357a565b80601f01602080910402602001604051908101604052809291908181526020018280546109849061357a565b80156109d15780601f106109a6576101008083540402835291602001916109d1565b820191906000526020600020905b8154815290600101906020018083116109b457829003601f168201915b505050505081526020016003820180546109ea9061357a565b80601f0160208091040260200160405190810160405280929190818152602001828054610a169061357a565b8015610a635780601f10610a3857610100808354040283529160200191610a63565b820191906000526020600020905b815481529060010190602001808311610a4657829003601f168201915b50505050508152602001600482015481526020016005820154815250508152505091505b50919050565b6000610a9882612113565b92915050565b7fefde6635549760001b141816a6edeaa8c0fe3349291d719ba45d394133f23972610ac881612106565b610ad188610d73565b1515600003610af357604051630bf4f16b60e31b815260040160405180910390fd5b6040518060c0016040528088815260200187815260200186815260200185815260200184815260200183815250600860008a81526020019081526020016000206008016000820151816000019081610b4b91906135fc565b506020820151600182015560408201516002820190610b6a90826135fc565b5060608201516003820190610b7f90826135fc565b506080820151600482015560a0909101516005909101555050505050505050565b606060008054610baf9061357a565b80601f0160208091040260200160405190810160405280929190818152602001828054610bdb9061357a565b8015610c285780601f10610bfd57610100808354040283529160200191610c28565b820191906000526020600020905b815481529060010190602001808311610c0b57829003601f168201915b5050505050905090565b6000610c3d82612138565b506000908152600460205260409020546001600160a01b031690565b6000610c64826115e8565b9050806001600160a01b0316836001600160a01b031603610cd65760405162461bcd60e51b815260206004820152602160248201527f4552433732313a20617070726f76616c20746f2063757272656e74206f776e656044820152603960f91b60648201526084015b60405180910390fd5b336001600160a01b0382161480610cf25750610cf28133610516565b610d645760405162461bcd60e51b815260206004820152603d60248201527f4552433732313a20617070726f76652063616c6c6572206973206e6f7420746f60448201527f6b656e206f776e6572206f7220617070726f76656420666f7220616c6c0000006064820152608401610ccd565b610d6e838361219c565b505050565b6000818152600260205260408120546001600160a01b03161515610a98565b610d9c338261220a565b610dfe5760405162461bcd60e51b815260206004820152602d60248201527f4552433732313a2063616c6c6572206973206e6f7420746f6b656e206f776e6560448201526c1c881bdc88185c1c1c9bdd9959609a1b6064820152608401610ccd565b610d6e838383612289565b600082815260066020526040902060010154610e2481612106565b610d6e8383612469565b600080600860008481526020019081526020016000206008016040518060c0016040529081600082018054610e629061357a565b80601f0160208091040260200160405190810160405280929190818152602001828054610e8e9061357a565b8015610edb5780601f10610eb057610100808354040283529160200191610edb565b820191906000526020600020905b815481529060010190602001808311610ebe57829003601f168201915b5050505050815260200160018201548152602001600282018054610efe9061357a565b80601f0160208091040260200160405190810160405280929190818152602001828054610f2a9061357a565b8015610f775780601f10610f4c57610100808354040283529160200191610f77565b820191906000526020600020905b815481529060010190602001808311610f5a57829003601f168201915b50505050508152602001600382018054610f909061357a565b80601f0160208091040260200160405190810160405280929190818152602001828054610fbc9061357a565b80156110095780601f10610fde57610100808354040283529160200191611009565b820191906000526020600020905b815481529060010190602001808311610fec57829003601f168201915b50505050508152602001600482015481526020016005820154815250509050806080015160000361103d5750600092915050565b50600192915050565b6001600160a01b03811633146110c45760405162461bcd60e51b815260206004820152602f60248201527f416363657373436f6e74726f6c3a2063616e206f6e6c792072656e6f756e636560448201527f20726f6c657320666f722073656c6600000000000000000000000000000000006064820152608401610ccd565b6110ce828261250b565b5050565b6008602052806000526040600020600091509050806000016040518060800160405290816000820180546111059061357a565b80601f01602080910402602001604051908101604052809291908181526020018280546111319061357a565b801561117e5780601f106111535761010080835404028352916020019161117e565b820191906000526020600020905b81548152906001019060200180831161116157829003601f168201915b505050505081526020016001820180546111979061357a565b80601f01602080910402602001604051908101604052809291908181526020018280546111c39061357a565b80156112105780601f106111e557610100808354040283529160200191611210565b820191906000526020600020905b8154815290600101906020018083116111f357829003601f168201915b505050505081526020016002820180546112299061357a565b80601f01602080910402602001604051908101604052809291908181526020018280546112559061357a565b80156112a25780601f10611277576101008083540402835291602001916112a2565b820191906000526020600020905b81548152906001019060200180831161128557829003601f168201915b50505091835250506003919091015460ff166020909101526004820180549192916112cc9061357a565b80601f01602080910402602001604051908101604052809291908181526020018280546112f89061357a565b80156113455780601f1061131a57610100808354040283529160200191611345565b820191906000526020600020905b81548152906001019060200180831161132857829003601f168201915b50505050509080600501805461135a9061357a565b80601f01602080910402602001604051908101604052809291908181526020018280546113869061357a565b80156113d35780601f106113a8576101008083540402835291602001916113d3565b820191906000526020600020905b8154815290600101906020018083116113b657829003601f168201915b505050505090806006015490806007015490806008016040518060c00160405290816000820180546114049061357a565b80601f01602080910402602001604051908101604052809291908181526020018280546114309061357a565b801561147d5780601f106114525761010080835404028352916020019161147d565b820191906000526020600020905b81548152906001019060200180831161146057829003601f168201915b50505050508152602001600182015481526020016002820180546114a09061357a565b80601f01602080910402602001604051908101604052809291908181526020018280546114cc9061357a565b80156115195780601f106114ee57610100808354040283529160200191611519565b820191906000526020600020905b8154815290600101906020018083116114fc57829003601f168201915b505050505081526020016003820180546115329061357a565b80601f016020809104026020016040519081016040528092919081815260200182805461155e9061357a565b80156115ab5780601f10611580576101008083540402835291602001916115ab565b820191906000526020600020905b81548152906001019060200180831161158e57829003601f168201915b5050505050815260200160048201548152602001600582015481525050905086565b610d6e838383604051806020016040528060008152506117c6565b6000818152600260205260408120546001600160a01b031680610a985760405162461bcd60e51b815260206004820152601860248201527f4552433732313a20696e76616c696420746f6b656e20494400000000000000006044820152606401610ccd565b7fefde6635549760001b141816a6edeaa8c0fe3349291d719ba45d394133f2397261167781612106565b61168082610d73565b15156000036116a257604051630bf4f16b60e31b815260040160405180910390fd5b6000828152600860205260409020600701544211156116d457604051634fc7064d60e01b815260040160405180910390fd5b6116dd82610e2e565b15156000036116ff57604051634fc7064d60e01b815260040160405180910390fd5b61170d426312cc03006136d2565b6000928352600860205260409092206007019190915550565b60006001600160a01b0382166117905760405162461bcd60e51b815260206004820152602960248201527f4552433732313a2061646472657373207a65726f206973206e6f7420612076616044820152683634b21037bbb732b960b91b6064820152608401610ccd565b506001600160a01b031660009081526003602052604090205490565b606060018054610baf9061357a565b6110ce33838361258e565b6117d0338361220a565b6118325760405162461bcd60e51b815260206004820152602d60248201527f4552433732313a2063616c6c6572206973206e6f7420746f6b656e206f776e6560448201526c1c881bdc88185c1c1c9bdd9959609a1b6064820152608401610ccd565b61183e8484848461265c565b50505050565b60007fefde6635549760001b141816a6edeaa8c0fe3349291d719ba45d394133f2397261187081612106565b60098560405161188091906136e5565b9081526020016040518091039020546000146118af576040516307d946db60e21b815260040160405180910390fd5b6001600160a01b0389166000908152600a6020526040902054156118e6576040516307d946db60e21b815260040160405180910390fd5b60006118f160075490565b6118fc9060016136d2565b905061190c600780546001019055565b6119168a826126da565b426000611927826312cc03006136d2565b90508260098960405161193a91906136e5565b9081526020016040518091039020819055506040518060c0016040528060405180608001604052808e81526020018d81526020018c81526020018960ff1681525081526020018981526020018881526020018381526020018281526020016040518060c0016040528060405180602001604052806000815250815260200160008152602001604051806020016040528060008152508152602001604051806020016040528060008152508152602001600081526020016000815250815250600860008581526020019081526020016000206000820151816000016000820151816000019081611a2991906135fc565b5060208201516001820190611a3e90826135fc565b5060408201516002820190611a5390826135fc565b50606091909101516003909101805460ff191660ff90921691909117905560208201516004820190611a8590826135fc565b5060408201516005820190611a9a90826135fc565b50606082015160068201556080820151600782015560a0820151805160088301908190611ac790826135fc565b506020820151600182015560408201516002820190611ae690826135fc565b5060608201516003820190611afb90826135fc565b506080820151600482015560a0909101516005909101555050506001600160a01b038b166000908152600a6020526040902082905550915050979650505050505050565b6060611b4a82612138565b6000611b6160408051602081019091526000815290565b90506000815111611b815760405180602001604052806000815250611bac565b80611b8b846126f4565b604051602001611b9c929190613701565b6040516020818303038152906040525b9392505050565b611bbb612e31565b336000908152600a6020908152604080832054808452600890925291829020825161014081019093528054919291829060c0820190839082908290611bff9061357a565b80601f0160208091040260200160405190810160405280929190818152602001828054611c2b9061357a565b8015611c785780601f10611c4d57610100808354040283529160200191611c78565b820191906000526020600020905b815481529060010190602001808311611c5b57829003601f168201915b50505050508152602001600182018054611c919061357a565b80601f0160208091040260200160405190810160405280929190818152602001828054611cbd9061357a565b8015611d0a5780601f10611cdf57610100808354040283529160200191611d0a565b820191906000526020600020905b815481529060010190602001808311611ced57829003601f168201915b50505050508152602001600282018054611d239061357a565b80601f0160208091040260200160405190810160405280929190818152602001828054611d4f9061357a565b8015611d9c5780601f10611d7157610100808354040283529160200191611d9c565b820191906000526020600020905b815481529060010190602001808311611d7f57829003601f168201915b50505091835250506003919091015460ff166020918201529082526004830180549290910191611dcb9061357a565b80601f0160208091040260200160405190810160405280929190818152602001828054611df79061357a565b8015611e445780601f10611e1957610100808354040283529160200191611e44565b820191906000526020600020905b815481529060010190602001808311611e2757829003601f168201915b50505050508152602001600582018054611e5d9061357a565b80601f0160208091040260200160405190810160405280929190818152602001828054611e899061357a565b8015611ed65780601f10611eab57610100808354040283529160200191611ed6565b820191906000526020600020905b815481529060010190602001808311611eb957829003601f168201915b505050505081526020016006820154815260200160078201548152602001600882016040518060c0016040529081600082018054611f139061357a565b80601f0160208091040260200160405190810160405280929190818152602001828054611f3f9061357a565b8015611f8c5780601f10611f6157610100808354040283529160200191611f8c565b820191906000526020600020905b815481529060010190602001808311611f6f57829003601f168201915b5050505050815260200160018201548152602001600282018054611faf9061357a565b80601f0160208091040260200160405190810160405280929190818152602001828054611fdb9061357a565b80156120285780601f10611ffd57610100808354040283529160200191612028565b820191906000526020600020905b81548152906001019060200180831161200b57829003601f168201915b505050505081526020016003820180546120419061357a565b80601f016020809104026020016040519081016040528092919081815260200182805461206d9061357a565b80156120ba5780601f1061208f576101008083540402835291602001916120ba565b820191906000526020600020905b81548152906001019060200180831161209d57829003601f168201915b50505050508152602001600482015481526020016005820154815250508152505091505090565b6000828152600660205260409020600101546120fc81612106565b610d6e838361250b565b6121108133612787565b50565b60006001600160e01b03198216637965db0b60e01b1480610a985750610a98826127fc565b6000818152600260205260409020546001600160a01b03166121105760405162461bcd60e51b815260206004820152601860248201527f4552433732313a20696e76616c696420746f6b656e20494400000000000000006044820152606401610ccd565b600081815260046020526040902080546001600160a01b0319166001600160a01b03841690811790915581906121d1826115e8565b6001600160a01b03167f8c5be1e5ebec7d5bd14f71427d1e84f3dd0314c0f7b2291e5b200ac8c7c3b92560405160405180910390a45050565b600080612216836115e8565b9050806001600160a01b0316846001600160a01b0316148061225d57506001600160a01b0380821660009081526005602090815260408083209388168352929052205460ff165b806122815750836001600160a01b031661227684610c32565b6001600160a01b0316145b949350505050565b826001600160a01b031661229c826115e8565b6001600160a01b0316146123005760405162461bcd60e51b815260206004820152602560248201527f4552433732313a207472616e736665722066726f6d20696e636f72726563742060448201526437bbb732b960d91b6064820152608401610ccd565b6001600160a01b0382166123625760405162461bcd60e51b8152602060048201526024808201527f4552433732313a207472616e7366657220746f20746865207a65726f206164646044820152637265737360e01b6064820152608401610ccd565b826001600160a01b0316612375826115e8565b6001600160a01b0316146123d95760405162461bcd60e51b815260206004820152602560248201527f4552433732313a207472616e736665722066726f6d20696e636f72726563742060448201526437bbb732b960d91b6064820152608401610ccd565b600081815260046020908152604080832080546001600160a01b03199081169091556001600160a01b0387811680865260038552838620805460001901905590871680865283862080546001019055868652600290945282852080549092168417909155905184937fddf252ad1be2c89b69c2b068fc378daa952ba7f163c4a11628f55a4df523b3ef91a4505050565b60008281526006602090815260408083206001600160a01b038516845290915290205460ff166110ce5760008281526006602090815260408083206001600160a01b03851684529091529020805460ff191660011790556124c73390565b6001600160a01b0316816001600160a01b0316837f2f8788117e7eff1d82e926ec794901d17c78024a50270940304540a733656f0d60405160405180910390a45050565b60008281526006602090815260408083206001600160a01b038516845290915290205460ff16156110ce5760008281526006602090815260408083206001600160a01b0385168085529252808320805460ff1916905551339285917ff6391f5c32d9c69d2a47ea670b442974b53935d1edc7fd64eb21e047a839171b9190a45050565b816001600160a01b0316836001600160a01b0316036125ef5760405162461bcd60e51b815260206004820152601960248201527f4552433732313a20617070726f766520746f2063616c6c6572000000000000006044820152606401610ccd565b6001600160a01b03838116600081815260056020908152604080832094871680845294825291829020805460ff191686151590811790915591519182527f17307eab39ab6107e8899845ad3d59bd9653f200f220920489ca2b5937696c31910160405180910390a3505050565b612667848484612289565b6126738484848461284c565b61183e5760405162461bcd60e51b815260206004820152603260248201527f4552433732313a207472616e7366657220746f206e6f6e20455243373231526560448201527131b2b4bb32b91034b6b83632b6b2b73a32b960711b6064820152608401610ccd565b6110ce828260405180602001604052806000815250612998565b6060600061270183612a16565b600101905060008167ffffffffffffffff811115612721576127216130c2565b6040519080825280601f01601f19166020018201604052801561274b576020820181803683370190505b5090508181016020015b600019016f181899199a1a9b1b9c1cb0b131b232b360811b600a86061a8153600a850494508461275557509392505050565b60008281526006602090815260408083206001600160a01b038516845290915290205460ff166110ce576127ba81612af8565b6127c5836020612b0a565b6040516020016127d6929190613730565b60408051601f198184030181529082905262461bcd60e51b8252610ccd9160040161321d565b60006001600160e01b031982166380ac58cd60e01b148061282d57506001600160e01b03198216635b5e139f60e01b145b80610a9857506301ffc9a760e01b6001600160e01b0319831614610a98565b60006001600160a01b0384163b1561298d57604051630a85bd0160e11b81526001600160a01b0385169063150b7a02906128909033908990889088906004016137b1565b6020604051808303816000875af19250505080156128cb575060408051601f3d908101601f191682019092526128c8918101906137ed565b60015b612973573d8080156128f9576040519150601f19603f3d011682016040523d82523d6000602084013e6128fe565b606091505b50805160000361296b5760405162461bcd60e51b815260206004820152603260248201527f4552433732313a207472616e7366657220746f206e6f6e20455243373231526560448201527131b2b4bb32b91034b6b83632b6b2b73a32b960711b6064820152608401610ccd565b805181602001fd5b6001600160e01b031916630a85bd0160e11b149050612281565b506001949350505050565b6129a28383612ca6565b6129af600084848461284c565b610d6e5760405162461bcd60e51b815260206004820152603260248201527f4552433732313a207472616e7366657220746f206e6f6e20455243373231526560448201527131b2b4bb32b91034b6b83632b6b2b73a32b960711b6064820152608401610ccd565b6000807a184f03e93ff9f4daa797ed6e38ed64bf6a1f0100000000000000008310612a5f577a184f03e93ff9f4daa797ed6e38ed64bf6a1f010000000000000000830492506040015b6d04ee2d6d415b85acef81000000008310612a8b576d04ee2d6d415b85acef8100000000830492506020015b662386f26fc100008310612aa957662386f26fc10000830492506010015b6305f5e1008310612ac1576305f5e100830492506008015b6127108310612ad557612710830492506004015b60648310612ae7576064830492506002015b600a8310610a985760010192915050565b6060610a986001600160a01b03831660145b60606000612b1983600261380a565b612b249060026136d2565b67ffffffffffffffff811115612b3c57612b3c6130c2565b6040519080825280601f01601f191660200182016040528015612b66576020820181803683370190505b509050600360fc1b81600081518110612b8157612b81613821565b60200101906001600160f81b031916908160001a905350600f60fb1b81600181518110612bb057612bb0613821565b60200101906001600160f81b031916908160001a9053506000612bd484600261380a565b612bdf9060016136d2565b90505b6001811115612c57576f181899199a1a9b1b9c1cb0b131b232b360811b85600f1660108110612c1357612c13613821565b1a60f81b828281518110612c2957612c29613821565b60200101906001600160f81b031916908160001a90535060049490941c93612c5081613837565b9050612be2565b508315611bac5760405162461bcd60e51b815260206004820181905260248201527f537472696e67733a20686578206c656e67746820696e73756666696369656e746044820152606401610ccd565b6001600160a01b038216612cfc5760405162461bcd60e51b815260206004820181905260248201527f4552433732313a206d696e7420746f20746865207a65726f20616464726573736044820152606401610ccd565b6000818152600260205260409020546001600160a01b031615612d615760405162461bcd60e51b815260206004820152601c60248201527f4552433732313a20746f6b656e20616c7265616479206d696e746564000000006044820152606401610ccd565b6000818152600260205260409020546001600160a01b031615612dc65760405162461bcd60e51b815260206004820152601c60248201527f4552433732313a20746f6b656e20616c7265616479206d696e746564000000006044820152606401610ccd565b6001600160a01b038216600081815260036020908152604080832080546001019055848352600290915280822080546001600160a01b0319168417905551839291907fddf252ad1be2c89b69c2b068fc378daa952ba7f163c4a11628f55a4df523b3ef908290a45050565b604080516101408101909152606060c0820181815260e0830182905261010083019190915260006101208301528190815260200160608152602001606081526020016000815260200160008152602001612eba6040518060c001604052806060815260200160008152602001606081526020016060815260200160008152602001600081525090565b905290565b600060208284031215612ed157600080fd5b5035919050565b60005b83811015612ef3578181015183820152602001612edb565b50506000910152565b60008151808452612f14816020860160208601612ed8565b601f01601f19169290920160200192915050565b6000815160808452612f3d6080850182612efc565b905060208301518482036020860152612f568282612efc565b91505060408301518482036040860152612f708282612efc565b91505060ff60608401511660608501528091505092915050565b6000815160c08452612f9f60c0850182612efc565b90506020830151602085015260408301518482036040860152612fc28282612efc565b91505060608301518482036060860152612fdc8282612efc565b9150506080830151608085015260a083015160a08501528091505092915050565b602081526000825160c0602084015261301960e0840182612f28565b90506020840151601f19808584030160408601526130378383612efc565b925060408601519150808584030160608601526130548383612efc565b925060608601516080860152608086015160a086015260a08601519150808584030160c0860152506130868282612f8a565b95945050505050565b6001600160e01b03198116811461211057600080fd5b6000602082840312156130b757600080fd5b8135611bac8161308f565b634e487b7160e01b600052604160045260246000fd5b600067ffffffffffffffff808411156130f3576130f36130c2565b604051601f8501601f19908116603f0116810190828211818310171561311b5761311b6130c2565b8160405280935085815286868601111561313457600080fd5b858560208301376000602087830101525050509392505050565b600082601f83011261315f57600080fd5b611bac838335602085016130d8565b600080600080600080600060e0888a03121561318957600080fd5b87359650602088013567ffffffffffffffff808211156131a857600080fd5b6131b48b838c0161314e565b975060408a0135965060608a01359150808211156131d157600080fd5b6131dd8b838c0161314e565b955060808a01359150808211156131f357600080fd5b506132008a828b0161314e565b93505060a0880135915060c0880135905092959891949750929550565b602081526000611bac6020830184612efc565b80356001600160a01b038116811461324757600080fd5b919050565b6000806040838503121561325f57600080fd5b61326883613230565b946020939093013593505050565b60008060006060848603121561328b57600080fd5b61329484613230565b92506132a260208501613230565b9150604084013590509250925092565b600080604083850312156132c557600080fd5b823591506132d560208401613230565b90509250929050565b60c0815260006132f160c0830189612f28565b82810360208401526133038189612efc565b905082810360408401526133178188612efc565b905085606084015284608084015282810360a08401526133378185612f8a565b9998505050505050505050565b60006020828403121561335657600080fd5b813567ffffffffffffffff81111561336d57600080fd5b6122818482850161314e565b60006020828403121561338b57600080fd5b611bac82613230565b600080604083850312156133a757600080fd5b6133b083613230565b9150602083013580151581146133c557600080fd5b809150509250929050565b600080600080608085870312156133e657600080fd5b6133ef85613230565b93506133fd60208601613230565b925060408501359150606085013567ffffffffffffffff81111561342057600080fd5b8501601f8101871361343157600080fd5b613440878235602084016130d8565b91505092959194509250565b803560ff8116811461324757600080fd5b600080600080600080600060e0888a03121561347857600080fd5b61348188613230565b9650602088013567ffffffffffffffff8082111561349e57600080fd5b6134aa8b838c0161314e565b975060408a01359150808211156134c057600080fd5b6134cc8b838c0161314e565b965060608a01359150808211156134e257600080fd5b6134ee8b838c0161314e565b955060808a013591508082111561350457600080fd5b6135108b838c0161314e565b945060a08a013591508082111561352657600080fd5b506135338a828b0161314e565b92505061354260c0890161344c565b905092959891949750929550565b6000806040838503121561356357600080fd5b61356c83613230565b91506132d560208401613230565b600181811c9082168061358e57607f821691505b602082108103610a8757634e487b7160e01b600052602260045260246000fd5b601f821115610d6e57600081815260208120601f850160051c810160208610156135d55750805b601f850160051c820191505b818110156135f4578281556001016135e1565b505050505050565b815167ffffffffffffffff811115613616576136166130c2565b61362a81613624845461357a565b846135ae565b602080601f83116001811461365f57600084156136475750858301515b600019600386901b1c1916600185901b1785556135f4565b600085815260208120601f198616915b8281101561368e5788860151825594840194600190910190840161366f565b50858210156136ac5787850151600019600388901b60f8161c191681555b5050505050600190811b01905550565b634e487b7160e01b600052601160045260246000fd5b80820180821115610a9857610a986136bc565b600082516136f7818460208701612ed8565b9190910192915050565b60008351613713818460208801612ed8565b835190830190613727818360208801612ed8565b01949350505050565b7f416363657373436f6e74726f6c3a206163636f756e7420000000000000000000815260008351613768816017850160208801612ed8565b7f206973206d697373696e6720726f6c652000000000000000000000000000000060179184019182015283516137a5816028840160208801612ed8565b01602801949350505050565b60006001600160a01b038087168352808616602084015250836040830152608060608301526137e36080830184612efc565b9695505050505050565b6000602082840312156137ff57600080fd5b8151611bac8161308f565b8082028115828204841417610a9857610a986136bc565b634e487b7160e01b600052603260045260246000fd5b600081613846576138466136bc565b50600019019056fea26469706673582212203a3cf50d3a347f1b825a6ac9a71628a5ed601b02b85f2f13e4ac2b546ab2435a64736f6c63430008140033",
    "linkReferences": {}
  },
  "methodIdentifiers": {
    "DEFAULT_ADMIN_ROLE()": "a217fddf",
    "bajaEmpleado(address)": "d73ea35a",
    "cambioDireccion(uint256,string,uint256,string,string,uint256,uint256)": "2f2a6279",
    "crearCredencial(address,string,string,string,string,string,uint8)": "791d08bc",
    "getRoleAdmin(bytes32)": "248a9ca3",
    "grantRole(bytes32,address)": "2f2ff15d",
    "hasRole(bytes32,address)": "91d14854",
    "nuevoEmpleado(address,uint8,string,string,string,string)": "201ce19a",
    "recontratoEmpleado(address,uint8)": "6c596626",
    "renounceRole(bytes32,address)": "36568abe",
    "renuevaVigencia(uint256)": "6d97e426",
    "revokeRole(bytes32,address)": "d547741f",
    "supportsInterface(bytes4)": "01ffc9a7",
    "verAddressCredecialDigital()": "51294d57",
    "verAddressSistemaPermisos()": "1d55f23f",
    "verDatosEmpleado(address)": "a90d7a33",
    "verDatosPersonales()": "9345b6c2"
  },
  "id": 35
}