{
  "abi": [
    {
      "inputs": [
        {
          "internalType": "address",
          "name": "_adminAddress",
          "type": "address"
        },
        {
          "internalType": "string",
          "name": "_rfc",
          "type": "string"
        },
        {
          "internalType": "string",
          "name": "_nombre",
          "type": "string"
        },
        {
          "internalType": "string",
          "name": "_telefono",
          "type": "string"
        },
        {
          "internalType": "string",
          "name": "_email",
          "type": "string"
        }
      ],
      "stateMutability": "nonpayable",
      "type": "constructor"
    },
    {
      "inputs": [],
      "name": "InstitutoNacionalElectoral__AccesoDenegado",
      "type": "error"
    },
    {
      "inputs": [],
      "name": "InstitutoNacionalElectoral__AccesoDenegado_NoEsAdministrador",
      "type": "error"
    },
    {
      "inputs": [],
      "name": "InstitutoNacionalElectoral__AccesoDenegado_NoEsEmpleado",
      "type": "error"
    },
    {
      "inputs": [],
      "name": "InstitutoNacionalElectoral__EmpleadoDadoDeAlta",
      "type": "error"
    },
    {
      "inputs": [],
      "name": "InstitutoNacionalElectoral__EmpleadoDadoDeBaja",
      "type": "error"
    },
    {
      "inputs": [],
      "name": "InstitutoNacionalElectoral__EmpleadoNoRegistrado",
      "type": "error"
    },
    {
      "inputs": [],
      "name": "InstitutoNacionalElectoral__EmpleadoYaRegistrado",
      "type": "error"
    },
    {
      "inputs": [],
      "name": "InstitutoNacionalElectoral__NoAutoBaja",
      "type": "error"
    },
    {
      "inputs": [],
      "name": "InstitutoNacionalElectoral__RolInvalido",
      "type": "error"
    },
    {
      "anonymous": false,
      "inputs": [
        {
          "indexed": true,
          "internalType": "uint256",
          "name": "fechaBaja",
          "type": "uint256"
        },
        {
          "indexed": true,
          "internalType": "string",
          "name": "codigoEmpleado",
          "type": "string"
        },
        {
          "indexed": true,
          "internalType": "string",
          "name": "asignacion",
          "type": "string"
        }
      ],
      "name": "InstitutoNacionalElectoral_Event_BajaEmpleado",
      "type": "event"
    },
    {
      "anonymous": false,
      "inputs": [
        {
          "indexed": true,
          "internalType": "string",
          "name": "codigoEmpleado",
          "type": "string"
        },
        {
          "indexed": true,
          "internalType": "string",
          "name": "asignacion",
          "type": "string"
        },
        {
          "indexed": true,
          "internalType": "uint256",
          "name": "fechaAlta",
          "type": "uint256"
        }
      ],
      "name": "InstitutoNacionalElectoral_Event_NuevoEmpleado",
      "type": "event"
    },
    {
      "anonymous": false,
      "inputs": [
        {
          "indexed": true,
          "internalType": "string",
          "name": "codigoEmpleado",
          "type": "string"
        },
        {
          "indexed": true,
          "internalType": "string",
          "name": "asignacion",
          "type": "string"
        },
        {
          "indexed": true,
          "internalType": "uint256",
          "name": "fechaAlta",
          "type": "uint256"
        }
      ],
      "name": "InstitutoNacionalElectoral_Event_RecontratoEmpleado",
      "type": "event"
    },
    {
      "anonymous": false,
      "inputs": [
        {
          "indexed": true,
          "internalType": "bytes32",
          "name": "role",
          "type": "bytes32"
        },
        {
          "indexed": true,
          "internalType": "bytes32",
          "name": "previousAdminRole",
          "type": "bytes32"
        },
        {
          "indexed": true,
          "internalType": "bytes32",
          "name": "newAdminRole",
          "type": "bytes32"
        }
      ],
      "name": "RoleAdminChanged",
      "type": "event"
    },
    {
      "anonymous": false,
      "inputs": [
        {
          "indexed": true,
          "internalType": "bytes32",
          "name": "role",
          "type": "bytes32"
        },
        {
          "indexed": true,
          "internalType": "address",
          "name": "account",
          "type": "address"
        },
        {
          "indexed": true,
          "internalType": "address",
          "name": "sender",
          "type": "address"
        }
      ],
      "name": "RoleGranted",
      "type": "event"
    },
    {
      "anonymous": false,
      "inputs": [
        {
          "indexed": true,
          "internalType": "bytes32",
          "name": "role",
          "type": "bytes32"
        },
        {
          "indexed": true,
          "internalType": "address",
          "name": "account",
          "type": "address"
        },
        {
          "indexed": true,
          "internalType": "address",
          "name": "sender",
          "type": "address"
        }
      ],
      "name": "RoleRevoked",
      "type": "event"
    },
    {
      "inputs": [],
      "name": "DEFAULT_ADMIN_ROLE",
      "outputs": [
        {
          "internalType": "bytes32",
          "name": "",
          "type": "bytes32"
        }
      ],
      "stateMutability": "view",
      "type": "function"
    },
    {
      "inputs": [
        {
          "internalType": "address",
          "name": "_direccionEmpleado",
          "type": "address"
        }
      ],
      "name": "bajaEmpleado",
      "outputs": [],
      "stateMutability": "nonpayable",
      "type": "function"
    },
    {
      "inputs": [
        {
          "internalType": "uint256",
          "name": "idCredencial",
          "type": "uint256"
        },
        {
          "internalType": "string",
          "name": "calle",
          "type": "string"
        },
        {
          "internalType": "uint256",
          "name": "numeroExterior",
          "type": "uint256"
        },
        {
          "internalType": "string",
          "name": "numeroInterior",
          "type": "string"
        },
        {
          "internalType": "string",
          "name": "colonia",
          "type": "string"
        },
        {
          "internalType": "uint256",
          "name": "codigoPostal",
          "type": "uint256"
        },
        {
          "internalType": "uint256",
          "name": "seccion",
          "type": "uint256"
        }
      ],
      "name": "cambioDireccion",
      "outputs": [],
      "stateMutability": "nonpayable",
      "type": "function"
    },
    {
      "inputs": [
        {
          "internalType": "address",
          "name": "to",
          "type": "address"
        },
        {
          "internalType": "string",
          "name": "nombre",
          "type": "string"
        },
        {
          "internalType": "string",
          "name": "apellidoPaterno",
          "type": "string"
        },
        {
          "internalType": "string",
          "name": "apellidoMaterno",
          "type": "string"
        },
        {
          "internalType": "string",
          "name": "claveElector",
          "type": "string"
        },
        {
          "internalType": "string",
          "name": "curp",
          "type": "string"
        },
        {
          "internalType": "uint8",
          "name": "generoBiologico",
          "type": "uint8"
        }
      ],
      "name": "crearCredencial",
      "outputs": [
        {
          "internalType": "uint256",
          "name": "idCredencial",
          "type": "uint256"
        }
      ],
      "stateMutability": "nonpayable",
      "type": "function"
    },
    {
      "inputs": [
        {
          "internalType": "bytes32",
          "name": "role",
          "type": "bytes32"
        }
      ],
      "name": "getRoleAdmin",
      "outputs": [
        {
          "internalType": "bytes32",
          "name": "",
          "type": "bytes32"
        }
      ],
      "stateMutability": "view",
      "type": "function"
    },
    {
      "inputs": [
        {
          "internalType": "bytes32",
          "name": "role",
          "type": "bytes32"
        },
        {
          "internalType": "address",
          "name": "account",
          "type": "address"
        }
      ],
      "name": "grantRole",
      "outputs": [],
      "stateMutability": "nonpayable",
      "type": "function"
    },
    {
      "inputs": [
        {
          "internalType": "bytes32",
          "name": "role",
          "type": "bytes32"
        },
        {
          "internalType": "address",
          "name": "account",
          "type": "address"
        }
      ],
      "name": "hasRole",
      "outputs": [
        {
          "internalType": "bool",
          "name": "",
          "type": "bool"
        }
      ],
      "stateMutability": "view",
      "type": "function"
    },
    {
      "inputs": [
        {
          "internalType": "address",
          "name": "_direccionEmpleado",
          "type": "address"
        },
        {
          "internalType": "uint8",
          "name": "_rolEmpleado",
          "type": "uint8"
        },
        {
          "internalType": "string",
          "name": "_nombre",
          "type": "string"
        },
        {
          "internalType": "string",
          "name": "_rfc",
          "type": "string"
        },
        {
          "internalType": "string",
          "name": "_telefono",
          "type": "string"
        },
        {
          "internalType": "string",
          "name": "_email",
          "type": "string"
        }
      ],
      "name": "nuevoEmpleado",
      "outputs": [],
      "stateMutability": "nonpayable",
      "type": "function"
    },
    {
      "inputs": [
        {
          "internalType": "address",
          "name": "_direccionExEmpleado",
          "type": "address"
        },
        {
          "internalType": "uint8",
          "name": "_rolEmpleado",
          "type": "uint8"
        }
      ],
      "name": "recontratoEmpleado",
      "outputs": [],
      "stateMutability": "nonpayable",
      "type": "function"
    },
    {
      "inputs": [
        {
          "internalType": "bytes32",
          "name": "role",
          "type": "bytes32"
        },
        {
          "internalType": "address",
          "name": "account",
          "type": "address"
        }
      ],
      "name": "renounceRole",
      "outputs": [],
      "stateMutability": "nonpayable",
      "type": "function"
    },
    {
      "inputs": [
        {
          "internalType": "bytes32",
          "name": "role",
          "type": "bytes32"
        },
        {
          "internalType": "address",
          "name": "account",
          "type": "address"
        }
      ],
      "name": "revokeRole",
      "outputs": [],
      "stateMutability": "nonpayable",
      "type": "function"
    },
    {
      "inputs": [
        {
          "internalType": "bytes4",
          "name": "interfaceId",
          "type": "bytes4"
        }
      ],
      "name": "supportsInterface",
      "outputs": [
        {
          "internalType": "bool",
          "name": "",
          "type": "bool"
        }
      ],
      "stateMutability": "view",
      "type": "function"
    },
    {
      "inputs": [],
      "name": "verAddressCredecialDigital",
      "outputs": [
        {
          "internalType": "address",
          "name": "addressCredencialDigital",
          "type": "address"
        }
      ],
      "stateMutability": "view",
      "type": "function"
    },
    {
      "inputs": [],
      "name": "verAddressSistemaPermisos",
      "outputs": [
        {
          "internalType": "address",
          "name": "addressSistemaPermisos",
          "type": "address"
        }
      ],
      "stateMutability": "view",
      "type": "function"
    },
    {
      "inputs": [
        {
          "internalType": "address",
          "name": "_direccionEmpleado",
          "type": "address"
        }
      ],
      "name": "verDatosEmpleado",
      "outputs": [
        {
          "components": [
            {
              "internalType": "uint8",
              "name": "areaTrabajo",
              "type": "uint8"
            },
            {
              "internalType": "string",
              "name": "nombre",
              "type": "string"
            },
            {
              "internalType": "string",
              "name": "telefono",
              "type": "string"
            },
            {
              "internalType": "string",
              "name": "email",
              "type": "string"
            },
            {
              "internalType": "bool",
              "name": "status",
              "type": "bool"
            },
            {
              "internalType": "uint256",
              "name": "fechaAlta",
              "type": "uint256"
            },
            {
              "internalType": "uint256",
              "name": "fechaBaja",
              "type": "uint256"
            }
          ],
          "internalType": "struct InstitutoNacionalElectoral.Empleado",
          "name": "metadataEmpleado",
          "type": "tuple"
        }
      ],
      "stateMutability": "view",
      "type": "function"
    },
    {
      "inputs": [],
      "name": "verDatosPersonales",
      "outputs": [
        {
          "components": [
            {
              "internalType": "uint8",
              "name": "areaTrabajo",
              "type": "uint8"
            },
            {
              "internalType": "string",
              "name": "nombre",
              "type": "string"
            },
            {
              "internalType": "string",
              "name": "telefono",
              "type": "string"
            },
            {
              "internalType": "string",
              "name": "email",
              "type": "string"
            },
            {
              "internalType": "bool",
              "name": "status",
              "type": "bool"
            },
            {
              "internalType": "uint256",
              "name": "fechaAlta",
              "type": "uint256"
            },
            {
              "internalType": "uint256",
              "name": "fechaBaja",
              "type": "uint256"
            }
          ],
          "internalType": "struct InstitutoNacionalElectoral.Empleado",
          "name": "metadataEmpleado",
          "type": "tuple"
        }
      ],
      "stateMutability": "view",
      "type": "function"
    }
  ],
  "bytecode": {
    "object": "0x60806040523480156200001157600080fd5b506040516200737f3803806200737f8339810160408190526200003491620003fb565b6040805160e0810182526001808252602082018690528183018590526060820184905260808201524260a0820152600060c082015290516005906200007b908790620004d5565b908152604051602091819003820190208251815460ff191660ff909116178155908201516001820190620000b0908262000582565b5060408201516002820190620000c7908262000582565b5060608201516003820190620000de908262000582565b50608082015160048201805460ff191691151591909117905560a0820151600582015560c0909101516006918201556001600160a01b03861660009081526020919091526040902062000132858262000582565b506200015f7fe35d8ac66531db3bceb0b6bbf69035a0ff45320ad9446da2273032d07d3450cc8662000271565b6040516200016d9062000312565b604051809103906000f0801580156200018a573d6000803e3d6000fd5b50600480546001600160a01b0319166001600160a01b039290921691821790556040513090620001ba9062000320565b6001600160a01b03928316815291166020820152604001604051809103906000f080158015620001ee573d6000803e3d6000fd5b50600380546001600160a01b0319166001600160a01b039283169081179091556004805460405163c8ea404760e01b81529182019290925291169063c8ea404790602401600060405180830381600087803b1580156200024d57600080fd5b505af115801562000262573d6000803e3d6000fd5b5050505050505050506200064e565b6000828152602081815260408083206001600160a01b038516845290915290205460ff166200030e576000828152602081815260408083206001600160a01b03851684529091529020805460ff19166001179055620002cd3390565b6001600160a01b0316816001600160a01b0316837f2f8788117e7eff1d82e926ec794901d17c78024a50270940304540a733656f0d60405160405180910390a45b5050565b6113dd806200265b83390190565b6139478062003a3883390190565b634e487b7160e01b600052604160045260246000fd5b60005b838110156200036157818101518382015260200162000347565b50506000910152565b600082601f8301126200037c57600080fd5b81516001600160401b03808211156200039957620003996200032e565b604051601f8301601f19908116603f01168101908282118183101715620003c457620003c46200032e565b81604052838152866020858801011115620003de57600080fd5b620003f184602083016020890162000344565b9695505050505050565b600080600080600060a086880312156200041457600080fd5b85516001600160a01b03811681146200042c57600080fd5b60208701519095506001600160401b03808211156200044a57600080fd5b6200045889838a016200036a565b955060408801519150808211156200046f57600080fd5b6200047d89838a016200036a565b945060608801519150808211156200049457600080fd5b620004a289838a016200036a565b93506080880151915080821115620004b957600080fd5b50620004c8888289016200036a565b9150509295509295909350565b60008251620004e981846020870162000344565b9190910192915050565b600181811c908216806200050857607f821691505b6020821081036200052957634e487b7160e01b600052602260045260246000fd5b50919050565b601f8211156200057d57600081815260208120601f850160051c81016020861015620005585750805b601f850160051c820191505b81811015620005795782815560010162000564565b5050505b505050565b81516001600160401b038111156200059e576200059e6200032e565b620005b681620005af8454620004f3565b846200052f565b602080601f831160018114620005ee5760008415620005d55750858301515b600019600386901b1c1916600185901b17855562000579565b600085815260208120601f198616915b828110156200061f57888601518255948401946001909101908401620005fe565b50858210156200063e5787850151600019600388901b60f8161c191681555b5050505050600190811b01905550565b611ffd806200065e6000396000f3fe608060405234801561001057600080fd5b50600436106101005760003560e01c80636c59662611610097578063a217fddf11610066578063a217fddf14610254578063a90d7a331461025c578063d547741f1461026f578063d73ea35a1461028257600080fd5b80636c596626146101e2578063791d08bc146101f557806391d14854146102085780639345b6c21461023f57600080fd5b80632f2a6279116100d35780632f2a6279146101985780632f2ff15d146101ab57806336568abe146101be57806351294d57146101d157600080fd5b806301ffc9a7146101055780631d55f23f1461012d578063201ce19a14610152578063248a9ca314610167575b600080fd5b610118610113366004611794565b610295565b60405190151581526020015b60405180910390f35b6004546001600160a01b03165b6040516001600160a01b039091168152602001610124565b610165610160366004611889565b6102cc565b005b61018a610175366004611956565b60009081526020819052604090206001015490565b604051908152602001610124565b6101656101a636600461196f565b6104f8565b6101656101b9366004611a1e565b6105be565b6101656101cc366004611a1e565b6105e8565b6003546001600160a01b031661013a565b6101656101f0366004611a4a565b610679565b61018a610203366004611a74565b610a09565b610118610216366004611a1e565b6000918252602082815260408084206001600160a01b0393909316845291905290205460ff1690565b610247610ae3565b6040516101249190611bb7565b61018a600081565b61024761026a366004611c4a565b610dd5565b61016561027d366004611a1e565b611122565b610165610290366004611c4a565b611147565b60006001600160e01b03198216637965db0b60e01b14806102c657506301ffc9a760e01b6001600160e01b03198316145b92915050565b3360009081527f43d9bcc3e75b31d3a5a66c9de8767582143de96356317bb53b8fd8128764f3b1602052604090205460ff1661031b5760405163bed2ff5960e01b815260040160405180910390fd5b60058360405161032b9190611c65565b9081526040519081900360200190205460ff161561035c576040516349a9eafd60e11b815260040160405180910390fd5b8460ff1660011415801561037457508460ff16600214155b1561039257604051630e0e48e160e01b815260040160405180910390fd5b8460ff166001036103cc576103c77fe35d8ac66531db3bceb0b6bbf69035a0ff45320ad9446da2273032d07d3450cc87611435565b6103f6565b6103f67fc349c7ca7a8e5ecbb1a9a2129910e4c9719b0d416ab19defc891f7e31a44336387611435565b6040518060e001604052808660ff16815260200185815260200183815260200182815260200160011515815260200142815260200160008152506005846040516104409190611c65565b908152604051602091819003820190208251815460ff191660ff9091161781559082015160018201906104739082611d09565b50604082015160028201906104889082611d09565b506060820151600382019061049d9082611d09565b50608082015160048201805460ff191691151591909117905560a0820151600582015560c0909101516006918201556001600160a01b0387166000908152602091909152604090206104ef8482611d09565b50505050505050565b3360009081527fd558806936149ff23d238e5e33f1d0283c3b940ed334137c4ff5fc5052f89b39602052604090205460ff166105475760405163c3ec44d560e01b815260040160405180910390fd5b60035460405163019f745560e11b81526001600160a01b039091169063033ee8aa90610583908a908a908a908a908a908a908a90600401611dc9565b600060405180830381600087803b15801561059d57600080fd5b505af11580156105b1573d6000803e3d6000fd5b5050505050505050505050565b6000828152602081905260409020600101546105d9816114d3565b6105e38383611435565b505050565b6001600160a01b038116331461066b5760405162461bcd60e51b815260206004820152602f60248201527f416363657373436f6e74726f6c3a2063616e206f6e6c792072656e6f756e636560448201527f20726f6c657320666f722073656c66000000000000000000000000000000000060648201526084015b60405180910390fd5b61067582826114e0565b5050565b3360009081527f43d9bcc3e75b31d3a5a66c9de8767582143de96356317bb53b8fd8128764f3b1602052604090205460ff166106c85760405163bed2ff5960e01b815260040160405180910390fd5b8060ff166001141580156106e057508060ff16600214155b156106fe57604051630e0e48e160e01b815260040160405180910390fd5b6001600160a01b0382166000908152600660205260408120805461072190611c81565b80601f016020809104026020016040519081016040528092919081815260200182805461074d90611c81565b801561079a5780601f1061076f5761010080835404028352916020019161079a565b820191906000526020600020905b81548152906001019060200180831161077d57829003601f168201915b505050505090506005816040516107b19190611c65565b9081526040519081900360200190206004015460ff1615156001036107e957604051637a87b72760e11b815260040160405180910390fd5b6005816040516107f99190611c65565b9081526040519081900360200190205460ff1660000361082c576040516301ce348560e01b815260040160405180910390fd5b8160ff166001036108c7576108617fe35d8ac66531db3bceb0b6bbf69035a0ff45320ad9446da2273032d07d3450cc84611435565b6040516c20b236b4b734b9ba3930b237b960991b81524290600d016040518091039020826040516108929190611c65565b604051908190038120907f6898c657e18c5d15d1d5461b2a427b0a146ac9162e247972b17b02c96759c68290600090a461094e565b6108f17fc349c7ca7a8e5ecbb1a9a2129910e4c9719b0d416ab19defc891f7e31a44336384611435565b60405167456d706c6561646f60c01b8152429060080160405180910390208260405161091d9190611c65565b604051908190038120907f6898c657e18c5d15d1d5461b2a427b0a146ac9162e247972b17b02c96759c68290600090a45b60016005826040516109609190611c65565b908152604051908190036020018120600401805492151560ff19909316929092179091554290600590610994908490611c65565b90815260200160405180910390206005018190555060006005826040516109bb9190611c65565b908152602001604051809103902060060181905550816005826040516109e19190611c65565b908152604051908190036020019020805460ff9290921660ff19909216919091179055505050565b3360009081527fd558806936149ff23d238e5e33f1d0283c3b940ed334137c4ff5fc5052f89b39602052604081205460ff16610a585760405163c3ec44d560e01b815260040160405180910390fd5b60035460405163c2c4687360e01b81526001600160a01b039091169063c2c4687390610a94908b908b908b908b908b908b908b90600401611e25565b6020604051808303816000875af1158015610ab3573d6000803e3d6000fd5b505050506040513d601f19601f82011682018060405250810190610ad79190611ead565b98975050505050505050565b610b286040518060e00160405280600060ff16815260200160608152602001606081526020016060815260200160001515815260200160008152602001600081525090565b3360009081526006602052604081208054610b4290611c81565b80601f0160208091040260200160405190810160405280929190818152602001828054610b6e90611c81565b8015610bbb5780601f10610b9057610100808354040283529160200191610bbb565b820191906000526020600020905b815481529060010190602001808311610b9e57829003601f168201915b50505050509050600581604051610bd29190611c65565b90815260408051918290036020908101832060e08401909252815460ff16835260018201805491840191610c0590611c81565b80601f0160208091040260200160405190810160405280929190818152602001828054610c3190611c81565b8015610c7e5780601f10610c5357610100808354040283529160200191610c7e565b820191906000526020600020905b815481529060010190602001808311610c6157829003601f168201915b50505050508152602001600282018054610c9790611c81565b80601f0160208091040260200160405190810160405280929190818152602001828054610cc390611c81565b8015610d105780601f10610ce557610100808354040283529160200191610d10565b820191906000526020600020905b815481529060010190602001808311610cf357829003601f168201915b50505050508152602001600382018054610d2990611c81565b80601f0160208091040260200160405190810160405280929190818152602001828054610d5590611c81565b8015610da25780601f10610d7757610100808354040283529160200191610da2565b820191906000526020600020905b815481529060010190602001808311610d8557829003601f168201915b5050509183525050600482015460ff16151560208201526005820154604082015260069091015460609091015292915050565b610e1a6040518060e00160405280600060ff16815260200160608152602001606081526020016060815260200160001515815260200160008152602001600081525090565b3360009081527f43d9bcc3e75b31d3a5a66c9de8767582143de96356317bb53b8fd8128764f3b1602052604090205460ff16610e695760405163bed2ff5960e01b815260040160405180910390fd5b6001600160a01b03821660009081526006602052604081208054610e8c90611c81565b80601f0160208091040260200160405190810160405280929190818152602001828054610eb890611c81565b8015610f055780601f10610eda57610100808354040283529160200191610f05565b820191906000526020600020905b815481529060010190602001808311610ee857829003601f168201915b50505050509050600581604051610f1c9190611c65565b90815260408051918290036020908101832060e08401909252815460ff16835260018201805491840191610f4f90611c81565b80601f0160208091040260200160405190810160405280929190818152602001828054610f7b90611c81565b8015610fc85780601f10610f9d57610100808354040283529160200191610fc8565b820191906000526020600020905b815481529060010190602001808311610fab57829003601f168201915b50505050508152602001600282018054610fe190611c81565b80601f016020809104026020016040519081016040528092919081815260200182805461100d90611c81565b801561105a5780601f1061102f5761010080835404028352916020019161105a565b820191906000526020600020905b81548152906001019060200180831161103d57829003601f168201915b5050505050815260200160038201805461107390611c81565b80601f016020809104026020016040519081016040528092919081815260200182805461109f90611c81565b80156110ec5780601f106110c1576101008083540402835291602001916110ec565b820191906000526020600020905b8154815290600101906020018083116110cf57829003601f168201915b5050509183525050600482015460ff1615156020820152600582015460408201526006909101546060909101529150505b919050565b60008281526020819052604090206001015461113d816114d3565b6105e383836114e0565b3360009081527f43d9bcc3e75b31d3a5a66c9de8767582143de96356317bb53b8fd8128764f3b1602052604090205460ff166111965760405163bed2ff5960e01b815260040160405180910390fd5b336001600160a01b038216036111bf576040516355d939df60e11b815260040160405180910390fd5b6001600160a01b038116600090815260066020526040812080546111e290611c81565b80601f016020809104026020016040519081016040528092919081815260200182805461120e90611c81565b801561125b5780601f106112305761010080835404028352916020019161125b565b820191906000526020600020905b81548152906001019060200180831161123e57829003601f168201915b505050505090506005816040516112729190611c65565b9081526040519081900360200190205460ff166000036112a5576040516301ce348560e01b815260040160405180910390fd5b6005816040516112b59190611c65565b9081526040519081900360200190206004015460ff1615156000036112ed57604051632f71371d60e11b815260040160405180910390fd5b6005816040516112fd9190611c65565b9081526040519081900360200190205460ff16600103611346576113417fe35d8ac66531db3bceb0b6bbf69035a0ff45320ad9446da2273032d07d3450cc836114e0565b611370565b6113707fc349c7ca7a8e5ecbb1a9a2129910e4c9719b0d416ab19defc891f7e31a443363836114e0565b60006005826040516113829190611c65565b908152604051908190036020018120600401805492151560ff199093169290921790915542906005906113b6908490611c65565b908152604051908190036020018120600601919091556113e9906c20b236b4b734b9ba3930b237b960991b8152600d0190565b6040518091039020816040516113ff9190611c65565b6040519081900381209042907fab226b91710fa71f572f7490740f79997e7fc669308cc89d5e31d29068df483490600090a45050565b6000828152602081815260408083206001600160a01b038516845290915290205460ff16610675576000828152602081815260408083206001600160a01b03851684529091529020805460ff1916600117905561148f3390565b6001600160a01b0316816001600160a01b0316837f2f8788117e7eff1d82e926ec794901d17c78024a50270940304540a733656f0d60405160405180910390a45050565b6114dd813361155f565b50565b6000828152602081815260408083206001600160a01b038516845290915290205460ff1615610675576000828152602081815260408083206001600160a01b0385168085529252808320805460ff1916905551339285917ff6391f5c32d9c69d2a47ea670b442974b53935d1edc7fd64eb21e047a839171b9190a45050565b6000828152602081815260408083206001600160a01b038516845290915290205460ff1661067557611590816115d2565b61159b8360206115e4565b6040516020016115ac929190611ec6565b60408051601f198184030181529082905262461bcd60e51b825261066291600401611f47565b60606102c66001600160a01b03831660145b606060006115f3836002611f70565b6115fe906002611f87565b67ffffffffffffffff811115611616576116166117e6565b6040519080825280601f01601f191660200182016040528015611640576020820181803683370190505b509050600360fc1b8160008151811061165b5761165b611f9a565b60200101906001600160f81b031916908160001a905350600f60fb1b8160018151811061168a5761168a611f9a565b60200101906001600160f81b031916908160001a90535060006116ae846002611f70565b6116b9906001611f87565b90505b600181111561173e577f303132333435363738396162636465660000000000000000000000000000000085600f16601081106116fa576116fa611f9a565b1a60f81b82828151811061171057611710611f9a565b60200101906001600160f81b031916908160001a90535060049490941c9361173781611fb0565b90506116bc565b50831561178d5760405162461bcd60e51b815260206004820181905260248201527f537472696e67733a20686578206c656e67746820696e73756666696369656e746044820152606401610662565b9392505050565b6000602082840312156117a657600080fd5b81356001600160e01b03198116811461178d57600080fd5b80356001600160a01b038116811461111d57600080fd5b803560ff8116811461111d57600080fd5b634e487b7160e01b600052604160045260246000fd5b600082601f83011261180d57600080fd5b813567ffffffffffffffff80821115611828576118286117e6565b604051601f8301601f19908116603f01168101908282118183101715611850576118506117e6565b8160405283815286602085880101111561186957600080fd5b836020870160208301376000602085830101528094505050505092915050565b60008060008060008060c087890312156118a257600080fd5b6118ab876117be565b95506118b9602088016117d5565b9450604087013567ffffffffffffffff808211156118d657600080fd5b6118e28a838b016117fc565b955060608901359150808211156118f857600080fd5b6119048a838b016117fc565b9450608089013591508082111561191a57600080fd5b6119268a838b016117fc565b935060a089013591508082111561193c57600080fd5b5061194989828a016117fc565b9150509295509295509295565b60006020828403121561196857600080fd5b5035919050565b600080600080600080600060e0888a03121561198a57600080fd5b87359650602088013567ffffffffffffffff808211156119a957600080fd5b6119b58b838c016117fc565b975060408a0135965060608a01359150808211156119d257600080fd5b6119de8b838c016117fc565b955060808a01359150808211156119f457600080fd5b50611a018a828b016117fc565b93505060a0880135915060c0880135905092959891949750929550565b60008060408385031215611a3157600080fd5b82359150611a41602084016117be565b90509250929050565b60008060408385031215611a5d57600080fd5b611a66836117be565b9150611a41602084016117d5565b600080600080600080600060e0888a031215611a8f57600080fd5b611a98886117be565b9650602088013567ffffffffffffffff80821115611ab557600080fd5b611ac18b838c016117fc565b975060408a0135915080821115611ad757600080fd5b611ae38b838c016117fc565b965060608a0135915080821115611af957600080fd5b611b058b838c016117fc565b955060808a0135915080821115611b1b57600080fd5b611b278b838c016117fc565b945060a08a0135915080821115611b3d57600080fd5b50611b4a8a828b016117fc565b925050611b5960c089016117d5565b905092959891949750929550565b60005b83811015611b82578181015183820152602001611b6a565b50506000910152565b60008151808452611ba3816020860160208601611b67565b601f01601f19169290920160200192915050565b6020815260ff82511660208201526000602083015160e06040840152611be1610100840182611b8b565b90506040840151601f1980858403016060860152611bff8383611b8b565b9250606086015191508085840301608086015250611c1d8282611b8b565b9150506080840151151560a084015260a084015160c084015260c084015160e08401528091505092915050565b600060208284031215611c5c57600080fd5b61178d826117be565b60008251611c77818460208701611b67565b9190910192915050565b600181811c90821680611c9557607f821691505b602082108103611cb557634e487b7160e01b600052602260045260246000fd5b50919050565b601f8211156105e357600081815260208120601f850160051c81016020861015611ce25750805b601f850160051c820191505b81811015611d0157828155600101611cee565b505050505050565b815167ffffffffffffffff811115611d2357611d236117e6565b611d3781611d318454611c81565b84611cbb565b602080601f831160018114611d6c5760008415611d545750858301515b600019600386901b1c1916600185901b178555611d01565b600085815260208120601f198616915b82811015611d9b57888601518255948401946001909101908401611d7c565b5085821015611db95787850151600019600388901b60f8161c191681555b5050505050600190811b01905550565b87815260e060208201526000611de260e0830189611b8b565b8760408401528281036060840152611dfa8188611b8b565b90508281036080840152611e0e8187611b8b565b60a0840195909552505060c0015295945050505050565b6001600160a01b038816815260e060208201526000611e4760e0830189611b8b565b8281036040840152611e598189611b8b565b90508281036060840152611e6d8188611b8b565b90508281036080840152611e818187611b8b565b905082810360a0840152611e958186611b8b565b91505060ff831660c083015298975050505050505050565b600060208284031215611ebf57600080fd5b5051919050565b7f416363657373436f6e74726f6c3a206163636f756e7420000000000000000000815260008351611efe816017850160208801611b67565b7f206973206d697373696e6720726f6c65200000000000000000000000000000006017918401918201528351611f3b816028840160208801611b67565b01602801949350505050565b60208152600061178d6020830184611b8b565b634e487b7160e01b600052601160045260246000fd5b80820281158282048414176102c6576102c6611f5a565b808201808211156102c6576102c6611f5a565b634e487b7160e01b600052603260045260246000fd5b600081611fbf57611fbf611f5a565b50600019019056fea2646970667358221220511959f7957f798122fcb1068201089c209a6d3d14a967be3ed61ff4db838fff64736f6c63430008140033608060405234801561001057600080fd5b5061001c60003361004b565b6100467fefde6635549760001b141816a6edeaa8c0fe3349291d719ba45d394133f239723361004b565b6100f7565b6100558282610059565b5050565b6000828152602081815260408083206001600160a01b038516845290915290205460ff16610055576000828152602081815260408083206001600160a01b03851684529091529020805460ff191660011790556100b33390565b6001600160a01b0316816001600160a01b0316837f2f8788117e7eff1d82e926ec794901d17c78024a50270940304540a733656f0d60405160405180910390a45050565b6112d7806101066000396000f3fe608060405234801561001057600080fd5b50600436106100b95760003560e01c806391d1485411610081578063b288c3901161005b578063b288c390146101f1578063c8ea404714610204578063d547741f1461021757600080fd5b806391d1485414610161578063a217fddf14610198578063b1be0f39146101a057600080fd5b806301ffc9a7146100be57806304ebab0f146100e6578063248a9ca3146101085780632f2ff15d1461013957806336568abe1461014e575b600080fd5b6100d16100cc366004610b95565b61022a565b60405190151581526020015b60405180910390f35b6100f96100f4366004610bbf565b610261565b6040516100dd93929190610c9b565b61012b610116366004610bbf565b60009081526020819052604090206001015490565b6040519081526020016100dd565b61014c610147366004610db6565b6104dd565b005b61014c61015c366004610db6565b610507565b6100d161016f366004610db6565b6000918252602082815260408084206001600160a01b0393909316845291905290205460ff1690565b61012b600081565b6101d86101ae366004610db6565b60036020908152600092835260408084209091529082529020805460019091015460ff9091169082565b6040805160ff90931683526020830191909152016100dd565b61014c6101ff366004610df5565b610598565b61014c610212366004610e3d565b6106fb565b61014c610225366004610db6565b610783565b60006001600160e01b03198216637965db0b60e01b148061025b57506301ffc9a760e01b6001600160e01b03198316145b92915050565b610269610b07565b600082815260036020908152604080832033845290915281206001015481904211156102a8576040516323d3c0ad60e01b815260040160405180910390fd5b600254604051630178fe3f60e01b8152600481018690526000916001600160a01b031690630178fe3f90602401600060405180830381865afa1580156102f2573d6000803e3d6000fd5b505050506040513d6000823e601f3d908101601f1916820160405261031a9190810190611096565b600086815260036020908152604080832033845290915290205490915060ff166001036103715760008581526003602090815260408083203384529091529020805460019091015491945060ff16925090506104d6565b600085815260036020908152604080832033845290915290205460ff16600203610401576040805160c08101825282518152602080840151818301528383015182840152606080850151908301526080808501519083015260a093840151938201939093526000878152600384528281203382529093529120805460019091015491945060ff16925090506104d6565b60008581526003602081815260408084203385529091529091205460ff1690036104d4576040805160c080820183528351825282516020808201855260008083528185019290925285850151848601526060808701518186015260809687015187860152855160e08101875293840183815284528382018390528551808301875283815284870152855180830187528381529084015294820181905260a0808301829052830191909152878152600384528281203382529093529120805460019091015491945060ff16925090506104d6565b505b9193909250565b6000828152602081905260409020600101546104f8816107a8565b61050283836107b5565b505050565b6001600160a01b038116331461058a5760405162461bcd60e51b815260206004820152602f60248201527f416363657373436f6e74726f6c3a2063616e206f6e6c792072656e6f756e636560448201527f20726f6c657320666f722073656c66000000000000000000000000000000000060648201526084015b60405180910390fd5b6105948282610853565b5050565b6001546040516331a9108f60e11b81526004810186905285916001600160a01b031690636352211e90602401602060405180830381865afa1580156105e1573d6000803e3d6000fd5b505050506040513d601f19601f820116820180604052508101906106059190611183565b6001600160a01b0316336001600160a01b031614610636576040516323d3c0ad60e01b815260040160405180910390fd5b60038460ff16111561065b57604051637465e66760e01b815260040160405180910390fd5b4282101561067c57604051637465e66760e01b815260040160405180910390fd5b60408051808201825260ff868116808352602080840187815260008b8152600383528681206001600160a01b038b1680835293528681209551865460ff1916951694909417855551600190940193909355925185917fa9d485811f688c06975ed22802a3f774b51f04c8dbbcbe0df0a55f0e3f72c73c91a45050505050565b3360009081527f5f46984ecd49a76f384c8a36037278248879a3da6569d8e7b0a9b5a53bc6f51e602052604090205460ff1661074a576040516323d3c0ad60e01b815260040160405180910390fd5b600180546001600160a01b0390921673ffffffffffffffffffffffffffffffffffffffff19928316811790915560028054909216179055565b60008281526020819052604090206001015461079e816107a8565b6105028383610853565b6107b281336108d2565b50565b6000828152602081815260408083206001600160a01b038516845290915290205460ff16610594576000828152602081815260408083206001600160a01b03851684529091529020805460ff1916600117905561080f3390565b6001600160a01b0316816001600160a01b0316837f2f8788117e7eff1d82e926ec794901d17c78024a50270940304540a733656f0d60405160405180910390a45050565b6000828152602081815260408083206001600160a01b038516845290915290205460ff1615610594576000828152602081815260408083206001600160a01b0385168085529252808320805460ff1916905551339285917ff6391f5c32d9c69d2a47ea670b442974b53935d1edc7fd64eb21e047a839171b9190a45050565b6000828152602081815260408083206001600160a01b038516845290915290205460ff166105945761090381610945565b61090e836020610957565b60405160200161091f9291906111a0565b60408051601f198184030181529082905262461bcd60e51b825261058191600401611221565b606061025b6001600160a01b03831660145b6060600061096683600261124a565b610971906002611261565b67ffffffffffffffff81111561098957610989610e5a565b6040519080825280601f01601f1916602001820160405280156109b3576020820181803683370190505b509050600360fc1b816000815181106109ce576109ce611274565b60200101906001600160f81b031916908160001a905350600f60fb1b816001815181106109fd576109fd611274565b60200101906001600160f81b031916908160001a9053506000610a2184600261124a565b610a2c906001611261565b90505b6001811115610ab1577f303132333435363738396162636465660000000000000000000000000000000085600f1660108110610a6d57610a6d611274565b1a60f81b828281518110610a8357610a83611274565b60200101906001600160f81b031916908160001a90535060049490941c93610aaa8161128a565b9050610a2f565b508315610b005760405162461bcd60e51b815260206004820181905260248201527f537472696e67733a20686578206c656e67746820696e73756666696369656e746044820152606401610581565b9392505050565b604080516101408101909152606060c0820181815260e0830182905261010083019190915260006101208301528190815260200160608152602001606081526020016000815260200160008152602001610b906040518060c001604052806060815260200160008152602001606081526020016060815260200160008152602001600081525090565b905290565b600060208284031215610ba757600080fd5b81356001600160e01b031981168114610b0057600080fd5b600060208284031215610bd157600080fd5b5035919050565b60005b83811015610bf3578181015183820152602001610bdb565b50506000910152565b60008151808452610c14816020860160208601610bd8565b601f01601f19169290920160200192915050565b6000815160c08452610c3d60c0850182610bfc565b90506020830151602085015260408301518482036040860152610c608282610bfc565b91505060608301518482036060860152610c7a8282610bfc565b9150506080830151608085015260a083015160a08501528091505092915050565b606081526000845160c0606084015280516080610120850152610cc26101a0850182610bfc565b9050602082015161011f198086840301610140870152610ce28383610bfc565b925060408401519150808684030161016087015250610d018282610bfc565b91505060ff60608301511661018085015260208701519150605f1980858303016080860152610d308284610bfc565b925060408801519150808584030160a0860152610d4d8383610bfc565b9250606088015160c0860152608088015160e086015260a08801519150808584030161010086015250610d808282610c28565b92505050610d93602083018560ff169052565b826040830152949350505050565b6001600160a01b03811681146107b257600080fd5b60008060408385031215610dc957600080fd5b823591506020830135610ddb81610da1565b809150509250929050565b60ff811681146107b257600080fd5b60008060008060808587031215610e0b57600080fd5b843593506020850135610e1d81610de6565b92506040850135610e2d81610da1565b9396929550929360600135925050565b600060208284031215610e4f57600080fd5b8135610b0081610da1565b634e487b7160e01b600052604160045260246000fd5b60405160c0810167ffffffffffffffff81118282101715610e9357610e93610e5a565b60405290565b600082601f830112610eaa57600080fd5b815167ffffffffffffffff80821115610ec557610ec5610e5a565b604051601f8301601f19908116603f01168101908282118183101715610eed57610eed610e5a565b81604052838152866020858801011115610f0657600080fd5b610f17846020830160208901610bd8565b9695505050505050565b600060808284031215610f3357600080fd5b6040516080810167ffffffffffffffff8282108183111715610f5757610f57610e5a565b816040528293508451915080821115610f6f57600080fd5b610f7b86838701610e99565b83526020850151915080821115610f9157600080fd5b610f9d86838701610e99565b60208401526040850151915080821115610fb657600080fd5b50610fc385828601610e99565b6040830152506060830151610fd781610de6565b6060919091015292915050565b600060c08284031215610ff657600080fd5b610ffe610e70565b9050815167ffffffffffffffff8082111561101857600080fd5b61102485838601610e99565b835260208401516020840152604084015191508082111561104457600080fd5b61105085838601610e99565b6040840152606084015191508082111561106957600080fd5b5061107684828501610e99565b6060830152506080820151608082015260a082015160a082015292915050565b6000602082840312156110a857600080fd5b815167ffffffffffffffff808211156110c057600080fd5b9083019060c082860312156110d457600080fd5b6110dc610e70565b8251828111156110eb57600080fd5b6110f787828601610f21565b82525060208301518281111561110c57600080fd5b61111887828601610e99565b60208301525060408301518281111561113057600080fd5b61113c87828601610e99565b604083015250606083015160608201526080830151608082015260a08301518281111561116857600080fd5b61117487828601610fe4565b60a08301525095945050505050565b60006020828403121561119557600080fd5b8151610b0081610da1565b7f416363657373436f6e74726f6c3a206163636f756e74200000000000000000008152600083516111d8816017850160208801610bd8565b7f206973206d697373696e6720726f6c65200000000000000000000000000000006017918401918201528351611215816028840160208801610bd8565b01602801949350505050565b602081526000610b006020830184610bfc565b634e487b7160e01b600052601160045260246000fd5b808202811582820484141761025b5761025b611234565b8082018082111561025b5761025b611234565b634e487b7160e01b600052603260045260246000fd5b60008161129957611299611234565b50600019019056fea2646970667358221220a670209889f425bc257c292ca96be9f5552b765dcf4f54679b737654e62571fa64736f6c6343000814003360806040523480156200001157600080fd5b5060405162003947380380620039478339810160408190526200003491620001ce565b6040518060400160405280601181526020017010dc9959195b98da585b111a59da5d185b607a1b81525060405180604001604052806003815260200162494e4560e81b81525081600090816200008b9190620002ab565b5060016200009a8282620002ab565b50620000ac915060009050826200010c565b620000d87f9f2df0fed2c77648de5860a4cc508cd0818c85b8b8a1ab4ceeef8d981c8956a6826200010c565b620001047fb6f6b279a7a4e2aa16012cbd36fcdc1fbdb91b92fd6dab57885c9de496473a8d836200010c565b505062000377565b60008281526006602090815260408083206001600160a01b038516845290915290205460ff16620001ad5760008281526006602090815260408083206001600160a01b03851684529091529020805460ff191660011790556200016c3390565b6001600160a01b0316816001600160a01b0316837f2f8788117e7eff1d82e926ec794901d17c78024a50270940304540a733656f0d60405160405180910390a45b5050565b80516001600160a01b0381168114620001c957600080fd5b919050565b60008060408385031215620001e257600080fd5b620001ed83620001b1565b9150620001fd60208401620001b1565b90509250929050565b634e487b7160e01b600052604160045260246000fd5b600181811c908216806200023157607f821691505b6020821081036200025257634e487b7160e01b600052602260045260246000fd5b50919050565b601f821115620002a657600081815260208120601f850160051c81016020861015620002815750805b601f850160051c820191505b81811015620002a2578281556001016200028d565b5050505b505050565b81516001600160401b03811115620002c757620002c762000206565b620002df81620002d884546200021c565b8462000258565b602080601f831160018114620003175760008415620002fe5750858301515b600019600386901b1c1916600185901b178555620002a2565b600085815260208120601f198616915b82811015620003485788860151825594840194600190910190840162000327565b5085821015620003675787850151600019600388901b60f8161c191681555b5050505050600190811b01905550565b6135c080620003876000396000f3fe608060405234801561001057600080fd5b50600436106101da5760003560e01c80636352211e11610104578063b162ff37116100a2578063d0e4e45d11610071578063d0e4e45d1461048a578063d539139314610492578063d547741f146104b9578063e985e9c5146104cc57600080fd5b8063b162ff371461043c578063b88d4fde14610451578063c2c4687314610464578063c87b56dd1461047757600080fd5b806391d14854116100de57806391d14854146103e057806395d89b4114610419578063a217fddf14610421578063a22cb4651461042957600080fd5b80636352211e146103a75780636d97e426146103ba57806370a08231146103cd57600080fd5b8063248a9ca31161017c57806341ad5e3d1161014b57806341ad5e3d1461032457806342842e0e146103495780635bdc847f1461035c578063600e5eba1461038757600080fd5b8063248a9ca3146102a65780632f2ff15d146102d757806336568abe146102ea5780633aeae31d146102fd57600080fd5b806306fdde03116101b857806306fdde0314610240578063081812fc14610255578063095ea7b31461028057806323b872dd1461029357600080fd5b80630178fe3f146101df57806301ffc9a714610208578063033ee8aa1461022b575b600080fd5b6101f26101ed366004612bfb565b610508565b6040516101ff9190612d39565b60405180910390f35b61021b610216366004612de1565b610a51565b60405190151581526020016101ff565b61023e610239366004612eaa565b610a62565b005b610248610b6a565b6040516101ff9190612f59565b610268610263366004612bfb565b610bfc565b6040516001600160a01b0390911681526020016101ff565b61023e61028e366004612f88565b610c23565b61023e6102a1366004612fb2565b610d3d565b6102c96102b4366004612bfb565b60009081526006602052604090206001015490565b6040519081526020016101ff565b61023e6102e5366004612fee565b610db4565b61023e6102f8366004612fee565b610dd9565b6102c97fb6f6b279a7a4e2aa16012cbd36fcdc1fbdb91b92fd6dab57885c9de496473a8d81565b610337610332366004612bfb565b610e65565b6040516101ff9695949392919061301a565b61023e610357366004612fb2565b611360565b6102c961036a366004613080565b805160208183018101805160098252928201919093012091525481565b6102c96103953660046130b5565b600a6020526000908152604090205481565b6102686103b5366004612bfb565b61137b565b61023e6103c8366004612bfb565b6113e0565b6102c96103db3660046130b5565b611462565b61021b6103ee366004612fee565b60009182526006602090815260408084206001600160a01b0393909316845291905290205460ff1690565b6102486114e8565b6102c9600081565b61023e6104373660046130d0565b6114f7565b336000908152600a60205260409020546102c9565b61023e61045f36600461310c565b611502565b6102c9610472366004613199565b611580565b610248610485366004612bfb565b61187b565b6101f26118ef565b6102c97f9f2df0fed2c77648de5860a4cc508cd0818c85b8b8a1ab4ceeef8d981c8956a681565b61023e6104c7366004612fee565b611e1d565b61021b6104da36600461328c565b6001600160a01b03918216600090815260056020908152604080832093909416825291909152205460ff1690565b610510612b6d565b7fb6f6b279a7a4e2aa16012cbd36fcdc1fbdb91b92fd6dab57885c9de496473a8d61053a81611e42565b60008381526008602052604090819020815161014081019092528054829060c082019083908290829061056c906132b6565b80601f0160208091040260200160405190810160405280929190818152602001828054610598906132b6565b80156105e55780601f106105ba576101008083540402835291602001916105e5565b820191906000526020600020905b8154815290600101906020018083116105c857829003601f168201915b505050505081526020016001820180546105fe906132b6565b80601f016020809104026020016040519081016040528092919081815260200182805461062a906132b6565b80156106775780601f1061064c57610100808354040283529160200191610677565b820191906000526020600020905b81548152906001019060200180831161065a57829003601f168201915b50505050508152602001600282018054610690906132b6565b80601f01602080910402602001604051908101604052809291908181526020018280546106bc906132b6565b80156107095780601f106106de57610100808354040283529160200191610709565b820191906000526020600020905b8154815290600101906020018083116106ec57829003601f168201915b50505091835250506003919091015460ff166020918201529082526004830180549290910191610738906132b6565b80601f0160208091040260200160405190810160405280929190818152602001828054610764906132b6565b80156107b15780601f10610786576101008083540402835291602001916107b1565b820191906000526020600020905b81548152906001019060200180831161079457829003601f168201915b505050505081526020016005820180546107ca906132b6565b80601f01602080910402602001604051908101604052809291908181526020018280546107f6906132b6565b80156108435780601f1061081857610100808354040283529160200191610843565b820191906000526020600020905b81548152906001019060200180831161082657829003601f168201915b505050505081526020016006820154815260200160078201548152602001600882016040518060c0016040529081600082018054610880906132b6565b80601f01602080910402602001604051908101604052809291908181526020018280546108ac906132b6565b80156108f95780601f106108ce576101008083540402835291602001916108f9565b820191906000526020600020905b8154815290600101906020018083116108dc57829003601f168201915b505050505081526020016001820154815260200160028201805461091c906132b6565b80601f0160208091040260200160405190810160405280929190818152602001828054610948906132b6565b80156109955780601f1061096a57610100808354040283529160200191610995565b820191906000526020600020905b81548152906001019060200180831161097857829003601f168201915b505050505081526020016003820180546109ae906132b6565b80601f01602080910402602001604051908101604052809291908181526020018280546109da906132b6565b8015610a275780601f106109fc57610100808354040283529160200191610a27565b820191906000526020600020905b815481529060010190602001808311610a0a57829003601f168201915b50505050508152602001600482015481526020016005820154815250508152505091505b50919050565b6000610a5c82611e4f565b92915050565b7f9f2df0fed2c77648de5860a4cc508cd0818c85b8b8a1ab4ceeef8d981c8956a6610a8c81611e42565b6000888152600860205260408120600601549003610abd57604051630bf4f16b60e31b815260040160405180910390fd5b6040518060c0016040528088815260200187815260200186815260200185815260200184815260200183815250600860008a81526020019081526020016000206008016000820151816000019081610b159190613338565b506020820151600182015560408201516002820190610b349082613338565b5060608201516003820190610b499082613338565b506080820151600482015560a0909101516005909101555050505050505050565b606060008054610b79906132b6565b80601f0160208091040260200160405190810160405280929190818152602001828054610ba5906132b6565b8015610bf25780601f10610bc757610100808354040283529160200191610bf2565b820191906000526020600020905b815481529060010190602001808311610bd557829003601f168201915b5050505050905090565b6000610c0782611e74565b506000908152600460205260409020546001600160a01b031690565b6000610c2e8261137b565b9050806001600160a01b0316836001600160a01b031603610ca05760405162461bcd60e51b815260206004820152602160248201527f4552433732313a20617070726f76616c20746f2063757272656e74206f776e656044820152603960f91b60648201526084015b60405180910390fd5b336001600160a01b0382161480610cbc5750610cbc81336104da565b610d2e5760405162461bcd60e51b815260206004820152603d60248201527f4552433732313a20617070726f76652063616c6c6572206973206e6f7420746f60448201527f6b656e206f776e6572206f7220617070726f76656420666f7220616c6c0000006064820152608401610c97565b610d388383611ed8565b505050565b610d473382611f46565b610da95760405162461bcd60e51b815260206004820152602d60248201527f4552433732313a2063616c6c6572206973206e6f7420746f6b656e206f776e6560448201526c1c881bdc88185c1c1c9bdd9959609a1b6064820152608401610c97565b610d38838383611fc5565b600082815260066020526040902060010154610dcf81611e42565b610d3883836121a5565b6001600160a01b0381163314610e575760405162461bcd60e51b815260206004820152602f60248201527f416363657373436f6e74726f6c3a2063616e206f6e6c792072656e6f756e636560448201527f20726f6c657320666f722073656c6600000000000000000000000000000000006064820152608401610c97565b610e618282612247565b5050565b600860205280600052604060002060009150905080600001604051806080016040529081600082018054610e98906132b6565b80601f0160208091040260200160405190810160405280929190818152602001828054610ec4906132b6565b8015610f115780601f10610ee657610100808354040283529160200191610f11565b820191906000526020600020905b815481529060010190602001808311610ef457829003601f168201915b50505050508152602001600182018054610f2a906132b6565b80601f0160208091040260200160405190810160405280929190818152602001828054610f56906132b6565b8015610fa35780601f10610f7857610100808354040283529160200191610fa3565b820191906000526020600020905b815481529060010190602001808311610f8657829003601f168201915b50505050508152602001600282018054610fbc906132b6565b80601f0160208091040260200160405190810160405280929190818152602001828054610fe8906132b6565b80156110355780601f1061100a57610100808354040283529160200191611035565b820191906000526020600020905b81548152906001019060200180831161101857829003601f168201915b50505091835250506003919091015460ff1660209091015260048201805491929161105f906132b6565b80601f016020809104026020016040519081016040528092919081815260200182805461108b906132b6565b80156110d85780601f106110ad576101008083540402835291602001916110d8565b820191906000526020600020905b8154815290600101906020018083116110bb57829003601f168201915b5050505050908060050180546110ed906132b6565b80601f0160208091040260200160405190810160405280929190818152602001828054611119906132b6565b80156111665780601f1061113b57610100808354040283529160200191611166565b820191906000526020600020905b81548152906001019060200180831161114957829003601f168201915b505050505090806006015490806007015490806008016040518060c0016040529081600082018054611197906132b6565b80601f01602080910402602001604051908101604052809291908181526020018280546111c3906132b6565b80156112105780601f106111e557610100808354040283529160200191611210565b820191906000526020600020905b8154815290600101906020018083116111f357829003601f168201915b5050505050815260200160018201548152602001600282018054611233906132b6565b80601f016020809104026020016040519081016040528092919081815260200182805461125f906132b6565b80156112ac5780601f10611281576101008083540402835291602001916112ac565b820191906000526020600020905b81548152906001019060200180831161128f57829003601f168201915b505050505081526020016003820180546112c5906132b6565b80601f01602080910402602001604051908101604052809291908181526020018280546112f1906132b6565b801561133e5780601f106113135761010080835404028352916020019161133e565b820191906000526020600020905b81548152906001019060200180831161132157829003601f168201915b5050505050815260200160048201548152602001600582015481525050905086565b610d3883838360405180602001604052806000815250611502565b6000818152600260205260408120546001600160a01b031680610a5c5760405162461bcd60e51b815260206004820152601860248201527f4552433732313a20696e76616c696420746f6b656e20494400000000000000006044820152606401610c97565b7f9f2df0fed2c77648de5860a4cc508cd0818c85b8b8a1ab4ceeef8d981c8956a661140a81611e42565b600082815260086020526040812060060154900361143b57604051630bf4f16b60e31b815260040160405180910390fd5b611449426312cc030061340e565b6000928352600860205260409092206007019190915550565b60006001600160a01b0382166114cc5760405162461bcd60e51b815260206004820152602960248201527f4552433732313a2061646472657373207a65726f206973206e6f7420612076616044820152683634b21037bbb732b960b91b6064820152608401610c97565b506001600160a01b031660009081526003602052604090205490565b606060018054610b79906132b6565b610e613383836122ca565b61150c3383611f46565b61156e5760405162461bcd60e51b815260206004820152602d60248201527f4552433732313a2063616c6c6572206973206e6f7420746f6b656e206f776e6560448201526c1c881bdc88185c1c1c9bdd9959609a1b6064820152608401610c97565b61157a84848484612398565b50505050565b60007f9f2df0fed2c77648de5860a4cc508cd0818c85b8b8a1ab4ceeef8d981c8956a66115ac81611e42565b6009856040516115bc9190613421565b9081526020016040518091039020546000146115eb576040516307d946db60e21b815260040160405180910390fd5b6001600160a01b0389166000908152600a602052604090205415611622576040516307d946db60e21b815260040160405180910390fd5b600061162d60075490565b61163890600161340e565b9050611648600780546001019055565b6116528a82612416565b426000611663826312cc030061340e565b9050826009896040516116769190613421565b9081526020016040518091039020819055506040518060c0016040528060405180608001604052808e81526020018d81526020018c81526020018960ff1681525081526020018981526020018881526020018381526020018281526020016040518060c00160405280604051806020016040528060008152508152602001600081526020016040518060200160405280600081525081526020016040518060200160405280600081525081526020016000815260200160008152508152506008600085815260200190815260200160002060008201518160000160008201518160000190816117659190613338565b506020820151600182019061177a9082613338565b506040820151600282019061178f9082613338565b50606091909101516003909101805460ff191660ff909216919091179055602082015160048201906117c19082613338565b50604082015160058201906117d69082613338565b50606082015160068201556080820151600782015560a08201518051600883019081906118039082613338565b5060208201516001820155604082015160028201906118229082613338565b50606082015160038201906118379082613338565b506080820151600482015560a0909101516005909101555050506001600160a01b038b166000908152600a6020526040902082905550915050979650505050505050565b606061188682611e74565b600061189d60408051602081019091526000815290565b905060008151116118bd57604051806020016040528060008152506118e8565b806118c784612430565b6040516020016118d892919061343d565b6040516020818303038152906040525b9392505050565b6118f7612b6d565b336000908152600a6020908152604080832054808452600890925291829020825161014081019093528054919291829060c082019083908290829061193b906132b6565b80601f0160208091040260200160405190810160405280929190818152602001828054611967906132b6565b80156119b45780601f10611989576101008083540402835291602001916119b4565b820191906000526020600020905b81548152906001019060200180831161199757829003601f168201915b505050505081526020016001820180546119cd906132b6565b80601f01602080910402602001604051908101604052809291908181526020018280546119f9906132b6565b8015611a465780601f10611a1b57610100808354040283529160200191611a46565b820191906000526020600020905b815481529060010190602001808311611a2957829003601f168201915b50505050508152602001600282018054611a5f906132b6565b80601f0160208091040260200160405190810160405280929190818152602001828054611a8b906132b6565b8015611ad85780601f10611aad57610100808354040283529160200191611ad8565b820191906000526020600020905b815481529060010190602001808311611abb57829003601f168201915b50505091835250506003919091015460ff166020918201529082526004830180549290910191611b07906132b6565b80601f0160208091040260200160405190810160405280929190818152602001828054611b33906132b6565b8015611b805780601f10611b5557610100808354040283529160200191611b80565b820191906000526020600020905b815481529060010190602001808311611b6357829003601f168201915b50505050508152602001600582018054611b99906132b6565b80601f0160208091040260200160405190810160405280929190818152602001828054611bc5906132b6565b8015611c125780601f10611be757610100808354040283529160200191611c12565b820191906000526020600020905b815481529060010190602001808311611bf557829003601f168201915b505050505081526020016006820154815260200160078201548152602001600882016040518060c0016040529081600082018054611c4f906132b6565b80601f0160208091040260200160405190810160405280929190818152602001828054611c7b906132b6565b8015611cc85780601f10611c9d57610100808354040283529160200191611cc8565b820191906000526020600020905b815481529060010190602001808311611cab57829003601f168201915b5050505050815260200160018201548152602001600282018054611ceb906132b6565b80601f0160208091040260200160405190810160405280929190818152602001828054611d17906132b6565b8015611d645780601f10611d3957610100808354040283529160200191611d64565b820191906000526020600020905b815481529060010190602001808311611d4757829003601f168201915b50505050508152602001600382018054611d7d906132b6565b80601f0160208091040260200160405190810160405280929190818152602001828054611da9906132b6565b8015611df65780601f10611dcb57610100808354040283529160200191611df6565b820191906000526020600020905b815481529060010190602001808311611dd957829003601f168201915b50505050508152602001600482015481526020016005820154815250508152505091505090565b600082815260066020526040902060010154611e3881611e42565b610d388383612247565b611e4c81336124c3565b50565b60006001600160e01b03198216637965db0b60e01b1480610a5c5750610a5c82612538565b6000818152600260205260409020546001600160a01b0316611e4c5760405162461bcd60e51b815260206004820152601860248201527f4552433732313a20696e76616c696420746f6b656e20494400000000000000006044820152606401610c97565b600081815260046020526040902080546001600160a01b0319166001600160a01b0384169081179091558190611f0d8261137b565b6001600160a01b03167f8c5be1e5ebec7d5bd14f71427d1e84f3dd0314c0f7b2291e5b200ac8c7c3b92560405160405180910390a45050565b600080611f528361137b565b9050806001600160a01b0316846001600160a01b03161480611f9957506001600160a01b0380821660009081526005602090815260408083209388168352929052205460ff165b80611fbd5750836001600160a01b0316611fb284610bfc565b6001600160a01b0316145b949350505050565b826001600160a01b0316611fd88261137b565b6001600160a01b03161461203c5760405162461bcd60e51b815260206004820152602560248201527f4552433732313a207472616e736665722066726f6d20696e636f72726563742060448201526437bbb732b960d91b6064820152608401610c97565b6001600160a01b03821661209e5760405162461bcd60e51b8152602060048201526024808201527f4552433732313a207472616e7366657220746f20746865207a65726f206164646044820152637265737360e01b6064820152608401610c97565b826001600160a01b03166120b18261137b565b6001600160a01b0316146121155760405162461bcd60e51b815260206004820152602560248201527f4552433732313a207472616e736665722066726f6d20696e636f72726563742060448201526437bbb732b960d91b6064820152608401610c97565b600081815260046020908152604080832080546001600160a01b03199081169091556001600160a01b0387811680865260038552838620805460001901905590871680865283862080546001019055868652600290945282852080549092168417909155905184937fddf252ad1be2c89b69c2b068fc378daa952ba7f163c4a11628f55a4df523b3ef91a4505050565b60008281526006602090815260408083206001600160a01b038516845290915290205460ff16610e615760008281526006602090815260408083206001600160a01b03851684529091529020805460ff191660011790556122033390565b6001600160a01b0316816001600160a01b0316837f2f8788117e7eff1d82e926ec794901d17c78024a50270940304540a733656f0d60405160405180910390a45050565b60008281526006602090815260408083206001600160a01b038516845290915290205460ff1615610e615760008281526006602090815260408083206001600160a01b0385168085529252808320805460ff1916905551339285917ff6391f5c32d9c69d2a47ea670b442974b53935d1edc7fd64eb21e047a839171b9190a45050565b816001600160a01b0316836001600160a01b03160361232b5760405162461bcd60e51b815260206004820152601960248201527f4552433732313a20617070726f766520746f2063616c6c6572000000000000006044820152606401610c97565b6001600160a01b03838116600081815260056020908152604080832094871680845294825291829020805460ff191686151590811790915591519182527f17307eab39ab6107e8899845ad3d59bd9653f200f220920489ca2b5937696c31910160405180910390a3505050565b6123a3848484611fc5565b6123af84848484612588565b61157a5760405162461bcd60e51b815260206004820152603260248201527f4552433732313a207472616e7366657220746f206e6f6e20455243373231526560448201527131b2b4bb32b91034b6b83632b6b2b73a32b960711b6064820152608401610c97565b610e618282604051806020016040528060008152506126d4565b6060600061243d83612752565b600101905060008167ffffffffffffffff81111561245d5761245d612dfe565b6040519080825280601f01601f191660200182016040528015612487576020820181803683370190505b5090508181016020015b600019016f181899199a1a9b1b9c1cb0b131b232b360811b600a86061a8153600a850494508461249157509392505050565b60008281526006602090815260408083206001600160a01b038516845290915290205460ff16610e61576124f681612834565b612501836020612846565b60405160200161251292919061346c565b60408051601f198184030181529082905262461bcd60e51b8252610c9791600401612f59565b60006001600160e01b031982166380ac58cd60e01b148061256957506001600160e01b03198216635b5e139f60e01b145b80610a5c57506301ffc9a760e01b6001600160e01b0319831614610a5c565b60006001600160a01b0384163b156126c957604051630a85bd0160e11b81526001600160a01b0385169063150b7a02906125cc9033908990889088906004016134ed565b6020604051808303816000875af1925050508015612607575060408051601f3d908101601f1916820190925261260491810190613529565b60015b6126af573d808015612635576040519150601f19603f3d011682016040523d82523d6000602084013e61263a565b606091505b5080516000036126a75760405162461bcd60e51b815260206004820152603260248201527f4552433732313a207472616e7366657220746f206e6f6e20455243373231526560448201527131b2b4bb32b91034b6b83632b6b2b73a32b960711b6064820152608401610c97565b805181602001fd5b6001600160e01b031916630a85bd0160e11b149050611fbd565b506001949350505050565b6126de83836129e2565b6126eb6000848484612588565b610d385760405162461bcd60e51b815260206004820152603260248201527f4552433732313a207472616e7366657220746f206e6f6e20455243373231526560448201527131b2b4bb32b91034b6b83632b6b2b73a32b960711b6064820152608401610c97565b6000807a184f03e93ff9f4daa797ed6e38ed64bf6a1f010000000000000000831061279b577a184f03e93ff9f4daa797ed6e38ed64bf6a1f010000000000000000830492506040015b6d04ee2d6d415b85acef810000000083106127c7576d04ee2d6d415b85acef8100000000830492506020015b662386f26fc1000083106127e557662386f26fc10000830492506010015b6305f5e10083106127fd576305f5e100830492506008015b612710831061281157612710830492506004015b60648310612823576064830492506002015b600a8310610a5c5760010192915050565b6060610a5c6001600160a01b03831660145b60606000612855836002613546565b61286090600261340e565b67ffffffffffffffff81111561287857612878612dfe565b6040519080825280601f01601f1916602001820160405280156128a2576020820181803683370190505b509050600360fc1b816000815181106128bd576128bd61355d565b60200101906001600160f81b031916908160001a905350600f60fb1b816001815181106128ec576128ec61355d565b60200101906001600160f81b031916908160001a9053506000612910846002613546565b61291b90600161340e565b90505b6001811115612993576f181899199a1a9b1b9c1cb0b131b232b360811b85600f166010811061294f5761294f61355d565b1a60f81b8282815181106129655761296561355d565b60200101906001600160f81b031916908160001a90535060049490941c9361298c81613573565b905061291e565b5083156118e85760405162461bcd60e51b815260206004820181905260248201527f537472696e67733a20686578206c656e67746820696e73756666696369656e746044820152606401610c97565b6001600160a01b038216612a385760405162461bcd60e51b815260206004820181905260248201527f4552433732313a206d696e7420746f20746865207a65726f20616464726573736044820152606401610c97565b6000818152600260205260409020546001600160a01b031615612a9d5760405162461bcd60e51b815260206004820152601c60248201527f4552433732313a20746f6b656e20616c7265616479206d696e746564000000006044820152606401610c97565b6000818152600260205260409020546001600160a01b031615612b025760405162461bcd60e51b815260206004820152601c60248201527f4552433732313a20746f6b656e20616c7265616479206d696e746564000000006044820152606401610c97565b6001600160a01b038216600081815260036020908152604080832080546001019055848352600290915280822080546001600160a01b0319168417905551839291907fddf252ad1be2c89b69c2b068fc378daa952ba7f163c4a11628f55a4df523b3ef908290a45050565b604080516101408101909152606060c0820181815260e0830182905261010083019190915260006101208301528190815260200160608152602001606081526020016000815260200160008152602001612bf66040518060c001604052806060815260200160008152602001606081526020016060815260200160008152602001600081525090565b905290565b600060208284031215612c0d57600080fd5b5035919050565b60005b83811015612c2f578181015183820152602001612c17565b50506000910152565b60008151808452612c50816020860160208601612c14565b601f01601f19169290920160200192915050565b6000815160808452612c796080850182612c38565b905060208301518482036020860152612c928282612c38565b91505060408301518482036040860152612cac8282612c38565b91505060ff60608401511660608501528091505092915050565b6000815160c08452612cdb60c0850182612c38565b90506020830151602085015260408301518482036040860152612cfe8282612c38565b91505060608301518482036060860152612d188282612c38565b9150506080830151608085015260a083015160a08501528091505092915050565b602081526000825160c06020840152612d5560e0840182612c64565b90506020840151601f1980858403016040860152612d738383612c38565b92506040860151915080858403016060860152612d908383612c38565b925060608601516080860152608086015160a086015260a08601519150808584030160c086015250612dc28282612cc6565b95945050505050565b6001600160e01b031981168114611e4c57600080fd5b600060208284031215612df357600080fd5b81356118e881612dcb565b634e487b7160e01b600052604160045260246000fd5b600067ffffffffffffffff80841115612e2f57612e2f612dfe565b604051601f8501601f19908116603f01168101908282118183101715612e5757612e57612dfe565b81604052809350858152868686011115612e7057600080fd5b858560208301376000602087830101525050509392505050565b600082601f830112612e9b57600080fd5b6118e883833560208501612e14565b600080600080600080600060e0888a031215612ec557600080fd5b87359650602088013567ffffffffffffffff80821115612ee457600080fd5b612ef08b838c01612e8a565b975060408a0135965060608a0135915080821115612f0d57600080fd5b612f198b838c01612e8a565b955060808a0135915080821115612f2f57600080fd5b50612f3c8a828b01612e8a565b93505060a0880135915060c0880135905092959891949750929550565b6020815260006118e86020830184612c38565b80356001600160a01b0381168114612f8357600080fd5b919050565b60008060408385031215612f9b57600080fd5b612fa483612f6c565b946020939093013593505050565b600080600060608486031215612fc757600080fd5b612fd084612f6c565b9250612fde60208501612f6c565b9150604084013590509250925092565b6000806040838503121561300157600080fd5b8235915061301160208401612f6c565b90509250929050565b60c08152600061302d60c0830189612c64565b828103602084015261303f8189612c38565b905082810360408401526130538188612c38565b905085606084015284608084015282810360a08401526130738185612cc6565b9998505050505050505050565b60006020828403121561309257600080fd5b813567ffffffffffffffff8111156130a957600080fd5b611fbd84828501612e8a565b6000602082840312156130c757600080fd5b6118e882612f6c565b600080604083850312156130e357600080fd5b6130ec83612f6c565b91506020830135801515811461310157600080fd5b809150509250929050565b6000806000806080858703121561312257600080fd5b61312b85612f6c565b935061313960208601612f6c565b925060408501359150606085013567ffffffffffffffff81111561315c57600080fd5b8501601f8101871361316d57600080fd5b61317c87823560208401612e14565b91505092959194509250565b803560ff81168114612f8357600080fd5b600080600080600080600060e0888a0312156131b457600080fd5b6131bd88612f6c565b9650602088013567ffffffffffffffff808211156131da57600080fd5b6131e68b838c01612e8a565b975060408a01359150808211156131fc57600080fd5b6132088b838c01612e8a565b965060608a013591508082111561321e57600080fd5b61322a8b838c01612e8a565b955060808a013591508082111561324057600080fd5b61324c8b838c01612e8a565b945060a08a013591508082111561326257600080fd5b5061326f8a828b01612e8a565b92505061327e60c08901613188565b905092959891949750929550565b6000806040838503121561329f57600080fd5b6132a883612f6c565b915061301160208401612f6c565b600181811c908216806132ca57607f821691505b602082108103610a4b57634e487b7160e01b600052602260045260246000fd5b601f821115610d3857600081815260208120601f850160051c810160208610156133115750805b601f850160051c820191505b818110156133305782815560010161331d565b505050505050565b815167ffffffffffffffff81111561335257613352612dfe565b6133668161336084546132b6565b846132ea565b602080601f83116001811461339b57600084156133835750858301515b600019600386901b1c1916600185901b178555613330565b600085815260208120601f198616915b828110156133ca578886015182559484019460019091019084016133ab565b50858210156133e85787850151600019600388901b60f8161c191681555b5050505050600190811b01905550565b634e487b7160e01b600052601160045260246000fd5b80820180821115610a5c57610a5c6133f8565b60008251613433818460208701612c14565b9190910192915050565b6000835161344f818460208801612c14565b835190830190613463818360208801612c14565b01949350505050565b7f416363657373436f6e74726f6c3a206163636f756e74200000000000000000008152600083516134a4816017850160208801612c14565b7f206973206d697373696e6720726f6c652000000000000000000000000000000060179184019182015283516134e1816028840160208801612c14565b01602801949350505050565b60006001600160a01b0380871683528086166020840152508360408301526080606083015261351f6080830184612c38565b9695505050505050565b60006020828403121561353b57600080fd5b81516118e881612dcb565b8082028115828204841417610a5c57610a5c6133f8565b634e487b7160e01b600052603260045260246000fd5b600081613582576135826133f8565b50600019019056fea26469706673582212205e0fbbb084a58d0cbfb0cf45d6f9944c989be47f25221a2eb398d34bfcd06d1c64736f6c63430008140033",
    "linkReferences": {}
  },
  "methodIdentifiers": {
    "DEFAULT_ADMIN_ROLE()": "a217fddf",
    "bajaEmpleado(address)": "d73ea35a",
    "cambioDireccion(uint256,string,uint256,string,string,uint256,uint256)": "2f2a6279",
    "crearCredencial(address,string,string,string,string,string,uint8)": "791d08bc",
    "getRoleAdmin(bytes32)": "248a9ca3",
    "grantRole(bytes32,address)": "2f2ff15d",
    "hasRole(bytes32,address)": "91d14854",
    "nuevoEmpleado(address,uint8,string,string,string,string)": "201ce19a",
    "recontratoEmpleado(address,uint8)": "6c596626",
    "renounceRole(bytes32,address)": "36568abe",
    "revokeRole(bytes32,address)": "d547741f",
    "supportsInterface(bytes4)": "01ffc9a7",
    "verAddressCredecialDigital()": "51294d57",
    "verAddressSistemaPermisos()": "1d55f23f",
    "verDatosEmpleado(address)": "a90d7a33",
    "verDatosPersonales()": "9345b6c2"
  },
  "id": 35
}