{
  "abi": [
    {
      "inputs": [],
      "stateMutability": "nonpayable",
      "type": "constructor"
    },
    {
      "inputs": [],
      "name": "SistemaPermisos__AccesoDenegado",
      "type": "error"
    },
    {
      "inputs": [],
      "name": "SistemaPermisos__PermisoInvalido",
      "type": "error"
    },
    {
      "anonymous": false,
      "inputs": [
        {
          "indexed": true,
          "internalType": "uint256",
          "name": "fechaCaducidad",
          "type": "uint256"
        },
        {
          "indexed": true,
          "internalType": "address",
          "name": "solicitante",
          "type": "address"
        },
        {
          "indexed": true,
          "internalType": "uint8",
          "name": "tipoPermiso",
          "type": "uint8"
        }
      ],
      "name": "PermisoDado",
      "type": "event"
    },
    {
      "anonymous": false,
      "inputs": [
        {
          "indexed": true,
          "internalType": "bytes32",
          "name": "role",
          "type": "bytes32"
        },
        {
          "indexed": true,
          "internalType": "bytes32",
          "name": "previousAdminRole",
          "type": "bytes32"
        },
        {
          "indexed": true,
          "internalType": "bytes32",
          "name": "newAdminRole",
          "type": "bytes32"
        }
      ],
      "name": "RoleAdminChanged",
      "type": "event"
    },
    {
      "anonymous": false,
      "inputs": [
        {
          "indexed": true,
          "internalType": "bytes32",
          "name": "role",
          "type": "bytes32"
        },
        {
          "indexed": true,
          "internalType": "address",
          "name": "account",
          "type": "address"
        },
        {
          "indexed": true,
          "internalType": "address",
          "name": "sender",
          "type": "address"
        }
      ],
      "name": "RoleGranted",
      "type": "event"
    },
    {
      "anonymous": false,
      "inputs": [
        {
          "indexed": true,
          "internalType": "bytes32",
          "name": "role",
          "type": "bytes32"
        },
        {
          "indexed": true,
          "internalType": "address",
          "name": "account",
          "type": "address"
        },
        {
          "indexed": true,
          "internalType": "address",
          "name": "sender",
          "type": "address"
        }
      ],
      "name": "RoleRevoked",
      "type": "event"
    },
    {
      "inputs": [],
      "name": "DEFAULT_ADMIN_ROLE",
      "outputs": [
        {
          "internalType": "bytes32",
          "name": "",
          "type": "bytes32"
        }
      ],
      "stateMutability": "view",
      "type": "function"
    },
    {
      "inputs": [
        {
          "internalType": "bytes32",
          "name": "role",
          "type": "bytes32"
        }
      ],
      "name": "getRoleAdmin",
      "outputs": [
        {
          "internalType": "bytes32",
          "name": "",
          "type": "bytes32"
        }
      ],
      "stateMutability": "view",
      "type": "function"
    },
    {
      "inputs": [
        {
          "internalType": "bytes32",
          "name": "role",
          "type": "bytes32"
        },
        {
          "internalType": "address",
          "name": "account",
          "type": "address"
        }
      ],
      "name": "grantRole",
      "outputs": [],
      "stateMutability": "nonpayable",
      "type": "function"
    },
    {
      "inputs": [
        {
          "internalType": "bytes32",
          "name": "role",
          "type": "bytes32"
        },
        {
          "internalType": "address",
          "name": "account",
          "type": "address"
        }
      ],
      "name": "hasRole",
      "outputs": [
        {
          "internalType": "bool",
          "name": "",
          "type": "bool"
        }
      ],
      "stateMutability": "view",
      "type": "function"
    },
    {
      "inputs": [
        {
          "internalType": "uint256",
          "name": "id",
          "type": "uint256"
        },
        {
          "internalType": "address",
          "name": "firmaElectronica",
          "type": "address"
        }
      ],
      "name": "permisos",
      "outputs": [
        {
          "internalType": "uint8",
          "name": "tipoPermiso",
          "type": "uint8"
        },
        {
          "internalType": "uint256",
          "name": "fechaCaducidad",
          "type": "uint256"
        }
      ],
      "stateMutability": "view",
      "type": "function"
    },
    {
      "inputs": [
        {
          "internalType": "bytes32",
          "name": "role",
          "type": "bytes32"
        },
        {
          "internalType": "address",
          "name": "account",
          "type": "address"
        }
      ],
      "name": "renounceRole",
      "outputs": [],
      "stateMutability": "nonpayable",
      "type": "function"
    },
    {
      "inputs": [
        {
          "internalType": "bytes32",
          "name": "role",
          "type": "bytes32"
        },
        {
          "internalType": "address",
          "name": "account",
          "type": "address"
        }
      ],
      "name": "revokeRole",
      "outputs": [],
      "stateMutability": "nonpayable",
      "type": "function"
    },
    {
      "inputs": [
        {
          "internalType": "address",
          "name": "_credencialDigitalAddress",
          "type": "address"
        }
      ],
      "name": "setCredencialDigitalAddress",
      "outputs": [],
      "stateMutability": "nonpayable",
      "type": "function"
    },
    {
      "inputs": [
        {
          "internalType": "uint256",
          "name": "id",
          "type": "uint256"
        },
        {
          "internalType": "uint8",
          "name": "permiso",
          "type": "uint8"
        },
        {
          "internalType": "address",
          "name": "solicitante",
          "type": "address"
        },
        {
          "internalType": "uint256",
          "name": "fechaCaducidad",
          "type": "uint256"
        }
      ],
      "name": "setPermiso",
      "outputs": [],
      "stateMutability": "nonpayable",
      "type": "function"
    },
    {
      "inputs": [
        {
          "internalType": "bytes4",
          "name": "interfaceId",
          "type": "bytes4"
        }
      ],
      "name": "supportsInterface",
      "outputs": [
        {
          "internalType": "bool",
          "name": "",
          "type": "bool"
        }
      ],
      "stateMutability": "view",
      "type": "function"
    },
    {
      "inputs": [
        {
          "internalType": "uint256",
          "name": "id",
          "type": "uint256"
        }
      ],
      "name": "verDatos",
      "outputs": [
        {
          "components": [
            {
              "components": [
                {
                  "internalType": "string",
                  "name": "nombre",
                  "type": "string"
                },
                {
                  "internalType": "string",
                  "name": "apellidoPaterno",
                  "type": "string"
                },
                {
                  "internalType": "string",
                  "name": "apellidoMaterno",
                  "type": "string"
                },
                {
                  "internalType": "uint8",
                  "name": "generoBiologico",
                  "type": "uint8"
                }
              ],
              "internalType": "struct CredencialDigital.DatosIdentidad",
              "name": "identidad",
              "type": "tuple"
            },
            {
              "internalType": "string",
              "name": "claveElector",
              "type": "string"
            },
            {
              "internalType": "string",
              "name": "curp",
              "type": "string"
            },
            {
              "internalType": "uint256",
              "name": "fechaRegistro",
              "type": "uint256"
            },
            {
              "internalType": "uint256",
              "name": "fechaVigencia",
              "type": "uint256"
            },
            {
              "components": [
                {
                  "internalType": "string",
                  "name": "calle",
                  "type": "string"
                },
                {
                  "internalType": "uint256",
                  "name": "numeroExterior",
                  "type": "uint256"
                },
                {
                  "internalType": "string",
                  "name": "numeroInterior",
                  "type": "string"
                },
                {
                  "internalType": "string",
                  "name": "colonia",
                  "type": "string"
                },
                {
                  "internalType": "uint256",
                  "name": "codigoPostal",
                  "type": "uint256"
                },
                {
                  "internalType": "uint256",
                  "name": "seccion",
                  "type": "uint256"
                }
              ],
              "internalType": "struct CredencialDigital.Direccion",
              "name": "direccion",
              "type": "tuple"
            }
          ],
          "internalType": "struct CredencialDigital.DatosCredencial",
          "name": "datos",
          "type": "tuple"
        },
        {
          "internalType": "uint8",
          "name": "tipoPermiso",
          "type": "uint8"
        },
        {
          "internalType": "uint256",
          "name": "fechaCaducidad",
          "type": "uint256"
        }
      ],
      "stateMutability": "view",
      "type": "function"
    }
  ],
  "bytecode": {
    "object": "0x608060405234801561001057600080fd5b5061001c60003361004b565b6100467fefde6635549760001b141816a6edeaa8c0fe3349291d719ba45d394133f239723361004b565b6100f7565b6100558282610059565b5050565b6000828152602081815260408083206001600160a01b038516845290915290205460ff16610055576000828152602081815260408083206001600160a01b03851684529091529020805460ff191660011790556100b33390565b6001600160a01b0316816001600160a01b0316837f2f8788117e7eff1d82e926ec794901d17c78024a50270940304540a733656f0d60405160405180910390a45050565b6112d7806101066000396000f3fe608060405234801561001057600080fd5b50600436106100b95760003560e01c806391d1485411610081578063b288c3901161005b578063b288c390146101f1578063c8ea404714610204578063d547741f1461021757600080fd5b806391d1485414610161578063a217fddf14610198578063b1be0f39146101a057600080fd5b806301ffc9a7146100be57806304ebab0f146100e6578063248a9ca3146101085780632f2ff15d1461013957806336568abe1461014e575b600080fd5b6100d16100cc366004610b95565b61022a565b60405190151581526020015b60405180910390f35b6100f96100f4366004610bbf565b610261565b6040516100dd93929190610c9b565b61012b610116366004610bbf565b60009081526020819052604090206001015490565b6040519081526020016100dd565b61014c610147366004610db6565b6104dd565b005b61014c61015c366004610db6565b610507565b6100d161016f366004610db6565b6000918252602082815260408084206001600160a01b0393909316845291905290205460ff1690565b61012b600081565b6101d86101ae366004610db6565b60036020908152600092835260408084209091529082529020805460019091015460ff9091169082565b6040805160ff90931683526020830191909152016100dd565b61014c6101ff366004610df5565b610598565b61014c610212366004610e3d565b6106fb565b61014c610225366004610db6565b610783565b60006001600160e01b03198216637965db0b60e01b148061025b57506301ffc9a760e01b6001600160e01b03198316145b92915050565b610269610b07565b600082815260036020908152604080832033845290915281206001015481904211156102a8576040516323d3c0ad60e01b815260040160405180910390fd5b600254604051630178fe3f60e01b8152600481018690526000916001600160a01b031690630178fe3f90602401600060405180830381865afa1580156102f2573d6000803e3d6000fd5b505050506040513d6000823e601f3d908101601f1916820160405261031a9190810190611096565b600086815260036020908152604080832033845290915290205490915060ff166001036103715760008581526003602090815260408083203384529091529020805460019091015491945060ff16925090506104d6565b600085815260036020908152604080832033845290915290205460ff16600203610401576040805160c08101825282518152602080840151818301528383015182840152606080850151908301526080808501519083015260a093840151938201939093526000878152600384528281203382529093529120805460019091015491945060ff16925090506104d6565b60008581526003602081815260408084203385529091529091205460ff1690036104d4576040805160c080820183528351825282516020808201855260008083528185019290925285850151848601526060808701518186015260809687015187860152855160e08101875293840183815284528382018390528551808301875283815284870152855180830187528381529084015294820181905260a0808301829052830191909152878152600384528281203382529093529120805460019091015491945060ff16925090506104d6565b505b9193909250565b6000828152602081905260409020600101546104f8816107a8565b61050283836107b5565b505050565b6001600160a01b038116331461058a5760405162461bcd60e51b815260206004820152602f60248201527f416363657373436f6e74726f6c3a2063616e206f6e6c792072656e6f756e636560448201527f20726f6c657320666f722073656c66000000000000000000000000000000000060648201526084015b60405180910390fd5b6105948282610853565b5050565b6001546040516331a9108f60e11b81526004810186905285916001600160a01b031690636352211e90602401602060405180830381865afa1580156105e1573d6000803e3d6000fd5b505050506040513d601f19601f820116820180604052508101906106059190611183565b6001600160a01b0316336001600160a01b031614610636576040516323d3c0ad60e01b815260040160405180910390fd5b60038460ff16111561065b57604051637465e66760e01b815260040160405180910390fd5b4282101561067c57604051637465e66760e01b815260040160405180910390fd5b60408051808201825260ff868116808352602080840187815260008b8152600383528681206001600160a01b038b1680835293528681209551865460ff1916951694909417855551600190940193909355925185917fa9d485811f688c06975ed22802a3f774b51f04c8dbbcbe0df0a55f0e3f72c73c91a45050505050565b3360009081527f5f46984ecd49a76f384c8a36037278248879a3da6569d8e7b0a9b5a53bc6f51e602052604090205460ff1661074a576040516323d3c0ad60e01b815260040160405180910390fd5b600180546001600160a01b0390921673ffffffffffffffffffffffffffffffffffffffff19928316811790915560028054909216179055565b60008281526020819052604090206001015461079e816107a8565b6105028383610853565b6107b281336108d2565b50565b6000828152602081815260408083206001600160a01b038516845290915290205460ff16610594576000828152602081815260408083206001600160a01b03851684529091529020805460ff1916600117905561080f3390565b6001600160a01b0316816001600160a01b0316837f2f8788117e7eff1d82e926ec794901d17c78024a50270940304540a733656f0d60405160405180910390a45050565b6000828152602081815260408083206001600160a01b038516845290915290205460ff1615610594576000828152602081815260408083206001600160a01b0385168085529252808320805460ff1916905551339285917ff6391f5c32d9c69d2a47ea670b442974b53935d1edc7fd64eb21e047a839171b9190a45050565b6000828152602081815260408083206001600160a01b038516845290915290205460ff166105945761090381610945565b61090e836020610957565b60405160200161091f9291906111a0565b60408051601f198184030181529082905262461bcd60e51b825261058191600401611221565b606061025b6001600160a01b03831660145b6060600061096683600261124a565b610971906002611261565b67ffffffffffffffff81111561098957610989610e5a565b6040519080825280601f01601f1916602001820160405280156109b3576020820181803683370190505b509050600360fc1b816000815181106109ce576109ce611274565b60200101906001600160f81b031916908160001a905350600f60fb1b816001815181106109fd576109fd611274565b60200101906001600160f81b031916908160001a9053506000610a2184600261124a565b610a2c906001611261565b90505b6001811115610ab1577f303132333435363738396162636465660000000000000000000000000000000085600f1660108110610a6d57610a6d611274565b1a60f81b828281518110610a8357610a83611274565b60200101906001600160f81b031916908160001a90535060049490941c93610aaa8161128a565b9050610a2f565b508315610b005760405162461bcd60e51b815260206004820181905260248201527f537472696e67733a20686578206c656e67746820696e73756666696369656e746044820152606401610581565b9392505050565b604080516101408101909152606060c0820181815260e0830182905261010083019190915260006101208301528190815260200160608152602001606081526020016000815260200160008152602001610b906040518060c001604052806060815260200160008152602001606081526020016060815260200160008152602001600081525090565b905290565b600060208284031215610ba757600080fd5b81356001600160e01b031981168114610b0057600080fd5b600060208284031215610bd157600080fd5b5035919050565b60005b83811015610bf3578181015183820152602001610bdb565b50506000910152565b60008151808452610c14816020860160208601610bd8565b601f01601f19169290920160200192915050565b6000815160c08452610c3d60c0850182610bfc565b90506020830151602085015260408301518482036040860152610c608282610bfc565b91505060608301518482036060860152610c7a8282610bfc565b9150506080830151608085015260a083015160a08501528091505092915050565b606081526000845160c0606084015280516080610120850152610cc26101a0850182610bfc565b9050602082015161011f198086840301610140870152610ce28383610bfc565b925060408401519150808684030161016087015250610d018282610bfc565b91505060ff60608301511661018085015260208701519150605f1980858303016080860152610d308284610bfc565b925060408801519150808584030160a0860152610d4d8383610bfc565b9250606088015160c0860152608088015160e086015260a08801519150808584030161010086015250610d808282610c28565b92505050610d93602083018560ff169052565b826040830152949350505050565b6001600160a01b03811681146107b257600080fd5b60008060408385031215610dc957600080fd5b823591506020830135610ddb81610da1565b809150509250929050565b60ff811681146107b257600080fd5b60008060008060808587031215610e0b57600080fd5b843593506020850135610e1d81610de6565b92506040850135610e2d81610da1565b9396929550929360600135925050565b600060208284031215610e4f57600080fd5b8135610b0081610da1565b634e487b7160e01b600052604160045260246000fd5b60405160c0810167ffffffffffffffff81118282101715610e9357610e93610e5a565b60405290565b600082601f830112610eaa57600080fd5b815167ffffffffffffffff80821115610ec557610ec5610e5a565b604051601f8301601f19908116603f01168101908282118183101715610eed57610eed610e5a565b81604052838152866020858801011115610f0657600080fd5b610f17846020830160208901610bd8565b9695505050505050565b600060808284031215610f3357600080fd5b6040516080810167ffffffffffffffff8282108183111715610f5757610f57610e5a565b816040528293508451915080821115610f6f57600080fd5b610f7b86838701610e99565b83526020850151915080821115610f9157600080fd5b610f9d86838701610e99565b60208401526040850151915080821115610fb657600080fd5b50610fc385828601610e99565b6040830152506060830151610fd781610de6565b6060919091015292915050565b600060c08284031215610ff657600080fd5b610ffe610e70565b9050815167ffffffffffffffff8082111561101857600080fd5b61102485838601610e99565b835260208401516020840152604084015191508082111561104457600080fd5b61105085838601610e99565b6040840152606084015191508082111561106957600080fd5b5061107684828501610e99565b6060830152506080820151608082015260a082015160a082015292915050565b6000602082840312156110a857600080fd5b815167ffffffffffffffff808211156110c057600080fd5b9083019060c082860312156110d457600080fd5b6110dc610e70565b8251828111156110eb57600080fd5b6110f787828601610f21565b82525060208301518281111561110c57600080fd5b61111887828601610e99565b60208301525060408301518281111561113057600080fd5b61113c87828601610e99565b604083015250606083015160608201526080830151608082015260a08301518281111561116857600080fd5b61117487828601610fe4565b60a08301525095945050505050565b60006020828403121561119557600080fd5b8151610b0081610da1565b7f416363657373436f6e74726f6c3a206163636f756e74200000000000000000008152600083516111d8816017850160208801610bd8565b7f206973206d697373696e6720726f6c65200000000000000000000000000000006017918401918201528351611215816028840160208801610bd8565b01602801949350505050565b602081526000610b006020830184610bfc565b634e487b7160e01b600052601160045260246000fd5b808202811582820484141761025b5761025b611234565b8082018082111561025b5761025b611234565b634e487b7160e01b600052603260045260246000fd5b60008161129957611299611234565b50600019019056fea264697066735822122008f0e163a86e8475cb23feb7cf6184178e3a24b0e7b142e15f0e2839fcb08f7564736f6c63430008140033",
    "linkReferences": {}
  },
  "methodIdentifiers": {
    "DEFAULT_ADMIN_ROLE()": "a217fddf",
    "getRoleAdmin(bytes32)": "248a9ca3",
    "grantRole(bytes32,address)": "2f2ff15d",
    "hasRole(bytes32,address)": "91d14854",
    "permisos(uint256,address)": "b1be0f39",
    "renounceRole(bytes32,address)": "36568abe",
    "revokeRole(bytes32,address)": "d547741f",
    "setCredencialDigitalAddress(address)": "c8ea4047",
    "setPermiso(uint256,uint8,address,uint256)": "b288c390",
    "supportsInterface(bytes4)": "01ffc9a7",
    "verDatos(uint256)": "04ebab0f"
  },
  "id": 36
}