{
  "abi": [
    {
      "inputs": [
        {
          "internalType": "address",
          "name": "addressBroker",
          "type": "address"
        },
        {
          "internalType": "address",
          "name": "addressINE",
          "type": "address"
        }
      ],
      "stateMutability": "nonpayable",
      "type": "constructor"
    },
    {
      "inputs": [],
      "name": "CredencialDigital__AccesoDenegado",
      "type": "error"
    },
    {
      "inputs": [],
      "name": "CredencialDigital__CredecialYaExiste",
      "type": "error"
    },
    {
      "inputs": [],
      "name": "CredencialDigital__IdNoexiste",
      "type": "error"
    },
    {
      "anonymous": false,
      "inputs": [
        {
          "indexed": true,
          "internalType": "address",
          "name": "owner",
          "type": "address"
        },
        {
          "indexed": true,
          "internalType": "address",
          "name": "approved",
          "type": "address"
        },
        {
          "indexed": true,
          "internalType": "uint256",
          "name": "tokenId",
          "type": "uint256"
        }
      ],
      "name": "Approval",
      "type": "event"
    },
    {
      "anonymous": false,
      "inputs": [
        {
          "indexed": true,
          "internalType": "address",
          "name": "owner",
          "type": "address"
        },
        {
          "indexed": true,
          "internalType": "address",
          "name": "operator",
          "type": "address"
        },
        {
          "indexed": false,
          "internalType": "bool",
          "name": "approved",
          "type": "bool"
        }
      ],
      "name": "ApprovalForAll",
      "type": "event"
    },
    {
      "anonymous": false,
      "inputs": [
        {
          "indexed": true,
          "internalType": "bytes32",
          "name": "role",
          "type": "bytes32"
        },
        {
          "indexed": true,
          "internalType": "bytes32",
          "name": "previousAdminRole",
          "type": "bytes32"
        },
        {
          "indexed": true,
          "internalType": "bytes32",
          "name": "newAdminRole",
          "type": "bytes32"
        }
      ],
      "name": "RoleAdminChanged",
      "type": "event"
    },
    {
      "anonymous": false,
      "inputs": [
        {
          "indexed": true,
          "internalType": "bytes32",
          "name": "role",
          "type": "bytes32"
        },
        {
          "indexed": true,
          "internalType": "address",
          "name": "account",
          "type": "address"
        },
        {
          "indexed": true,
          "internalType": "address",
          "name": "sender",
          "type": "address"
        }
      ],
      "name": "RoleGranted",
      "type": "event"
    },
    {
      "anonymous": false,
      "inputs": [
        {
          "indexed": true,
          "internalType": "bytes32",
          "name": "role",
          "type": "bytes32"
        },
        {
          "indexed": true,
          "internalType": "address",
          "name": "account",
          "type": "address"
        },
        {
          "indexed": true,
          "internalType": "address",
          "name": "sender",
          "type": "address"
        }
      ],
      "name": "RoleRevoked",
      "type": "event"
    },
    {
      "anonymous": false,
      "inputs": [
        {
          "indexed": true,
          "internalType": "address",
          "name": "from",
          "type": "address"
        },
        {
          "indexed": true,
          "internalType": "address",
          "name": "to",
          "type": "address"
        },
        {
          "indexed": true,
          "internalType": "uint256",
          "name": "tokenId",
          "type": "uint256"
        }
      ],
      "name": "Transfer",
      "type": "event"
    },
    {
      "inputs": [],
      "name": "DATA_PROVIDER_ROLE",
      "outputs": [
        {
          "internalType": "bytes32",
          "name": "",
          "type": "bytes32"
        }
      ],
      "stateMutability": "view",
      "type": "function"
    },
    {
      "inputs": [],
      "name": "DEFAULT_ADMIN_ROLE",
      "outputs": [
        {
          "internalType": "bytes32",
          "name": "",
          "type": "bytes32"
        }
      ],
      "stateMutability": "view",
      "type": "function"
    },
    {
      "inputs": [],
      "name": "MINTER_ROLE",
      "outputs": [
        {
          "internalType": "bytes32",
          "name": "",
          "type": "bytes32"
        }
      ],
      "stateMutability": "view",
      "type": "function"
    },
    {
      "inputs": [
        {
          "internalType": "address",
          "name": "to",
          "type": "address"
        },
        {
          "internalType": "uint256",
          "name": "tokenId",
          "type": "uint256"
        }
      ],
      "name": "approve",
      "outputs": [],
      "stateMutability": "nonpayable",
      "type": "function"
    },
    {
      "inputs": [
        {
          "internalType": "address",
          "name": "owner",
          "type": "address"
        }
      ],
      "name": "balanceOf",
      "outputs": [
        {
          "internalType": "uint256",
          "name": "",
          "type": "uint256"
        }
      ],
      "stateMutability": "view",
      "type": "function"
    },
    {
      "inputs": [
        {
          "internalType": "uint256",
          "name": "tokenId",
          "type": "uint256"
        },
        {
          "internalType": "string",
          "name": "calle",
          "type": "string"
        },
        {
          "internalType": "uint256",
          "name": "numeroExterior",
          "type": "uint256"
        },
        {
          "internalType": "string",
          "name": "numeroInterior",
          "type": "string"
        },
        {
          "internalType": "string",
          "name": "colonia",
          "type": "string"
        },
        {
          "internalType": "uint256",
          "name": "codigoPostal",
          "type": "uint256"
        },
        {
          "internalType": "uint256",
          "name": "seccion",
          "type": "uint256"
        }
      ],
      "name": "cambioUbicacion",
      "outputs": [],
      "stateMutability": "nonpayable",
      "type": "function"
    },
    {
      "inputs": [
        {
          "internalType": "uint256",
          "name": "idCredencial",
          "type": "uint256"
        }
      ],
      "name": "ciudadano",
      "outputs": [
        {
          "components": [
            {
              "internalType": "string",
              "name": "nombre",
              "type": "string"
            },
            {
              "internalType": "string",
              "name": "apellidoPaterno",
              "type": "string"
            },
            {
              "internalType": "string",
              "name": "apellidoMaterno",
              "type": "string"
            },
            {
              "internalType": "uint8",
              "name": "generoBiologico",
              "type": "uint8"
            }
          ],
          "internalType": "struct CredencialDigital.DatosIdentidad",
          "name": "identidad",
          "type": "tuple"
        },
        {
          "internalType": "string",
          "name": "claveElector",
          "type": "string"
        },
        {
          "internalType": "string",
          "name": "curp",
          "type": "string"
        },
        {
          "internalType": "uint256",
          "name": "fechaRegistro",
          "type": "uint256"
        },
        {
          "internalType": "uint256",
          "name": "fechaVigencia",
          "type": "uint256"
        },
        {
          "components": [
            {
              "internalType": "string",
              "name": "calle",
              "type": "string"
            },
            {
              "internalType": "uint256",
              "name": "numeroExterior",
              "type": "uint256"
            },
            {
              "internalType": "string",
              "name": "numeroInterior",
              "type": "string"
            },
            {
              "internalType": "string",
              "name": "colonia",
              "type": "string"
            },
            {
              "internalType": "uint256",
              "name": "codigoPostal",
              "type": "uint256"
            },
            {
              "internalType": "uint256",
              "name": "seccion",
              "type": "uint256"
            }
          ],
          "internalType": "struct CredencialDigital.Direccion",
          "name": "direccion",
          "type": "tuple"
        }
      ],
      "stateMutability": "view",
      "type": "function"
    },
    {
      "inputs": [
        {
          "internalType": "string",
          "name": "claveElector",
          "type": "string"
        }
      ],
      "name": "credencialPorClaveElector",
      "outputs": [
        {
          "internalType": "uint256",
          "name": "idCredencial",
          "type": "uint256"
        }
      ],
      "stateMutability": "view",
      "type": "function"
    },
    {
      "inputs": [
        {
          "internalType": "uint256",
          "name": "tokenId",
          "type": "uint256"
        }
      ],
      "name": "getApproved",
      "outputs": [
        {
          "internalType": "address",
          "name": "",
          "type": "address"
        }
      ],
      "stateMutability": "view",
      "type": "function"
    },
    {
      "inputs": [
        {
          "internalType": "uint256",
          "name": "tokenId",
          "type": "uint256"
        }
      ],
      "name": "getData",
      "outputs": [
        {
          "components": [
            {
              "components": [
                {
                  "internalType": "string",
                  "name": "nombre",
                  "type": "string"
                },
                {
                  "internalType": "string",
                  "name": "apellidoPaterno",
                  "type": "string"
                },
                {
                  "internalType": "string",
                  "name": "apellidoMaterno",
                  "type": "string"
                },
                {
                  "internalType": "uint8",
                  "name": "generoBiologico",
                  "type": "uint8"
                }
              ],
              "internalType": "struct CredencialDigital.DatosIdentidad",
              "name": "identidad",
              "type": "tuple"
            },
            {
              "internalType": "string",
              "name": "claveElector",
              "type": "string"
            },
            {
              "internalType": "string",
              "name": "curp",
              "type": "string"
            },
            {
              "internalType": "uint256",
              "name": "fechaRegistro",
              "type": "uint256"
            },
            {
              "internalType": "uint256",
              "name": "fechaVigencia",
              "type": "uint256"
            },
            {
              "components": [
                {
                  "internalType": "string",
                  "name": "calle",
                  "type": "string"
                },
                {
                  "internalType": "uint256",
                  "name": "numeroExterior",
                  "type": "uint256"
                },
                {
                  "internalType": "string",
                  "name": "numeroInterior",
                  "type": "string"
                },
                {
                  "internalType": "string",
                  "name": "colonia",
                  "type": "string"
                },
                {
                  "internalType": "uint256",
                  "name": "codigoPostal",
                  "type": "uint256"
                },
                {
                  "internalType": "uint256",
                  "name": "seccion",
                  "type": "uint256"
                }
              ],
              "internalType": "struct CredencialDigital.Direccion",
              "name": "direccion",
              "type": "tuple"
            }
          ],
          "internalType": "struct CredencialDigital.DatosCredencial",
          "name": "",
          "type": "tuple"
        }
      ],
      "stateMutability": "view",
      "type": "function"
    },
    {
      "inputs": [
        {
          "internalType": "bytes32",
          "name": "role",
          "type": "bytes32"
        }
      ],
      "name": "getRoleAdmin",
      "outputs": [
        {
          "internalType": "bytes32",
          "name": "",
          "type": "bytes32"
        }
      ],
      "stateMutability": "view",
      "type": "function"
    },
    {
      "inputs": [
        {
          "internalType": "bytes32",
          "name": "role",
          "type": "bytes32"
        },
        {
          "internalType": "address",
          "name": "account",
          "type": "address"
        }
      ],
      "name": "grantRole",
      "outputs": [],
      "stateMutability": "nonpayable",
      "type": "function"
    },
    {
      "inputs": [
        {
          "internalType": "bytes32",
          "name": "role",
          "type": "bytes32"
        },
        {
          "internalType": "address",
          "name": "account",
          "type": "address"
        }
      ],
      "name": "hasRole",
      "outputs": [
        {
          "internalType": "bool",
          "name": "",
          "type": "bool"
        }
      ],
      "stateMutability": "view",
      "type": "function"
    },
    {
      "inputs": [
        {
          "internalType": "address",
          "name": "owner",
          "type": "address"
        },
        {
          "internalType": "address",
          "name": "operator",
          "type": "address"
        }
      ],
      "name": "isApprovedForAll",
      "outputs": [
        {
          "internalType": "bool",
          "name": "",
          "type": "bool"
        }
      ],
      "stateMutability": "view",
      "type": "function"
    },
    {
      "inputs": [],
      "name": "name",
      "outputs": [
        {
          "internalType": "string",
          "name": "",
          "type": "string"
        }
      ],
      "stateMutability": "view",
      "type": "function"
    },
    {
      "inputs": [
        {
          "internalType": "uint256",
          "name": "tokenId",
          "type": "uint256"
        }
      ],
      "name": "ownerOf",
      "outputs": [
        {
          "internalType": "address",
          "name": "",
          "type": "address"
        }
      ],
      "stateMutability": "view",
      "type": "function"
    },
    {
      "inputs": [
        {
          "internalType": "bytes32",
          "name": "role",
          "type": "bytes32"
        },
        {
          "internalType": "address",
          "name": "account",
          "type": "address"
        }
      ],
      "name": "renounceRole",
      "outputs": [],
      "stateMutability": "nonpayable",
      "type": "function"
    },
    {
      "inputs": [
        {
          "internalType": "bytes32",
          "name": "role",
          "type": "bytes32"
        },
        {
          "internalType": "address",
          "name": "account",
          "type": "address"
        }
      ],
      "name": "revokeRole",
      "outputs": [],
      "stateMutability": "nonpayable",
      "type": "function"
    },
    {
      "inputs": [
        {
          "internalType": "address",
          "name": "to",
          "type": "address"
        },
        {
          "internalType": "string",
          "name": "nombre",
          "type": "string"
        },
        {
          "internalType": "string",
          "name": "apellidoPaterno",
          "type": "string"
        },
        {
          "internalType": "string",
          "name": "apellidoMaterno",
          "type": "string"
        },
        {
          "internalType": "string",
          "name": "claveElector",
          "type": "string"
        },
        {
          "internalType": "string",
          "name": "curp",
          "type": "string"
        },
        {
          "internalType": "uint8",
          "name": "generoBiologico",
          "type": "uint8"
        }
      ],
      "name": "safeMint",
      "outputs": [
        {
          "internalType": "uint256",
          "name": "id",
          "type": "uint256"
        }
      ],
      "stateMutability": "nonpayable",
      "type": "function"
    },
    {
      "inputs": [
        {
          "internalType": "address",
          "name": "from",
          "type": "address"
        },
        {
          "internalType": "address",
          "name": "to",
          "type": "address"
        },
        {
          "internalType": "uint256",
          "name": "tokenId",
          "type": "uint256"
        }
      ],
      "name": "safeTransferFrom",
      "outputs": [],
      "stateMutability": "nonpayable",
      "type": "function"
    },
    {
      "inputs": [
        {
          "internalType": "address",
          "name": "from",
          "type": "address"
        },
        {
          "internalType": "address",
          "name": "to",
          "type": "address"
        },
        {
          "internalType": "uint256",
          "name": "tokenId",
          "type": "uint256"
        },
        {
          "internalType": "bytes",
          "name": "data",
          "type": "bytes"
        }
      ],
      "name": "safeTransferFrom",
      "outputs": [],
      "stateMutability": "nonpayable",
      "type": "function"
    },
    {
      "inputs": [
        {
          "internalType": "address",
          "name": "operator",
          "type": "address"
        },
        {
          "internalType": "bool",
          "name": "approved",
          "type": "bool"
        }
      ],
      "name": "setApprovalForAll",
      "outputs": [],
      "stateMutability": "nonpayable",
      "type": "function"
    },
    {
      "inputs": [
        {
          "internalType": "bytes4",
          "name": "interfaceId",
          "type": "bytes4"
        }
      ],
      "name": "supportsInterface",
      "outputs": [
        {
          "internalType": "bool",
          "name": "",
          "type": "bool"
        }
      ],
      "stateMutability": "view",
      "type": "function"
    },
    {
      "inputs": [],
      "name": "symbol",
      "outputs": [
        {
          "internalType": "string",
          "name": "",
          "type": "string"
        }
      ],
      "stateMutability": "view",
      "type": "function"
    },
    {
      "inputs": [
        {
          "internalType": "uint256",
          "name": "tokenId",
          "type": "uint256"
        }
      ],
      "name": "tokenURI",
      "outputs": [
        {
          "internalType": "string",
          "name": "",
          "type": "string"
        }
      ],
      "stateMutability": "view",
      "type": "function"
    },
    {
      "inputs": [
        {
          "internalType": "address",
          "name": "from",
          "type": "address"
        },
        {
          "internalType": "address",
          "name": "to",
          "type": "address"
        },
        {
          "internalType": "uint256",
          "name": "tokenId",
          "type": "uint256"
        }
      ],
      "name": "transferFrom",
      "outputs": [],
      "stateMutability": "nonpayable",
      "type": "function"
    }
  ],
  "bytecode": {
    "object": "0x60806040523480156200001157600080fd5b50604051620032c9380380620032c98339810160408190526200003491620001ce565b6040518060400160405280601181526020017010dc9959195b98da585b111a59da5d185b607a1b81525060405180604001604052806003815260200162494e4560e81b81525081600090816200008b9190620002ab565b5060016200009a8282620002ab565b50620000ac915060009050826200010c565b620000d87f9f2df0fed2c77648de5860a4cc508cd0818c85b8b8a1ab4ceeef8d981c8956a6826200010c565b620001047fb6f6b279a7a4e2aa16012cbd36fcdc1fbdb91b92fd6dab57885c9de496473a8d836200010c565b505062000377565b60008281526006602090815260408083206001600160a01b038516845290915290205460ff16620001ad5760008281526006602090815260408083206001600160a01b03851684529091529020805460ff191660011790556200016c3390565b6001600160a01b0316816001600160a01b0316837f2f8788117e7eff1d82e926ec794901d17c78024a50270940304540a733656f0d60405160405180910390a45b5050565b80516001600160a01b0381168114620001c957600080fd5b919050565b60008060408385031215620001e257600080fd5b620001ed83620001b1565b9150620001fd60208401620001b1565b90509250929050565b634e487b7160e01b600052604160045260246000fd5b600181811c908216806200023157607f821691505b6020821081036200025257634e487b7160e01b600052602260045260246000fd5b50919050565b601f821115620002a657600081815260208120601f850160051c81016020861015620002815750805b601f850160051c820191505b81811015620002a2578281556001016200028d565b5050505b505050565b81516001600160401b03811115620002c757620002c762000206565b620002df81620002d884546200021c565b8462000258565b602080601f831160018114620003175760008415620002fe5750858301515b600019600386901b1c1916600185901b178555620002a2565b600085815260208120601f198616915b82811015620003485788860151825594840194600190910190840162000327565b5085821015620003675787850151600019600388901b60f8161c191681555b5050505050600190811b01905550565b612f4280620003876000396000f3fe608060405234801561001057600080fd5b50600436106101ae5760003560e01c80635bdc847f116100ee578063a22cb46511610097578063c87b56dd11610071578063c87b56dd14610403578063d539139314610416578063d547741f1461043d578063e985e9c51461045057600080fd5b8063a22cb465146103ca578063b88d4fde146103dd578063c2c46873146103f057600080fd5b806391d14854116100c857806391d148541461038157806395d89b41146103ba578063a217fddf146103c257600080fd5b80635bdc847f146103305780636352211e1461035b57806370a082311461036e57600080fd5b806323b872dd1161015b57806336568abe1161013557806336568abe146102be5780633aeae31d146102d157806341ad5e3d146102f857806342842e0e1461031d57600080fd5b806323b872dd14610267578063248a9ca31461027a5780632f2ff15d146102ab57600080fd5b806306fdde031161018c57806306fdde0314610214578063081812fc14610229578063095ea7b31461025457600080fd5b80630178fe3f146101b357806301ffc9a7146101dc578063033ee8aa146101ff575b600080fd5b6101c66101c136600461257d565b61048c565b6040516101d391906126bb565b60405180910390f35b6101ef6101ea366004612763565b6109d5565b60405190151581526020016101d3565b61021261020d36600461282c565b6109e6565b005b61021c610aee565b6040516101d391906128db565b61023c61023736600461257d565b610b80565b6040516001600160a01b0390911681526020016101d3565b61021261026236600461290a565b610ba7565b610212610275366004612934565b610cc1565b61029d61028836600461257d565b60009081526006602052604090206001015490565b6040519081526020016101d3565b6102126102b9366004612970565b610d38565b6102126102cc366004612970565b610d5d565b61029d7fb6f6b279a7a4e2aa16012cbd36fcdc1fbdb91b92fd6dab57885c9de496473a8d81565b61030b61030636600461257d565b610de9565b6040516101d39695949392919061299c565b61021261032b366004612934565b6112e4565b61029d61033e366004612a02565b805160208183018101805160098252928201919093012091525481565b61023c61036936600461257d565b6112ff565b61029d61037c366004612a37565b611364565b6101ef61038f366004612970565b60009182526006602090815260408084206001600160a01b0393909316845291905290205460ff1690565b61021c6113ea565b61029d600081565b6102126103d8366004612a52565b6113f9565b6102126103eb366004612a8e565b611404565b61029d6103fe366004612b1b565b611482565b61021c61041136600461257d565b61172b565b61029d7f9f2df0fed2c77648de5860a4cc508cd0818c85b8b8a1ab4ceeef8d981c8956a681565b61021261044b366004612970565b61179f565b6101ef61045e366004612c0e565b6001600160a01b03918216600090815260056020908152604080832093909416825291909152205460ff1690565b6104946124ef565b7fb6f6b279a7a4e2aa16012cbd36fcdc1fbdb91b92fd6dab57885c9de496473a8d6104be816117c4565b60008381526008602052604090819020815161014081019092528054829060c08201908390829082906104f090612c38565b80601f016020809104026020016040519081016040528092919081815260200182805461051c90612c38565b80156105695780601f1061053e57610100808354040283529160200191610569565b820191906000526020600020905b81548152906001019060200180831161054c57829003601f168201915b5050505050815260200160018201805461058290612c38565b80601f01602080910402602001604051908101604052809291908181526020018280546105ae90612c38565b80156105fb5780601f106105d0576101008083540402835291602001916105fb565b820191906000526020600020905b8154815290600101906020018083116105de57829003601f168201915b5050505050815260200160028201805461061490612c38565b80601f016020809104026020016040519081016040528092919081815260200182805461064090612c38565b801561068d5780601f106106625761010080835404028352916020019161068d565b820191906000526020600020905b81548152906001019060200180831161067057829003601f168201915b50505091835250506003919091015460ff1660209182015290825260048301805492909101916106bc90612c38565b80601f01602080910402602001604051908101604052809291908181526020018280546106e890612c38565b80156107355780601f1061070a57610100808354040283529160200191610735565b820191906000526020600020905b81548152906001019060200180831161071857829003601f168201915b5050505050815260200160058201805461074e90612c38565b80601f016020809104026020016040519081016040528092919081815260200182805461077a90612c38565b80156107c75780601f1061079c576101008083540402835291602001916107c7565b820191906000526020600020905b8154815290600101906020018083116107aa57829003601f168201915b505050505081526020016006820154815260200160078201548152602001600882016040518060c001604052908160008201805461080490612c38565b80601f016020809104026020016040519081016040528092919081815260200182805461083090612c38565b801561087d5780601f106108525761010080835404028352916020019161087d565b820191906000526020600020905b81548152906001019060200180831161086057829003601f168201915b50505050508152602001600182015481526020016002820180546108a090612c38565b80601f01602080910402602001604051908101604052809291908181526020018280546108cc90612c38565b80156109195780601f106108ee57610100808354040283529160200191610919565b820191906000526020600020905b8154815290600101906020018083116108fc57829003601f168201915b5050505050815260200160038201805461093290612c38565b80601f016020809104026020016040519081016040528092919081815260200182805461095e90612c38565b80156109ab5780601f10610980576101008083540402835291602001916109ab565b820191906000526020600020905b81548152906001019060200180831161098e57829003601f168201915b50505050508152602001600482015481526020016005820154815250508152505091505b50919050565b60006109e0826117d1565b92915050565b7f9f2df0fed2c77648de5860a4cc508cd0818c85b8b8a1ab4ceeef8d981c8956a6610a10816117c4565b6000888152600860205260408120600601549003610a4157604051630bf4f16b60e31b815260040160405180910390fd5b6040518060c0016040528088815260200187815260200186815260200185815260200184815260200183815250600860008a81526020019081526020016000206008016000820151816000019081610a999190612cba565b506020820151600182015560408201516002820190610ab89082612cba565b5060608201516003820190610acd9082612cba565b506080820151600482015560a0909101516005909101555050505050505050565b606060008054610afd90612c38565b80601f0160208091040260200160405190810160405280929190818152602001828054610b2990612c38565b8015610b765780601f10610b4b57610100808354040283529160200191610b76565b820191906000526020600020905b815481529060010190602001808311610b5957829003601f168201915b5050505050905090565b6000610b8b826117f6565b506000908152600460205260409020546001600160a01b031690565b6000610bb2826112ff565b9050806001600160a01b0316836001600160a01b031603610c245760405162461bcd60e51b815260206004820152602160248201527f4552433732313a20617070726f76616c20746f2063757272656e74206f776e656044820152603960f91b60648201526084015b60405180910390fd5b336001600160a01b0382161480610c405750610c40813361045e565b610cb25760405162461bcd60e51b815260206004820152603d60248201527f4552433732313a20617070726f76652063616c6c6572206973206e6f7420746f60448201527f6b656e206f776e6572206f7220617070726f76656420666f7220616c6c0000006064820152608401610c1b565b610cbc838361185a565b505050565b610ccb33826118c8565b610d2d5760405162461bcd60e51b815260206004820152602d60248201527f4552433732313a2063616c6c6572206973206e6f7420746f6b656e206f776e6560448201526c1c881bdc88185c1c1c9bdd9959609a1b6064820152608401610c1b565b610cbc838383611947565b600082815260066020526040902060010154610d53816117c4565b610cbc8383611b27565b6001600160a01b0381163314610ddb5760405162461bcd60e51b815260206004820152602f60248201527f416363657373436f6e74726f6c3a2063616e206f6e6c792072656e6f756e636560448201527f20726f6c657320666f722073656c6600000000000000000000000000000000006064820152608401610c1b565b610de58282611bc9565b5050565b600860205280600052604060002060009150905080600001604051806080016040529081600082018054610e1c90612c38565b80601f0160208091040260200160405190810160405280929190818152602001828054610e4890612c38565b8015610e955780601f10610e6a57610100808354040283529160200191610e95565b820191906000526020600020905b815481529060010190602001808311610e7857829003601f168201915b50505050508152602001600182018054610eae90612c38565b80601f0160208091040260200160405190810160405280929190818152602001828054610eda90612c38565b8015610f275780601f10610efc57610100808354040283529160200191610f27565b820191906000526020600020905b815481529060010190602001808311610f0a57829003601f168201915b50505050508152602001600282018054610f4090612c38565b80601f0160208091040260200160405190810160405280929190818152602001828054610f6c90612c38565b8015610fb95780601f10610f8e57610100808354040283529160200191610fb9565b820191906000526020600020905b815481529060010190602001808311610f9c57829003601f168201915b50505091835250506003919091015460ff16602090910152600482018054919291610fe390612c38565b80601f016020809104026020016040519081016040528092919081815260200182805461100f90612c38565b801561105c5780601f106110315761010080835404028352916020019161105c565b820191906000526020600020905b81548152906001019060200180831161103f57829003601f168201915b50505050509080600501805461107190612c38565b80601f016020809104026020016040519081016040528092919081815260200182805461109d90612c38565b80156110ea5780601f106110bf576101008083540402835291602001916110ea565b820191906000526020600020905b8154815290600101906020018083116110cd57829003601f168201915b505050505090806006015490806007015490806008016040518060c001604052908160008201805461111b90612c38565b80601f016020809104026020016040519081016040528092919081815260200182805461114790612c38565b80156111945780601f1061116957610100808354040283529160200191611194565b820191906000526020600020905b81548152906001019060200180831161117757829003601f168201915b50505050508152602001600182015481526020016002820180546111b790612c38565b80601f01602080910402602001604051908101604052809291908181526020018280546111e390612c38565b80156112305780601f1061120557610100808354040283529160200191611230565b820191906000526020600020905b81548152906001019060200180831161121357829003601f168201915b5050505050815260200160038201805461124990612c38565b80601f016020809104026020016040519081016040528092919081815260200182805461127590612c38565b80156112c25780601f10611297576101008083540402835291602001916112c2565b820191906000526020600020905b8154815290600101906020018083116112a557829003601f168201915b5050505050815260200160048201548152602001600582015481525050905086565b610cbc83838360405180602001604052806000815250611404565b6000818152600260205260408120546001600160a01b0316806109e05760405162461bcd60e51b815260206004820152601860248201527f4552433732313a20696e76616c696420746f6b656e20494400000000000000006044820152606401610c1b565b60006001600160a01b0382166113ce5760405162461bcd60e51b815260206004820152602960248201527f4552433732313a2061646472657373207a65726f206973206e6f7420612076616044820152683634b21037bbb732b960b91b6064820152608401610c1b565b506001600160a01b031660009081526003602052604090205490565b606060018054610afd90612c38565b610de5338383611c4c565b61140e33836118c8565b6114705760405162461bcd60e51b815260206004820152602d60248201527f4552433732313a2063616c6c6572206973206e6f7420746f6b656e206f776e6560448201526c1c881bdc88185c1c1c9bdd9959609a1b6064820152608401610c1b565b61147c84848484611d1a565b50505050565b60007f9f2df0fed2c77648de5860a4cc508cd0818c85b8b8a1ab4ceeef8d981c8956a66114ae816117c4565b6009856040516114be9190612d7a565b9081526020016040518091039020546000146114ed576040516307d946db60e21b815260040160405180910390fd5b60006114f860075490565b611503906001612dac565b9050611513600780546001019055565b61151d8a82611d98565b42600061152e826312cc0300612dac565b9050826009896040516115419190612d7a565b9081526020016040518091039020819055506040518060c0016040528060405180608001604052808e81526020018d81526020018c81526020018960ff1681525081526020018981526020018881526020018381526020018281526020016040518060c00160405280604051806020016040528060008152508152602001600081526020016040518060200160405280600081525081526020016040518060200160405280600081525081526020016000815260200160008152508152506008600085815260200190815260200160002060008201518160000160008201518160000190816116309190612cba565b50602082015160018201906116459082612cba565b506040820151600282019061165a9082612cba565b50606091909101516003909101805460ff191660ff9092169190911790556020820151600482019061168c9082612cba565b50604082015160058201906116a19082612cba565b50606082015160068201556080820151600782015560a08201518051600883019081906116ce9082612cba565b5060208201516001820155604082015160028201906116ed9082612cba565b50606082015160038201906117029082612cba565b506080820151600482015560a09091015160059091015550929c9b505050505050505050505050565b6060611736826117f6565b600061174d60408051602081019091526000815290565b9050600081511161176d5760405180602001604052806000815250611798565b8061177784611db2565b604051602001611788929190612dbf565b6040516020818303038152906040525b9392505050565b6000828152600660205260409020600101546117ba816117c4565b610cbc8383611bc9565b6117ce8133611e45565b50565b60006001600160e01b03198216637965db0b60e01b14806109e057506109e082611eba565b6000818152600260205260409020546001600160a01b03166117ce5760405162461bcd60e51b815260206004820152601860248201527f4552433732313a20696e76616c696420746f6b656e20494400000000000000006044820152606401610c1b565b600081815260046020526040902080546001600160a01b0319166001600160a01b038416908117909155819061188f826112ff565b6001600160a01b03167f8c5be1e5ebec7d5bd14f71427d1e84f3dd0314c0f7b2291e5b200ac8c7c3b92560405160405180910390a45050565b6000806118d4836112ff565b9050806001600160a01b0316846001600160a01b0316148061191b57506001600160a01b0380821660009081526005602090815260408083209388168352929052205460ff165b8061193f5750836001600160a01b031661193484610b80565b6001600160a01b0316145b949350505050565b826001600160a01b031661195a826112ff565b6001600160a01b0316146119be5760405162461bcd60e51b815260206004820152602560248201527f4552433732313a207472616e736665722066726f6d20696e636f72726563742060448201526437bbb732b960d91b6064820152608401610c1b565b6001600160a01b038216611a205760405162461bcd60e51b8152602060048201526024808201527f4552433732313a207472616e7366657220746f20746865207a65726f206164646044820152637265737360e01b6064820152608401610c1b565b826001600160a01b0316611a33826112ff565b6001600160a01b031614611a975760405162461bcd60e51b815260206004820152602560248201527f4552433732313a207472616e736665722066726f6d20696e636f72726563742060448201526437bbb732b960d91b6064820152608401610c1b565b600081815260046020908152604080832080546001600160a01b03199081169091556001600160a01b0387811680865260038552838620805460001901905590871680865283862080546001019055868652600290945282852080549092168417909155905184937fddf252ad1be2c89b69c2b068fc378daa952ba7f163c4a11628f55a4df523b3ef91a4505050565b60008281526006602090815260408083206001600160a01b038516845290915290205460ff16610de55760008281526006602090815260408083206001600160a01b03851684529091529020805460ff19166001179055611b853390565b6001600160a01b0316816001600160a01b0316837f2f8788117e7eff1d82e926ec794901d17c78024a50270940304540a733656f0d60405160405180910390a45050565b60008281526006602090815260408083206001600160a01b038516845290915290205460ff1615610de55760008281526006602090815260408083206001600160a01b0385168085529252808320805460ff1916905551339285917ff6391f5c32d9c69d2a47ea670b442974b53935d1edc7fd64eb21e047a839171b9190a45050565b816001600160a01b0316836001600160a01b031603611cad5760405162461bcd60e51b815260206004820152601960248201527f4552433732313a20617070726f766520746f2063616c6c6572000000000000006044820152606401610c1b565b6001600160a01b03838116600081815260056020908152604080832094871680845294825291829020805460ff191686151590811790915591519182527f17307eab39ab6107e8899845ad3d59bd9653f200f220920489ca2b5937696c31910160405180910390a3505050565b611d25848484611947565b611d3184848484611f0a565b61147c5760405162461bcd60e51b815260206004820152603260248201527f4552433732313a207472616e7366657220746f206e6f6e20455243373231526560448201527131b2b4bb32b91034b6b83632b6b2b73a32b960711b6064820152608401610c1b565b610de5828260405180602001604052806000815250612056565b60606000611dbf836120d4565b600101905060008167ffffffffffffffff811115611ddf57611ddf612780565b6040519080825280601f01601f191660200182016040528015611e09576020820181803683370190505b5090508181016020015b600019016f181899199a1a9b1b9c1cb0b131b232b360811b600a86061a8153600a8504945084611e1357509392505050565b60008281526006602090815260408083206001600160a01b038516845290915290205460ff16610de557611e78816121b6565b611e838360206121c8565b604051602001611e94929190612dee565b60408051601f198184030181529082905262461bcd60e51b8252610c1b916004016128db565b60006001600160e01b031982166380ac58cd60e01b1480611eeb57506001600160e01b03198216635b5e139f60e01b145b806109e057506301ffc9a760e01b6001600160e01b03198316146109e0565b60006001600160a01b0384163b1561204b57604051630a85bd0160e11b81526001600160a01b0385169063150b7a0290611f4e903390899088908890600401612e6f565b6020604051808303816000875af1925050508015611f89575060408051601f3d908101601f19168201909252611f8691810190612eab565b60015b612031573d808015611fb7576040519150601f19603f3d011682016040523d82523d6000602084013e611fbc565b606091505b5080516000036120295760405162461bcd60e51b815260206004820152603260248201527f4552433732313a207472616e7366657220746f206e6f6e20455243373231526560448201527131b2b4bb32b91034b6b83632b6b2b73a32b960711b6064820152608401610c1b565b805181602001fd5b6001600160e01b031916630a85bd0160e11b14905061193f565b506001949350505050565b6120608383612364565b61206d6000848484611f0a565b610cbc5760405162461bcd60e51b815260206004820152603260248201527f4552433732313a207472616e7366657220746f206e6f6e20455243373231526560448201527131b2b4bb32b91034b6b83632b6b2b73a32b960711b6064820152608401610c1b565b6000807a184f03e93ff9f4daa797ed6e38ed64bf6a1f010000000000000000831061211d577a184f03e93ff9f4daa797ed6e38ed64bf6a1f010000000000000000830492506040015b6d04ee2d6d415b85acef81000000008310612149576d04ee2d6d415b85acef8100000000830492506020015b662386f26fc10000831061216757662386f26fc10000830492506010015b6305f5e100831061217f576305f5e100830492506008015b612710831061219357612710830492506004015b606483106121a5576064830492506002015b600a83106109e05760010192915050565b60606109e06001600160a01b03831660145b606060006121d7836002612ec8565b6121e2906002612dac565b67ffffffffffffffff8111156121fa576121fa612780565b6040519080825280601f01601f191660200182016040528015612224576020820181803683370190505b509050600360fc1b8160008151811061223f5761223f612edf565b60200101906001600160f81b031916908160001a905350600f60fb1b8160018151811061226e5761226e612edf565b60200101906001600160f81b031916908160001a9053506000612292846002612ec8565b61229d906001612dac565b90505b6001811115612315576f181899199a1a9b1b9c1cb0b131b232b360811b85600f16601081106122d1576122d1612edf565b1a60f81b8282815181106122e7576122e7612edf565b60200101906001600160f81b031916908160001a90535060049490941c9361230e81612ef5565b90506122a0565b5083156117985760405162461bcd60e51b815260206004820181905260248201527f537472696e67733a20686578206c656e67746820696e73756666696369656e746044820152606401610c1b565b6001600160a01b0382166123ba5760405162461bcd60e51b815260206004820181905260248201527f4552433732313a206d696e7420746f20746865207a65726f20616464726573736044820152606401610c1b565b6000818152600260205260409020546001600160a01b03161561241f5760405162461bcd60e51b815260206004820152601c60248201527f4552433732313a20746f6b656e20616c7265616479206d696e746564000000006044820152606401610c1b565b6000818152600260205260409020546001600160a01b0316156124845760405162461bcd60e51b815260206004820152601c60248201527f4552433732313a20746f6b656e20616c7265616479206d696e746564000000006044820152606401610c1b565b6001600160a01b038216600081815260036020908152604080832080546001019055848352600290915280822080546001600160a01b0319168417905551839291907fddf252ad1be2c89b69c2b068fc378daa952ba7f163c4a11628f55a4df523b3ef908290a45050565b604080516101408101909152606060c0820181815260e08301829052610100830191909152600061012083015281908152602001606081526020016060815260200160008152602001600081526020016125786040518060c001604052806060815260200160008152602001606081526020016060815260200160008152602001600081525090565b905290565b60006020828403121561258f57600080fd5b5035919050565b60005b838110156125b1578181015183820152602001612599565b50506000910152565b600081518084526125d2816020860160208601612596565b601f01601f19169290920160200192915050565b60008151608084526125fb60808501826125ba565b90506020830151848203602086015261261482826125ba565b9150506040830151848203604086015261262e82826125ba565b91505060ff60608401511660608501528091505092915050565b6000815160c0845261265d60c08501826125ba565b9050602083015160208501526040830151848203604086015261268082826125ba565b9150506060830151848203606086015261269a82826125ba565b9150506080830151608085015260a083015160a08501528091505092915050565b602081526000825160c060208401526126d760e08401826125e6565b90506020840151601f19808584030160408601526126f583836125ba565b9250604086015191508085840301606086015261271283836125ba565b925060608601516080860152608086015160a086015260a08601519150808584030160c0860152506127448282612648565b95945050505050565b6001600160e01b0319811681146117ce57600080fd5b60006020828403121561277557600080fd5b81356117988161274d565b634e487b7160e01b600052604160045260246000fd5b600067ffffffffffffffff808411156127b1576127b1612780565b604051601f8501601f19908116603f011681019082821181831017156127d9576127d9612780565b816040528093508581528686860111156127f257600080fd5b858560208301376000602087830101525050509392505050565b600082601f83011261281d57600080fd5b61179883833560208501612796565b600080600080600080600060e0888a03121561284757600080fd5b87359650602088013567ffffffffffffffff8082111561286657600080fd5b6128728b838c0161280c565b975060408a0135965060608a013591508082111561288f57600080fd5b61289b8b838c0161280c565b955060808a01359150808211156128b157600080fd5b506128be8a828b0161280c565b93505060a0880135915060c0880135905092959891949750929550565b60208152600061179860208301846125ba565b80356001600160a01b038116811461290557600080fd5b919050565b6000806040838503121561291d57600080fd5b612926836128ee565b946020939093013593505050565b60008060006060848603121561294957600080fd5b612952846128ee565b9250612960602085016128ee565b9150604084013590509250925092565b6000806040838503121561298357600080fd5b82359150612993602084016128ee565b90509250929050565b60c0815260006129af60c08301896125e6565b82810360208401526129c181896125ba565b905082810360408401526129d581886125ba565b905085606084015284608084015282810360a08401526129f58185612648565b9998505050505050505050565b600060208284031215612a1457600080fd5b813567ffffffffffffffff811115612a2b57600080fd5b61193f8482850161280c565b600060208284031215612a4957600080fd5b611798826128ee565b60008060408385031215612a6557600080fd5b612a6e836128ee565b915060208301358015158114612a8357600080fd5b809150509250929050565b60008060008060808587031215612aa457600080fd5b612aad856128ee565b9350612abb602086016128ee565b925060408501359150606085013567ffffffffffffffff811115612ade57600080fd5b8501601f81018713612aef57600080fd5b612afe87823560208401612796565b91505092959194509250565b803560ff8116811461290557600080fd5b600080600080600080600060e0888a031215612b3657600080fd5b612b3f886128ee565b9650602088013567ffffffffffffffff80821115612b5c57600080fd5b612b688b838c0161280c565b975060408a0135915080821115612b7e57600080fd5b612b8a8b838c0161280c565b965060608a0135915080821115612ba057600080fd5b612bac8b838c0161280c565b955060808a0135915080821115612bc257600080fd5b612bce8b838c0161280c565b945060a08a0135915080821115612be457600080fd5b50612bf18a828b0161280c565b925050612c0060c08901612b0a565b905092959891949750929550565b60008060408385031215612c2157600080fd5b612c2a836128ee565b9150612993602084016128ee565b600181811c90821680612c4c57607f821691505b6020821081036109cf57634e487b7160e01b600052602260045260246000fd5b601f821115610cbc57600081815260208120601f850160051c81016020861015612c935750805b601f850160051c820191505b81811015612cb257828155600101612c9f565b505050505050565b815167ffffffffffffffff811115612cd457612cd4612780565b612ce881612ce28454612c38565b84612c6c565b602080601f831160018114612d1d5760008415612d055750858301515b600019600386901b1c1916600185901b178555612cb2565b600085815260208120601f198616915b82811015612d4c57888601518255948401946001909101908401612d2d565b5085821015612d6a5787850151600019600388901b60f8161c191681555b5050505050600190811b01905550565b60008251612d8c818460208701612596565b9190910192915050565b634e487b7160e01b600052601160045260246000fd5b808201808211156109e0576109e0612d96565b60008351612dd1818460208801612596565b835190830190612de5818360208801612596565b01949350505050565b7f416363657373436f6e74726f6c3a206163636f756e7420000000000000000000815260008351612e26816017850160208801612596565b7f206973206d697373696e6720726f6c65200000000000000000000000000000006017918401918201528351612e63816028840160208801612596565b01602801949350505050565b60006001600160a01b03808716835280861660208401525083604083015260806060830152612ea160808301846125ba565b9695505050505050565b600060208284031215612ebd57600080fd5b81516117988161274d565b80820281158282048414176109e0576109e0612d96565b634e487b7160e01b600052603260045260246000fd5b600081612f0457612f04612d96565b50600019019056fea2646970667358221220b52d7ad5e5bcdfe511e56928707ca9d1c8beb8822274fab8a1c14f297522418864736f6c63430008140033",
    "linkReferences": {}
  },
  "methodIdentifiers": {
    "DATA_PROVIDER_ROLE()": "3aeae31d",
    "DEFAULT_ADMIN_ROLE()": "a217fddf",
    "MINTER_ROLE()": "d5391393",
    "approve(address,uint256)": "095ea7b3",
    "balanceOf(address)": "70a08231",
    "cambioUbicacion(uint256,string,uint256,string,string,uint256,uint256)": "033ee8aa",
    "ciudadano(uint256)": "41ad5e3d",
    "credencialPorClaveElector(string)": "5bdc847f",
    "getApproved(uint256)": "081812fc",
    "getData(uint256)": "0178fe3f",
    "getRoleAdmin(bytes32)": "248a9ca3",
    "grantRole(bytes32,address)": "2f2ff15d",
    "hasRole(bytes32,address)": "91d14854",
    "isApprovedForAll(address,address)": "e985e9c5",
    "name()": "06fdde03",
    "ownerOf(uint256)": "6352211e",
    "renounceRole(bytes32,address)": "36568abe",
    "revokeRole(bytes32,address)": "d547741f",
    "safeMint(address,string,string,string,string,string,uint8)": "c2c46873",
    "safeTransferFrom(address,address,uint256)": "42842e0e",
    "safeTransferFrom(address,address,uint256,bytes)": "b88d4fde",
    "setApprovalForAll(address,bool)": "a22cb465",
    "supportsInterface(bytes4)": "01ffc9a7",
    "symbol()": "95d89b41",
    "tokenURI(uint256)": "c87b56dd",
    "transferFrom(address,address,uint256)": "23b872dd"
  },
  "id": 34
}