{
  "abi": [
    {
      "inputs": [
        {
          "internalType": "address",
          "name": "addressBroker",
          "type": "address"
        },
        {
          "internalType": "address",
          "name": "addressINE",
          "type": "address"
        }
      ],
      "stateMutability": "nonpayable",
      "type": "constructor"
    },
    {
      "inputs": [],
      "name": "CredencialDigital__AccesoDenegado",
      "type": "error"
    },
    {
      "inputs": [],
      "name": "CredencialDigital__CredecialYaExiste",
      "type": "error"
    },
    {
      "inputs": [],
      "name": "CredencialDigital__IdNoexiste",
      "type": "error"
    },
    {
      "anonymous": false,
      "inputs": [
        {
          "indexed": true,
          "internalType": "address",
          "name": "owner",
          "type": "address"
        },
        {
          "indexed": true,
          "internalType": "address",
          "name": "approved",
          "type": "address"
        },
        {
          "indexed": true,
          "internalType": "uint256",
          "name": "tokenId",
          "type": "uint256"
        }
      ],
      "name": "Approval",
      "type": "event"
    },
    {
      "anonymous": false,
      "inputs": [
        {
          "indexed": true,
          "internalType": "address",
          "name": "owner",
          "type": "address"
        },
        {
          "indexed": true,
          "internalType": "address",
          "name": "operator",
          "type": "address"
        },
        {
          "indexed": false,
          "internalType": "bool",
          "name": "approved",
          "type": "bool"
        }
      ],
      "name": "ApprovalForAll",
      "type": "event"
    },
    {
      "anonymous": false,
      "inputs": [
        {
          "indexed": true,
          "internalType": "bytes32",
          "name": "role",
          "type": "bytes32"
        },
        {
          "indexed": true,
          "internalType": "bytes32",
          "name": "previousAdminRole",
          "type": "bytes32"
        },
        {
          "indexed": true,
          "internalType": "bytes32",
          "name": "newAdminRole",
          "type": "bytes32"
        }
      ],
      "name": "RoleAdminChanged",
      "type": "event"
    },
    {
      "anonymous": false,
      "inputs": [
        {
          "indexed": true,
          "internalType": "bytes32",
          "name": "role",
          "type": "bytes32"
        },
        {
          "indexed": true,
          "internalType": "address",
          "name": "account",
          "type": "address"
        },
        {
          "indexed": true,
          "internalType": "address",
          "name": "sender",
          "type": "address"
        }
      ],
      "name": "RoleGranted",
      "type": "event"
    },
    {
      "anonymous": false,
      "inputs": [
        {
          "indexed": true,
          "internalType": "bytes32",
          "name": "role",
          "type": "bytes32"
        },
        {
          "indexed": true,
          "internalType": "address",
          "name": "account",
          "type": "address"
        },
        {
          "indexed": true,
          "internalType": "address",
          "name": "sender",
          "type": "address"
        }
      ],
      "name": "RoleRevoked",
      "type": "event"
    },
    {
      "anonymous": false,
      "inputs": [
        {
          "indexed": true,
          "internalType": "address",
          "name": "from",
          "type": "address"
        },
        {
          "indexed": true,
          "internalType": "address",
          "name": "to",
          "type": "address"
        },
        {
          "indexed": true,
          "internalType": "uint256",
          "name": "tokenId",
          "type": "uint256"
        }
      ],
      "name": "Transfer",
      "type": "event"
    },
    {
      "inputs": [],
      "name": "DATA_PROVIDER_ROLE",
      "outputs": [
        {
          "internalType": "bytes32",
          "name": "",
          "type": "bytes32"
        }
      ],
      "stateMutability": "view",
      "type": "function"
    },
    {
      "inputs": [],
      "name": "DEFAULT_ADMIN_ROLE",
      "outputs": [
        {
          "internalType": "bytes32",
          "name": "",
          "type": "bytes32"
        }
      ],
      "stateMutability": "view",
      "type": "function"
    },
    {
      "inputs": [],
      "name": "MINTER_ROLE",
      "outputs": [
        {
          "internalType": "bytes32",
          "name": "",
          "type": "bytes32"
        }
      ],
      "stateMutability": "view",
      "type": "function"
    },
    {
      "inputs": [
        {
          "internalType": "address",
          "name": "to",
          "type": "address"
        },
        {
          "internalType": "uint256",
          "name": "tokenId",
          "type": "uint256"
        }
      ],
      "name": "approve",
      "outputs": [],
      "stateMutability": "nonpayable",
      "type": "function"
    },
    {
      "inputs": [
        {
          "internalType": "address",
          "name": "owner",
          "type": "address"
        }
      ],
      "name": "balanceOf",
      "outputs": [
        {
          "internalType": "uint256",
          "name": "",
          "type": "uint256"
        }
      ],
      "stateMutability": "view",
      "type": "function"
    },
    {
      "inputs": [
        {
          "internalType": "uint256",
          "name": "tokenId",
          "type": "uint256"
        },
        {
          "internalType": "string",
          "name": "calle",
          "type": "string"
        },
        {
          "internalType": "uint256",
          "name": "numeroExterior",
          "type": "uint256"
        },
        {
          "internalType": "string",
          "name": "numeroInterior",
          "type": "string"
        },
        {
          "internalType": "string",
          "name": "colonia",
          "type": "string"
        },
        {
          "internalType": "uint256",
          "name": "codigoPostal",
          "type": "uint256"
        },
        {
          "internalType": "uint256",
          "name": "seccion",
          "type": "uint256"
        }
      ],
      "name": "cambioUbicacion",
      "outputs": [],
      "stateMutability": "nonpayable",
      "type": "function"
    },
    {
      "inputs": [
        {
          "internalType": "uint256",
          "name": "idCredencial",
          "type": "uint256"
        }
      ],
      "name": "ciudadano",
      "outputs": [
        {
          "components": [
            {
              "internalType": "string",
              "name": "nombre",
              "type": "string"
            },
            {
              "internalType": "string",
              "name": "apellidoPaterno",
              "type": "string"
            },
            {
              "internalType": "string",
              "name": "apellidoMaterno",
              "type": "string"
            },
            {
              "internalType": "uint8",
              "name": "generoBiologico",
              "type": "uint8"
            }
          ],
          "internalType": "struct CredencialDigital.DatosIdentidad",
          "name": "identidad",
          "type": "tuple"
        },
        {
          "internalType": "string",
          "name": "claveElector",
          "type": "string"
        },
        {
          "internalType": "string",
          "name": "curp",
          "type": "string"
        },
        {
          "internalType": "uint256",
          "name": "fechaRegistro",
          "type": "uint256"
        },
        {
          "internalType": "uint256",
          "name": "fechaVigencia",
          "type": "uint256"
        },
        {
          "components": [
            {
              "internalType": "string",
              "name": "calle",
              "type": "string"
            },
            {
              "internalType": "uint256",
              "name": "numeroExterior",
              "type": "uint256"
            },
            {
              "internalType": "string",
              "name": "numeroInterior",
              "type": "string"
            },
            {
              "internalType": "string",
              "name": "colonia",
              "type": "string"
            },
            {
              "internalType": "uint256",
              "name": "codigoPostal",
              "type": "uint256"
            },
            {
              "internalType": "uint256",
              "name": "seccion",
              "type": "uint256"
            }
          ],
          "internalType": "struct CredencialDigital.Direccion",
          "name": "direccion",
          "type": "tuple"
        }
      ],
      "stateMutability": "view",
      "type": "function"
    },
    {
      "inputs": [
        {
          "internalType": "string",
          "name": "claveElector",
          "type": "string"
        }
      ],
      "name": "credencialPorClaveElector",
      "outputs": [
        {
          "internalType": "uint256",
          "name": "idCredencial",
          "type": "uint256"
        }
      ],
      "stateMutability": "view",
      "type": "function"
    },
    {
      "inputs": [
        {
          "internalType": "address",
          "name": "ciudadano",
          "type": "address"
        }
      ],
      "name": "credencialPorDireccion",
      "outputs": [
        {
          "internalType": "uint256",
          "name": "idCredencial",
          "type": "uint256"
        }
      ],
      "stateMutability": "view",
      "type": "function"
    },
    {
      "inputs": [
        {
          "internalType": "uint256",
          "name": "tokenId",
          "type": "uint256"
        }
      ],
      "name": "getApproved",
      "outputs": [
        {
          "internalType": "address",
          "name": "",
          "type": "address"
        }
      ],
      "stateMutability": "view",
      "type": "function"
    },
    {
      "inputs": [
        {
          "internalType": "uint256",
          "name": "tokenId",
          "type": "uint256"
        }
      ],
      "name": "getData",
      "outputs": [
        {
          "components": [
            {
              "components": [
                {
                  "internalType": "string",
                  "name": "nombre",
                  "type": "string"
                },
                {
                  "internalType": "string",
                  "name": "apellidoPaterno",
                  "type": "string"
                },
                {
                  "internalType": "string",
                  "name": "apellidoMaterno",
                  "type": "string"
                },
                {
                  "internalType": "uint8",
                  "name": "generoBiologico",
                  "type": "uint8"
                }
              ],
              "internalType": "struct CredencialDigital.DatosIdentidad",
              "name": "identidad",
              "type": "tuple"
            },
            {
              "internalType": "string",
              "name": "claveElector",
              "type": "string"
            },
            {
              "internalType": "string",
              "name": "curp",
              "type": "string"
            },
            {
              "internalType": "uint256",
              "name": "fechaRegistro",
              "type": "uint256"
            },
            {
              "internalType": "uint256",
              "name": "fechaVigencia",
              "type": "uint256"
            },
            {
              "components": [
                {
                  "internalType": "string",
                  "name": "calle",
                  "type": "string"
                },
                {
                  "internalType": "uint256",
                  "name": "numeroExterior",
                  "type": "uint256"
                },
                {
                  "internalType": "string",
                  "name": "numeroInterior",
                  "type": "string"
                },
                {
                  "internalType": "string",
                  "name": "colonia",
                  "type": "string"
                },
                {
                  "internalType": "uint256",
                  "name": "codigoPostal",
                  "type": "uint256"
                },
                {
                  "internalType": "uint256",
                  "name": "seccion",
                  "type": "uint256"
                }
              ],
              "internalType": "struct CredencialDigital.Direccion",
              "name": "direccion",
              "type": "tuple"
            }
          ],
          "internalType": "struct CredencialDigital.DatosCredencial",
          "name": "",
          "type": "tuple"
        }
      ],
      "stateMutability": "view",
      "type": "function"
    },
    {
      "inputs": [],
      "name": "getIDwithSender",
      "outputs": [
        {
          "components": [
            {
              "components": [
                {
                  "internalType": "string",
                  "name": "nombre",
                  "type": "string"
                },
                {
                  "internalType": "string",
                  "name": "apellidoPaterno",
                  "type": "string"
                },
                {
                  "internalType": "string",
                  "name": "apellidoMaterno",
                  "type": "string"
                },
                {
                  "internalType": "uint8",
                  "name": "generoBiologico",
                  "type": "uint8"
                }
              ],
              "internalType": "struct CredencialDigital.DatosIdentidad",
              "name": "identidad",
              "type": "tuple"
            },
            {
              "internalType": "string",
              "name": "claveElector",
              "type": "string"
            },
            {
              "internalType": "string",
              "name": "curp",
              "type": "string"
            },
            {
              "internalType": "uint256",
              "name": "fechaRegistro",
              "type": "uint256"
            },
            {
              "internalType": "uint256",
              "name": "fechaVigencia",
              "type": "uint256"
            },
            {
              "components": [
                {
                  "internalType": "string",
                  "name": "calle",
                  "type": "string"
                },
                {
                  "internalType": "uint256",
                  "name": "numeroExterior",
                  "type": "uint256"
                },
                {
                  "internalType": "string",
                  "name": "numeroInterior",
                  "type": "string"
                },
                {
                  "internalType": "string",
                  "name": "colonia",
                  "type": "string"
                },
                {
                  "internalType": "uint256",
                  "name": "codigoPostal",
                  "type": "uint256"
                },
                {
                  "internalType": "uint256",
                  "name": "seccion",
                  "type": "uint256"
                }
              ],
              "internalType": "struct CredencialDigital.Direccion",
              "name": "direccion",
              "type": "tuple"
            }
          ],
          "internalType": "struct CredencialDigital.DatosCredencial",
          "name": "",
          "type": "tuple"
        }
      ],
      "stateMutability": "view",
      "type": "function"
    },
    {
      "inputs": [
        {
          "internalType": "bytes32",
          "name": "role",
          "type": "bytes32"
        }
      ],
      "name": "getRoleAdmin",
      "outputs": [
        {
          "internalType": "bytes32",
          "name": "",
          "type": "bytes32"
        }
      ],
      "stateMutability": "view",
      "type": "function"
    },
    {
      "inputs": [
        {
          "internalType": "bytes32",
          "name": "role",
          "type": "bytes32"
        },
        {
          "internalType": "address",
          "name": "account",
          "type": "address"
        }
      ],
      "name": "grantRole",
      "outputs": [],
      "stateMutability": "nonpayable",
      "type": "function"
    },
    {
      "inputs": [
        {
          "internalType": "bytes32",
          "name": "role",
          "type": "bytes32"
        },
        {
          "internalType": "address",
          "name": "account",
          "type": "address"
        }
      ],
      "name": "hasRole",
      "outputs": [
        {
          "internalType": "bool",
          "name": "",
          "type": "bool"
        }
      ],
      "stateMutability": "view",
      "type": "function"
    },
    {
      "inputs": [
        {
          "internalType": "address",
          "name": "owner",
          "type": "address"
        },
        {
          "internalType": "address",
          "name": "operator",
          "type": "address"
        }
      ],
      "name": "isApprovedForAll",
      "outputs": [
        {
          "internalType": "bool",
          "name": "",
          "type": "bool"
        }
      ],
      "stateMutability": "view",
      "type": "function"
    },
    {
      "inputs": [],
      "name": "name",
      "outputs": [
        {
          "internalType": "string",
          "name": "",
          "type": "string"
        }
      ],
      "stateMutability": "view",
      "type": "function"
    },
    {
      "inputs": [
        {
          "internalType": "uint256",
          "name": "tokenId",
          "type": "uint256"
        }
      ],
      "name": "ownerOf",
      "outputs": [
        {
          "internalType": "address",
          "name": "",
          "type": "address"
        }
      ],
      "stateMutability": "view",
      "type": "function"
    },
    {
      "inputs": [
        {
          "internalType": "bytes32",
          "name": "role",
          "type": "bytes32"
        },
        {
          "internalType": "address",
          "name": "account",
          "type": "address"
        }
      ],
      "name": "renounceRole",
      "outputs": [],
      "stateMutability": "nonpayable",
      "type": "function"
    },
    {
      "inputs": [
        {
          "internalType": "bytes32",
          "name": "role",
          "type": "bytes32"
        },
        {
          "internalType": "address",
          "name": "account",
          "type": "address"
        }
      ],
      "name": "revokeRole",
      "outputs": [],
      "stateMutability": "nonpayable",
      "type": "function"
    },
    {
      "inputs": [
        {
          "internalType": "address",
          "name": "to",
          "type": "address"
        },
        {
          "internalType": "string",
          "name": "nombre",
          "type": "string"
        },
        {
          "internalType": "string",
          "name": "apellidoPaterno",
          "type": "string"
        },
        {
          "internalType": "string",
          "name": "apellidoMaterno",
          "type": "string"
        },
        {
          "internalType": "string",
          "name": "claveElector",
          "type": "string"
        },
        {
          "internalType": "string",
          "name": "curp",
          "type": "string"
        },
        {
          "internalType": "uint8",
          "name": "generoBiologico",
          "type": "uint8"
        }
      ],
      "name": "safeMint",
      "outputs": [
        {
          "internalType": "uint256",
          "name": "id",
          "type": "uint256"
        }
      ],
      "stateMutability": "nonpayable",
      "type": "function"
    },
    {
      "inputs": [
        {
          "internalType": "address",
          "name": "from",
          "type": "address"
        },
        {
          "internalType": "address",
          "name": "to",
          "type": "address"
        },
        {
          "internalType": "uint256",
          "name": "tokenId",
          "type": "uint256"
        }
      ],
      "name": "safeTransferFrom",
      "outputs": [],
      "stateMutability": "nonpayable",
      "type": "function"
    },
    {
      "inputs": [
        {
          "internalType": "address",
          "name": "from",
          "type": "address"
        },
        {
          "internalType": "address",
          "name": "to",
          "type": "address"
        },
        {
          "internalType": "uint256",
          "name": "tokenId",
          "type": "uint256"
        },
        {
          "internalType": "bytes",
          "name": "data",
          "type": "bytes"
        }
      ],
      "name": "safeTransferFrom",
      "outputs": [],
      "stateMutability": "nonpayable",
      "type": "function"
    },
    {
      "inputs": [
        {
          "internalType": "address",
          "name": "operator",
          "type": "address"
        },
        {
          "internalType": "bool",
          "name": "approved",
          "type": "bool"
        }
      ],
      "name": "setApprovalForAll",
      "outputs": [],
      "stateMutability": "nonpayable",
      "type": "function"
    },
    {
      "inputs": [
        {
          "internalType": "bytes4",
          "name": "interfaceId",
          "type": "bytes4"
        }
      ],
      "name": "supportsInterface",
      "outputs": [
        {
          "internalType": "bool",
          "name": "",
          "type": "bool"
        }
      ],
      "stateMutability": "view",
      "type": "function"
    },
    {
      "inputs": [],
      "name": "symbol",
      "outputs": [
        {
          "internalType": "string",
          "name": "",
          "type": "string"
        }
      ],
      "stateMutability": "view",
      "type": "function"
    },
    {
      "inputs": [
        {
          "internalType": "uint256",
          "name": "tokenId",
          "type": "uint256"
        }
      ],
      "name": "tokenURI",
      "outputs": [
        {
          "internalType": "string",
          "name": "",
          "type": "string"
        }
      ],
      "stateMutability": "view",
      "type": "function"
    },
    {
      "inputs": [
        {
          "internalType": "address",
          "name": "from",
          "type": "address"
        },
        {
          "internalType": "address",
          "name": "to",
          "type": "address"
        },
        {
          "internalType": "uint256",
          "name": "tokenId",
          "type": "uint256"
        }
      ],
      "name": "transferFrom",
      "outputs": [],
      "stateMutability": "nonpayable",
      "type": "function"
    }
  ],
  "bytecode": {
    "object": "0x60806040523480156200001157600080fd5b5060405162003887380380620038878339810160408190526200003491620001ce565b6040518060400160405280601181526020017010dc9959195b98da585b111a59da5d185b607a1b81525060405180604001604052806003815260200162494e4560e81b81525081600090816200008b9190620002ab565b5060016200009a8282620002ab565b50620000ac915060009050826200010c565b620000d87f9f2df0fed2c77648de5860a4cc508cd0818c85b8b8a1ab4ceeef8d981c8956a6826200010c565b620001047fb6f6b279a7a4e2aa16012cbd36fcdc1fbdb91b92fd6dab57885c9de496473a8d836200010c565b505062000377565b60008281526006602090815260408083206001600160a01b038516845290915290205460ff16620001ad5760008281526006602090815260408083206001600160a01b03851684529091529020805460ff191660011790556200016c3390565b6001600160a01b0316816001600160a01b0316837f2f8788117e7eff1d82e926ec794901d17c78024a50270940304540a733656f0d60405160405180910390a45b5050565b80516001600160a01b0381168114620001c957600080fd5b919050565b60008060408385031215620001e257600080fd5b620001ed83620001b1565b9150620001fd60208401620001b1565b90509250929050565b634e487b7160e01b600052604160045260246000fd5b600181811c908216806200023157607f821691505b6020821081036200025257634e487b7160e01b600052602260045260246000fd5b50919050565b601f821115620002a657600081815260208120601f850160051c81016020861015620002815750805b601f850160051c820191505b81811015620002a2578281556001016200028d565b5050505b505050565b81516001600160401b03811115620002c757620002c762000206565b620002df81620002d884546200021c565b8462000258565b602080601f831160018114620003175760008415620002fe5750858301515b600019600386901b1c1916600185901b178555620002a2565b600085815260208120601f198616915b82811015620003485788860151825594840194600190910190840162000327565b5085821015620003675787850151600019600388901b60f8161c191681555b5050505050600190811b01905550565b61350080620003876000396000f3fe608060405234801561001057600080fd5b50600436106101c45760003560e01c8063600e5eba116100f9578063b88d4fde11610097578063d0e4e45d11610071578063d0e4e45d1461044c578063d539139314610454578063d547741f1461047b578063e985e9c51461048e57600080fd5b8063b88d4fde14610413578063c2c4687314610426578063c87b56dd1461043957600080fd5b806391d14854116100d357806391d14854146103b757806395d89b41146103f0578063a217fddf146103f8578063a22cb4651461040057600080fd5b8063600e5eba146103715780636352211e1461039157806370a08231146103a457600080fd5b8063248a9ca3116101665780633aeae31d116101405780633aeae31d146102e757806341ad5e3d1461030e57806342842e0e146103335780635bdc847f1461034657600080fd5b8063248a9ca3146102905780632f2ff15d146102c157806336568abe146102d457600080fd5b806306fdde03116101a257806306fdde031461022a578063081812fc1461023f578063095ea7b31461026a57806323b872dd1461027d57600080fd5b80630178fe3f146101c957806301ffc9a7146101f2578063033ee8aa14610215575b600080fd5b6101dc6101d7366004612b3b565b6104ca565b6040516101e99190612c79565b60405180910390f35b610205610200366004612d21565b610a13565b60405190151581526020016101e9565b610228610223366004612dea565b610a24565b005b610232610b2c565b6040516101e99190612e99565b61025261024d366004612b3b565b610bbe565b6040516001600160a01b0390911681526020016101e9565b610228610278366004612ec8565b610be5565b61022861028b366004612ef2565b610cff565b6102b361029e366004612b3b565b60009081526006602052604090206001015490565b6040519081526020016101e9565b6102286102cf366004612f2e565b610d76565b6102286102e2366004612f2e565b610d9b565b6102b37fb6f6b279a7a4e2aa16012cbd36fcdc1fbdb91b92fd6dab57885c9de496473a8d81565b61032161031c366004612b3b565b610e27565b6040516101e996959493929190612f5a565b610228610341366004612ef2565b611322565b6102b3610354366004612fc0565b805160208183018101805160098252928201919093012091525481565b6102b361037f366004612ff5565b600a6020526000908152604090205481565b61025261039f366004612b3b565b61133d565b6102b36103b2366004612ff5565b6113a2565b6102056103c5366004612f2e565b60009182526006602090815260408084206001600160a01b0393909316845291905290205460ff1690565b610232611428565b6102b3600081565b61022861040e366004613010565b611437565b61022861042136600461304c565b611442565b6102b36104343660046130d9565b6114c0565b610232610447366004612b3b565b6117bb565b6101dc61182f565b6102b37f9f2df0fed2c77648de5860a4cc508cd0818c85b8b8a1ab4ceeef8d981c8956a681565b610228610489366004612f2e565b611d5d565b61020561049c3660046131cc565b6001600160a01b03918216600090815260056020908152604080832093909416825291909152205460ff1690565b6104d2612aad565b7fb6f6b279a7a4e2aa16012cbd36fcdc1fbdb91b92fd6dab57885c9de496473a8d6104fc81611d82565b60008381526008602052604090819020815161014081019092528054829060c082019083908290829061052e906131f6565b80601f016020809104026020016040519081016040528092919081815260200182805461055a906131f6565b80156105a75780601f1061057c576101008083540402835291602001916105a7565b820191906000526020600020905b81548152906001019060200180831161058a57829003601f168201915b505050505081526020016001820180546105c0906131f6565b80601f01602080910402602001604051908101604052809291908181526020018280546105ec906131f6565b80156106395780601f1061060e57610100808354040283529160200191610639565b820191906000526020600020905b81548152906001019060200180831161061c57829003601f168201915b50505050508152602001600282018054610652906131f6565b80601f016020809104026020016040519081016040528092919081815260200182805461067e906131f6565b80156106cb5780601f106106a0576101008083540402835291602001916106cb565b820191906000526020600020905b8154815290600101906020018083116106ae57829003601f168201915b50505091835250506003919091015460ff1660209182015290825260048301805492909101916106fa906131f6565b80601f0160208091040260200160405190810160405280929190818152602001828054610726906131f6565b80156107735780601f1061074857610100808354040283529160200191610773565b820191906000526020600020905b81548152906001019060200180831161075657829003601f168201915b5050505050815260200160058201805461078c906131f6565b80601f01602080910402602001604051908101604052809291908181526020018280546107b8906131f6565b80156108055780601f106107da57610100808354040283529160200191610805565b820191906000526020600020905b8154815290600101906020018083116107e857829003601f168201915b505050505081526020016006820154815260200160078201548152602001600882016040518060c0016040529081600082018054610842906131f6565b80601f016020809104026020016040519081016040528092919081815260200182805461086e906131f6565b80156108bb5780601f10610890576101008083540402835291602001916108bb565b820191906000526020600020905b81548152906001019060200180831161089e57829003601f168201915b50505050508152602001600182015481526020016002820180546108de906131f6565b80601f016020809104026020016040519081016040528092919081815260200182805461090a906131f6565b80156109575780601f1061092c57610100808354040283529160200191610957565b820191906000526020600020905b81548152906001019060200180831161093a57829003601f168201915b50505050508152602001600382018054610970906131f6565b80601f016020809104026020016040519081016040528092919081815260200182805461099c906131f6565b80156109e95780601f106109be576101008083540402835291602001916109e9565b820191906000526020600020905b8154815290600101906020018083116109cc57829003601f168201915b50505050508152602001600482015481526020016005820154815250508152505091505b50919050565b6000610a1e82611d8f565b92915050565b7f9f2df0fed2c77648de5860a4cc508cd0818c85b8b8a1ab4ceeef8d981c8956a6610a4e81611d82565b6000888152600860205260408120600601549003610a7f57604051630bf4f16b60e31b815260040160405180910390fd5b6040518060c0016040528088815260200187815260200186815260200185815260200184815260200183815250600860008a81526020019081526020016000206008016000820151816000019081610ad79190613278565b506020820151600182015560408201516002820190610af69082613278565b5060608201516003820190610b0b9082613278565b506080820151600482015560a0909101516005909101555050505050505050565b606060008054610b3b906131f6565b80601f0160208091040260200160405190810160405280929190818152602001828054610b67906131f6565b8015610bb45780601f10610b8957610100808354040283529160200191610bb4565b820191906000526020600020905b815481529060010190602001808311610b9757829003601f168201915b5050505050905090565b6000610bc982611db4565b506000908152600460205260409020546001600160a01b031690565b6000610bf08261133d565b9050806001600160a01b0316836001600160a01b031603610c625760405162461bcd60e51b815260206004820152602160248201527f4552433732313a20617070726f76616c20746f2063757272656e74206f776e656044820152603960f91b60648201526084015b60405180910390fd5b336001600160a01b0382161480610c7e5750610c7e813361049c565b610cf05760405162461bcd60e51b815260206004820152603d60248201527f4552433732313a20617070726f76652063616c6c6572206973206e6f7420746f60448201527f6b656e206f776e6572206f7220617070726f76656420666f7220616c6c0000006064820152608401610c59565b610cfa8383611e18565b505050565b610d093382611e86565b610d6b5760405162461bcd60e51b815260206004820152602d60248201527f4552433732313a2063616c6c6572206973206e6f7420746f6b656e206f776e6560448201526c1c881bdc88185c1c1c9bdd9959609a1b6064820152608401610c59565b610cfa838383611f05565b600082815260066020526040902060010154610d9181611d82565b610cfa83836120e5565b6001600160a01b0381163314610e195760405162461bcd60e51b815260206004820152602f60248201527f416363657373436f6e74726f6c3a2063616e206f6e6c792072656e6f756e636560448201527f20726f6c657320666f722073656c6600000000000000000000000000000000006064820152608401610c59565b610e238282612187565b5050565b600860205280600052604060002060009150905080600001604051806080016040529081600082018054610e5a906131f6565b80601f0160208091040260200160405190810160405280929190818152602001828054610e86906131f6565b8015610ed35780601f10610ea857610100808354040283529160200191610ed3565b820191906000526020600020905b815481529060010190602001808311610eb657829003601f168201915b50505050508152602001600182018054610eec906131f6565b80601f0160208091040260200160405190810160405280929190818152602001828054610f18906131f6565b8015610f655780601f10610f3a57610100808354040283529160200191610f65565b820191906000526020600020905b815481529060010190602001808311610f4857829003601f168201915b50505050508152602001600282018054610f7e906131f6565b80601f0160208091040260200160405190810160405280929190818152602001828054610faa906131f6565b8015610ff75780601f10610fcc57610100808354040283529160200191610ff7565b820191906000526020600020905b815481529060010190602001808311610fda57829003601f168201915b50505091835250506003919091015460ff16602090910152600482018054919291611021906131f6565b80601f016020809104026020016040519081016040528092919081815260200182805461104d906131f6565b801561109a5780601f1061106f5761010080835404028352916020019161109a565b820191906000526020600020905b81548152906001019060200180831161107d57829003601f168201915b5050505050908060050180546110af906131f6565b80601f01602080910402602001604051908101604052809291908181526020018280546110db906131f6565b80156111285780601f106110fd57610100808354040283529160200191611128565b820191906000526020600020905b81548152906001019060200180831161110b57829003601f168201915b505050505090806006015490806007015490806008016040518060c0016040529081600082018054611159906131f6565b80601f0160208091040260200160405190810160405280929190818152602001828054611185906131f6565b80156111d25780601f106111a7576101008083540402835291602001916111d2565b820191906000526020600020905b8154815290600101906020018083116111b557829003601f168201915b50505050508152602001600182015481526020016002820180546111f5906131f6565b80601f0160208091040260200160405190810160405280929190818152602001828054611221906131f6565b801561126e5780601f106112435761010080835404028352916020019161126e565b820191906000526020600020905b81548152906001019060200180831161125157829003601f168201915b50505050508152602001600382018054611287906131f6565b80601f01602080910402602001604051908101604052809291908181526020018280546112b3906131f6565b80156113005780601f106112d557610100808354040283529160200191611300565b820191906000526020600020905b8154815290600101906020018083116112e357829003601f168201915b5050505050815260200160048201548152602001600582015481525050905086565b610cfa83838360405180602001604052806000815250611442565b6000818152600260205260408120546001600160a01b031680610a1e5760405162461bcd60e51b815260206004820152601860248201527f4552433732313a20696e76616c696420746f6b656e20494400000000000000006044820152606401610c59565b60006001600160a01b03821661140c5760405162461bcd60e51b815260206004820152602960248201527f4552433732313a2061646472657373207a65726f206973206e6f7420612076616044820152683634b21037bbb732b960b91b6064820152608401610c59565b506001600160a01b031660009081526003602052604090205490565b606060018054610b3b906131f6565b610e2333838361220a565b61144c3383611e86565b6114ae5760405162461bcd60e51b815260206004820152602d60248201527f4552433732313a2063616c6c6572206973206e6f7420746f6b656e206f776e6560448201526c1c881bdc88185c1c1c9bdd9959609a1b6064820152608401610c59565b6114ba848484846122d8565b50505050565b60007f9f2df0fed2c77648de5860a4cc508cd0818c85b8b8a1ab4ceeef8d981c8956a66114ec81611d82565b6009856040516114fc9190613338565b90815260200160405180910390205460001461152b576040516307d946db60e21b815260040160405180910390fd5b6001600160a01b0389166000908152600a602052604090205415611562576040516307d946db60e21b815260040160405180910390fd5b600061156d60075490565b61157890600161336a565b9050611588600780546001019055565b6115928a82612356565b4260006115a3826312cc030061336a565b9050826009896040516115b69190613338565b9081526020016040518091039020819055506040518060c0016040528060405180608001604052808e81526020018d81526020018c81526020018960ff1681525081526020018981526020018881526020018381526020018281526020016040518060c00160405280604051806020016040528060008152508152602001600081526020016040518060200160405280600081525081526020016040518060200160405280600081525081526020016000815260200160008152508152506008600085815260200190815260200160002060008201518160000160008201518160000190816116a59190613278565b50602082015160018201906116ba9082613278565b50604082015160028201906116cf9082613278565b50606091909101516003909101805460ff191660ff909216919091179055602082015160048201906117019082613278565b50604082015160058201906117169082613278565b50606082015160068201556080820151600782015560a08201518051600883019081906117439082613278565b5060208201516001820155604082015160028201906117629082613278565b50606082015160038201906117779082613278565b506080820151600482015560a0909101516005909101555050506001600160a01b038b166000908152600a6020526040902082905550915050979650505050505050565b60606117c682611db4565b60006117dd60408051602081019091526000815290565b905060008151116117fd5760405180602001604052806000815250611828565b8061180784612370565b60405160200161181892919061337d565b6040516020818303038152906040525b9392505050565b611837612aad565b336000908152600a6020908152604080832054808452600890925291829020825161014081019093528054919291829060c082019083908290829061187b906131f6565b80601f01602080910402602001604051908101604052809291908181526020018280546118a7906131f6565b80156118f45780601f106118c9576101008083540402835291602001916118f4565b820191906000526020600020905b8154815290600101906020018083116118d757829003601f168201915b5050505050815260200160018201805461190d906131f6565b80601f0160208091040260200160405190810160405280929190818152602001828054611939906131f6565b80156119865780601f1061195b57610100808354040283529160200191611986565b820191906000526020600020905b81548152906001019060200180831161196957829003601f168201915b5050505050815260200160028201805461199f906131f6565b80601f01602080910402602001604051908101604052809291908181526020018280546119cb906131f6565b8015611a185780601f106119ed57610100808354040283529160200191611a18565b820191906000526020600020905b8154815290600101906020018083116119fb57829003601f168201915b50505091835250506003919091015460ff166020918201529082526004830180549290910191611a47906131f6565b80601f0160208091040260200160405190810160405280929190818152602001828054611a73906131f6565b8015611ac05780601f10611a9557610100808354040283529160200191611ac0565b820191906000526020600020905b815481529060010190602001808311611aa357829003601f168201915b50505050508152602001600582018054611ad9906131f6565b80601f0160208091040260200160405190810160405280929190818152602001828054611b05906131f6565b8015611b525780601f10611b2757610100808354040283529160200191611b52565b820191906000526020600020905b815481529060010190602001808311611b3557829003601f168201915b505050505081526020016006820154815260200160078201548152602001600882016040518060c0016040529081600082018054611b8f906131f6565b80601f0160208091040260200160405190810160405280929190818152602001828054611bbb906131f6565b8015611c085780601f10611bdd57610100808354040283529160200191611c08565b820191906000526020600020905b815481529060010190602001808311611beb57829003601f168201915b5050505050815260200160018201548152602001600282018054611c2b906131f6565b80601f0160208091040260200160405190810160405280929190818152602001828054611c57906131f6565b8015611ca45780601f10611c7957610100808354040283529160200191611ca4565b820191906000526020600020905b815481529060010190602001808311611c8757829003601f168201915b50505050508152602001600382018054611cbd906131f6565b80601f0160208091040260200160405190810160405280929190818152602001828054611ce9906131f6565b8015611d365780601f10611d0b57610100808354040283529160200191611d36565b820191906000526020600020905b815481529060010190602001808311611d1957829003601f168201915b50505050508152602001600482015481526020016005820154815250508152505091505090565b600082815260066020526040902060010154611d7881611d82565b610cfa8383612187565b611d8c8133612403565b50565b60006001600160e01b03198216637965db0b60e01b1480610a1e5750610a1e82612478565b6000818152600260205260409020546001600160a01b0316611d8c5760405162461bcd60e51b815260206004820152601860248201527f4552433732313a20696e76616c696420746f6b656e20494400000000000000006044820152606401610c59565b600081815260046020526040902080546001600160a01b0319166001600160a01b0384169081179091558190611e4d8261133d565b6001600160a01b03167f8c5be1e5ebec7d5bd14f71427d1e84f3dd0314c0f7b2291e5b200ac8c7c3b92560405160405180910390a45050565b600080611e928361133d565b9050806001600160a01b0316846001600160a01b03161480611ed957506001600160a01b0380821660009081526005602090815260408083209388168352929052205460ff165b80611efd5750836001600160a01b0316611ef284610bbe565b6001600160a01b0316145b949350505050565b826001600160a01b0316611f188261133d565b6001600160a01b031614611f7c5760405162461bcd60e51b815260206004820152602560248201527f4552433732313a207472616e736665722066726f6d20696e636f72726563742060448201526437bbb732b960d91b6064820152608401610c59565b6001600160a01b038216611fde5760405162461bcd60e51b8152602060048201526024808201527f4552433732313a207472616e7366657220746f20746865207a65726f206164646044820152637265737360e01b6064820152608401610c59565b826001600160a01b0316611ff18261133d565b6001600160a01b0316146120555760405162461bcd60e51b815260206004820152602560248201527f4552433732313a207472616e736665722066726f6d20696e636f72726563742060448201526437bbb732b960d91b6064820152608401610c59565b600081815260046020908152604080832080546001600160a01b03199081169091556001600160a01b0387811680865260038552838620805460001901905590871680865283862080546001019055868652600290945282852080549092168417909155905184937fddf252ad1be2c89b69c2b068fc378daa952ba7f163c4a11628f55a4df523b3ef91a4505050565b60008281526006602090815260408083206001600160a01b038516845290915290205460ff16610e235760008281526006602090815260408083206001600160a01b03851684529091529020805460ff191660011790556121433390565b6001600160a01b0316816001600160a01b0316837f2f8788117e7eff1d82e926ec794901d17c78024a50270940304540a733656f0d60405160405180910390a45050565b60008281526006602090815260408083206001600160a01b038516845290915290205460ff1615610e235760008281526006602090815260408083206001600160a01b0385168085529252808320805460ff1916905551339285917ff6391f5c32d9c69d2a47ea670b442974b53935d1edc7fd64eb21e047a839171b9190a45050565b816001600160a01b0316836001600160a01b03160361226b5760405162461bcd60e51b815260206004820152601960248201527f4552433732313a20617070726f766520746f2063616c6c6572000000000000006044820152606401610c59565b6001600160a01b03838116600081815260056020908152604080832094871680845294825291829020805460ff191686151590811790915591519182527f17307eab39ab6107e8899845ad3d59bd9653f200f220920489ca2b5937696c31910160405180910390a3505050565b6122e3848484611f05565b6122ef848484846124c8565b6114ba5760405162461bcd60e51b815260206004820152603260248201527f4552433732313a207472616e7366657220746f206e6f6e20455243373231526560448201527131b2b4bb32b91034b6b83632b6b2b73a32b960711b6064820152608401610c59565b610e23828260405180602001604052806000815250612614565b6060600061237d83612692565b600101905060008167ffffffffffffffff81111561239d5761239d612d3e565b6040519080825280601f01601f1916602001820160405280156123c7576020820181803683370190505b5090508181016020015b600019016f181899199a1a9b1b9c1cb0b131b232b360811b600a86061a8153600a85049450846123d157509392505050565b60008281526006602090815260408083206001600160a01b038516845290915290205460ff16610e235761243681612774565b612441836020612786565b6040516020016124529291906133ac565b60408051601f198184030181529082905262461bcd60e51b8252610c5991600401612e99565b60006001600160e01b031982166380ac58cd60e01b14806124a957506001600160e01b03198216635b5e139f60e01b145b80610a1e57506301ffc9a760e01b6001600160e01b0319831614610a1e565b60006001600160a01b0384163b1561260957604051630a85bd0160e11b81526001600160a01b0385169063150b7a029061250c90339089908890889060040161342d565b6020604051808303816000875af1925050508015612547575060408051601f3d908101601f1916820190925261254491810190613469565b60015b6125ef573d808015612575576040519150601f19603f3d011682016040523d82523d6000602084013e61257a565b606091505b5080516000036125e75760405162461bcd60e51b815260206004820152603260248201527f4552433732313a207472616e7366657220746f206e6f6e20455243373231526560448201527131b2b4bb32b91034b6b83632b6b2b73a32b960711b6064820152608401610c59565b805181602001fd5b6001600160e01b031916630a85bd0160e11b149050611efd565b506001949350505050565b61261e8383612922565b61262b60008484846124c8565b610cfa5760405162461bcd60e51b815260206004820152603260248201527f4552433732313a207472616e7366657220746f206e6f6e20455243373231526560448201527131b2b4bb32b91034b6b83632b6b2b73a32b960711b6064820152608401610c59565b6000807a184f03e93ff9f4daa797ed6e38ed64bf6a1f01000000000000000083106126db577a184f03e93ff9f4daa797ed6e38ed64bf6a1f010000000000000000830492506040015b6d04ee2d6d415b85acef81000000008310612707576d04ee2d6d415b85acef8100000000830492506020015b662386f26fc10000831061272557662386f26fc10000830492506010015b6305f5e100831061273d576305f5e100830492506008015b612710831061275157612710830492506004015b60648310612763576064830492506002015b600a8310610a1e5760010192915050565b6060610a1e6001600160a01b03831660145b60606000612795836002613486565b6127a090600261336a565b67ffffffffffffffff8111156127b8576127b8612d3e565b6040519080825280601f01601f1916602001820160405280156127e2576020820181803683370190505b509050600360fc1b816000815181106127fd576127fd61349d565b60200101906001600160f81b031916908160001a905350600f60fb1b8160018151811061282c5761282c61349d565b60200101906001600160f81b031916908160001a9053506000612850846002613486565b61285b90600161336a565b90505b60018111156128d3576f181899199a1a9b1b9c1cb0b131b232b360811b85600f166010811061288f5761288f61349d565b1a60f81b8282815181106128a5576128a561349d565b60200101906001600160f81b031916908160001a90535060049490941c936128cc816134b3565b905061285e565b5083156118285760405162461bcd60e51b815260206004820181905260248201527f537472696e67733a20686578206c656e67746820696e73756666696369656e746044820152606401610c59565b6001600160a01b0382166129785760405162461bcd60e51b815260206004820181905260248201527f4552433732313a206d696e7420746f20746865207a65726f20616464726573736044820152606401610c59565b6000818152600260205260409020546001600160a01b0316156129dd5760405162461bcd60e51b815260206004820152601c60248201527f4552433732313a20746f6b656e20616c7265616479206d696e746564000000006044820152606401610c59565b6000818152600260205260409020546001600160a01b031615612a425760405162461bcd60e51b815260206004820152601c60248201527f4552433732313a20746f6b656e20616c7265616479206d696e746564000000006044820152606401610c59565b6001600160a01b038216600081815260036020908152604080832080546001019055848352600290915280822080546001600160a01b0319168417905551839291907fddf252ad1be2c89b69c2b068fc378daa952ba7f163c4a11628f55a4df523b3ef908290a45050565b604080516101408101909152606060c0820181815260e0830182905261010083019190915260006101208301528190815260200160608152602001606081526020016000815260200160008152602001612b366040518060c001604052806060815260200160008152602001606081526020016060815260200160008152602001600081525090565b905290565b600060208284031215612b4d57600080fd5b5035919050565b60005b83811015612b6f578181015183820152602001612b57565b50506000910152565b60008151808452612b90816020860160208601612b54565b601f01601f19169290920160200192915050565b6000815160808452612bb96080850182612b78565b905060208301518482036020860152612bd28282612b78565b91505060408301518482036040860152612bec8282612b78565b91505060ff60608401511660608501528091505092915050565b6000815160c08452612c1b60c0850182612b78565b90506020830151602085015260408301518482036040860152612c3e8282612b78565b91505060608301518482036060860152612c588282612b78565b9150506080830151608085015260a083015160a08501528091505092915050565b602081526000825160c06020840152612c9560e0840182612ba4565b90506020840151601f1980858403016040860152612cb38383612b78565b92506040860151915080858403016060860152612cd08383612b78565b925060608601516080860152608086015160a086015260a08601519150808584030160c086015250612d028282612c06565b95945050505050565b6001600160e01b031981168114611d8c57600080fd5b600060208284031215612d3357600080fd5b813561182881612d0b565b634e487b7160e01b600052604160045260246000fd5b600067ffffffffffffffff80841115612d6f57612d6f612d3e565b604051601f8501601f19908116603f01168101908282118183101715612d9757612d97612d3e565b81604052809350858152868686011115612db057600080fd5b858560208301376000602087830101525050509392505050565b600082601f830112612ddb57600080fd5b61182883833560208501612d54565b600080600080600080600060e0888a031215612e0557600080fd5b87359650602088013567ffffffffffffffff80821115612e2457600080fd5b612e308b838c01612dca565b975060408a0135965060608a0135915080821115612e4d57600080fd5b612e598b838c01612dca565b955060808a0135915080821115612e6f57600080fd5b50612e7c8a828b01612dca565b93505060a0880135915060c0880135905092959891949750929550565b6020815260006118286020830184612b78565b80356001600160a01b0381168114612ec357600080fd5b919050565b60008060408385031215612edb57600080fd5b612ee483612eac565b946020939093013593505050565b600080600060608486031215612f0757600080fd5b612f1084612eac565b9250612f1e60208501612eac565b9150604084013590509250925092565b60008060408385031215612f4157600080fd5b82359150612f5160208401612eac565b90509250929050565b60c081526000612f6d60c0830189612ba4565b8281036020840152612f7f8189612b78565b90508281036040840152612f938188612b78565b905085606084015284608084015282810360a0840152612fb38185612c06565b9998505050505050505050565b600060208284031215612fd257600080fd5b813567ffffffffffffffff811115612fe957600080fd5b611efd84828501612dca565b60006020828403121561300757600080fd5b61182882612eac565b6000806040838503121561302357600080fd5b61302c83612eac565b91506020830135801515811461304157600080fd5b809150509250929050565b6000806000806080858703121561306257600080fd5b61306b85612eac565b935061307960208601612eac565b925060408501359150606085013567ffffffffffffffff81111561309c57600080fd5b8501601f810187136130ad57600080fd5b6130bc87823560208401612d54565b91505092959194509250565b803560ff81168114612ec357600080fd5b600080600080600080600060e0888a0312156130f457600080fd5b6130fd88612eac565b9650602088013567ffffffffffffffff8082111561311a57600080fd5b6131268b838c01612dca565b975060408a013591508082111561313c57600080fd5b6131488b838c01612dca565b965060608a013591508082111561315e57600080fd5b61316a8b838c01612dca565b955060808a013591508082111561318057600080fd5b61318c8b838c01612dca565b945060a08a01359150808211156131a257600080fd5b506131af8a828b01612dca565b9250506131be60c089016130c8565b905092959891949750929550565b600080604083850312156131df57600080fd5b6131e883612eac565b9150612f5160208401612eac565b600181811c9082168061320a57607f821691505b602082108103610a0d57634e487b7160e01b600052602260045260246000fd5b601f821115610cfa57600081815260208120601f850160051c810160208610156132515750805b601f850160051c820191505b818110156132705782815560010161325d565b505050505050565b815167ffffffffffffffff81111561329257613292612d3e565b6132a6816132a084546131f6565b8461322a565b602080601f8311600181146132db57600084156132c35750858301515b600019600386901b1c1916600185901b178555613270565b600085815260208120601f198616915b8281101561330a578886015182559484019460019091019084016132eb565b50858210156133285787850151600019600388901b60f8161c191681555b5050505050600190811b01905550565b6000825161334a818460208701612b54565b9190910192915050565b634e487b7160e01b600052601160045260246000fd5b80820180821115610a1e57610a1e613354565b6000835161338f818460208801612b54565b8351908301906133a3818360208801612b54565b01949350505050565b7f416363657373436f6e74726f6c3a206163636f756e74200000000000000000008152600083516133e4816017850160208801612b54565b7f206973206d697373696e6720726f6c65200000000000000000000000000000006017918401918201528351613421816028840160208801612b54565b01602801949350505050565b60006001600160a01b0380871683528086166020840152508360408301526080606083015261345f6080830184612b78565b9695505050505050565b60006020828403121561347b57600080fd5b815161182881612d0b565b8082028115828204841417610a1e57610a1e613354565b634e487b7160e01b600052603260045260246000fd5b6000816134c2576134c2613354565b50600019019056fea264697066735822122025e540b80f8b117b53ba69d72c1a6a294606c27bbb5293110a1f057e3c07002364736f6c63430008140033",
    "linkReferences": {}
  },
  "methodIdentifiers": {
    "DATA_PROVIDER_ROLE()": "3aeae31d",
    "DEFAULT_ADMIN_ROLE()": "a217fddf",
    "MINTER_ROLE()": "d5391393",
    "approve(address,uint256)": "095ea7b3",
    "balanceOf(address)": "70a08231",
    "cambioUbicacion(uint256,string,uint256,string,string,uint256,uint256)": "033ee8aa",
    "ciudadano(uint256)": "41ad5e3d",
    "credencialPorClaveElector(string)": "5bdc847f",
    "credencialPorDireccion(address)": "600e5eba",
    "getApproved(uint256)": "081812fc",
    "getData(uint256)": "0178fe3f",
    "getIDwithSender()": "d0e4e45d",
    "getRoleAdmin(bytes32)": "248a9ca3",
    "grantRole(bytes32,address)": "2f2ff15d",
    "hasRole(bytes32,address)": "91d14854",
    "isApprovedForAll(address,address)": "e985e9c5",
    "name()": "06fdde03",
    "ownerOf(uint256)": "6352211e",
    "renounceRole(bytes32,address)": "36568abe",
    "revokeRole(bytes32,address)": "d547741f",
    "safeMint(address,string,string,string,string,string,uint8)": "c2c46873",
    "safeTransferFrom(address,address,uint256)": "42842e0e",
    "safeTransferFrom(address,address,uint256,bytes)": "b88d4fde",
    "setApprovalForAll(address,bool)": "a22cb465",
    "supportsInterface(bytes4)": "01ffc9a7",
    "symbol()": "95d89b41",
    "tokenURI(uint256)": "c87b56dd",
    "transferFrom(address,address,uint256)": "23b872dd"
  },
  "id": 34
}